:101DDD00011E00011B00C10FC10CC10DC108011C6A
:031DED0000C10E24
:1018200075B208C283E490E600F090E6107420F0F0
:10183000000000000090E611F0000000000090E6BB
:101840001274E0F0000000000090E6137420F00035
:101850000000000090E61474E2F000000000009028
:10186000E61574A2F0000000000090E69D7480F080
:101870000000000000F0000000000090E609742065
:0C188000F0000000000043AF01021EA1B8
:1016B90090E1DC743FF0A374F8F07AE17BDCC21CA2
:1016C9007D027F51121E587AE17BDC7D047F511225
:1016D9001ED890E1DCE0FFC4540F243090E092F072
:1016E900EF540F243090E094F090E1DDE0FFC45412
:1016F9000F243090E096F0EF540F243090E098F0EA
:1017090090E1DEE0FFC4540F243090E09AF0EF54EA
:101719000F243090E09CF090E1DFE0FFC4540F24E7
:0E1729003090E09EF0EF540F243090E0A0F0DE
:01173700228F
:10163700E5AA20E62990E69CE0F55590E69DE0F5C1
:1016470056455560137AFC790074FCF59A7400F5D9
:101657009BAF56AE5512194A90E69D7480F0300D37
:1016670013E5AA30E00EE490E690F00000000000D9
:1016770090E691F0300E06D210C20ED20930090959
:10168700E5AC30E104C20AC209300C253010227FD4
:101697000B121CF08F56E5564410FD7F0B121D9C54
:1016A700300B03435601AD567F0B121D9CC20CC273
:0116B7001022
:0116B800220F
:101E320075B208C283E490E600F090E6017480F087
:031E4200C21822A1
:05004600121E32D3225E
:0E1EC000D28343B202D28190E6007412F02267
:05004E00121EC0D322C8
:02004100D322C8
:101E6B0090E6BAE0F51E6005121EC08003121E320A
:021E7B00D32270
:101E7D0090E740E51EF0E490E68AF090E68B04F0E2
:021E8D00D3225E
:101E450090E6BAE0D39402748094805004E0F51BC8
:031E550022C32283
:101E8F0090E740E51BF0E490E68AF090E68B04F0D3
:021E9F00D3224C
:021EEB00D32200
:021EED00D322FE
:021EEF00D322FC
:10111D0090E6BDE0F55790E6BCE0F55890E6BFE0EF
:10112D00F55590E6BEE0F55690E6BBE0F55990E634
:10113D00BAE0F55A90E6B9E024ED700302122E04E0
:10114D00600302127E90E6B8E030E772E556455531
:10115D00700302128085555985565AD3E55A94402D
:10116D00E55994004006755900755A407AE77B4061
:10117D00AD5AAC59AF58AE57120A698E598F5A9065
:10118D00E68AE559F090E68BE55AF0000000000084
:10119D0090E6A0E020E1F9C3E556955AF556E555E0
:1011AD009559F555E55A2558F558E5593557F557DB
:1011BD00C3E55A9440E55994005091021280E556CA
:1011CD0045557003021280E490E68AF090E68BF0AC
:1011DD00000000000090E6A0E020E1F9C3E5569480
:1011ED0040E55594007AE77B4040247D407C00AF7C
:1011FD0058AE5712005674C02556F55674FF355526
:10120D00F55574402558F558E43557F55780AFAD71
:10121D0056AC55AF58AE57120056E4F555F55680FD
:10122D009D90E6B8E030E721AB56AA55AD5AAC59C2
:10123D00AF58AE571213FE8E558F5690E68AE55570
:10124D00F090E68BE556F0802AE55645556015E49D
:10125D0090E68AF090E68BF0000000000090E6A08A
:10126D00E020E1F9AD5AAC59AF58AE57121738B36B
:04127D0022D322C393
:01128100224A
:101D6900C0E0C083C082D21E5391EF90E65D74013A
:081D7900F0D082D083D0E032EB
:101DB100C0E0C083C0825391EF90E65D7404F0D01F
:061DC10082D083D0E03265
:101DC700C0E0C083C0825391EF90E65D7402F0D00B
:061DD70082D083D0E0324F
:101AA800C0E0C083C08285100C85110D850D82852C
:101AB8000C83A37402F085080E85090F850F8285B3
:101AC8000E83A37407F0751E00C2835391EF90E64E
:0B1AD8005D7410F0D082D083D0E032AB
:101D8100C0E0C083C082D21F5391EF90E65D74081A
:081D9100F0D082D083D0E032D3
:101A6B00C0E0C083C08290E680E030E72085080CA0
:101A7B0085090D850D82850C83A37402F085100EEC
:101A8B0085110F850F82850E83A37407F05391EF99
:0D1A9B0090E65D7420F0D082D083D0E03260
:01003200329B
:011AFF0032B4
:011EF10032BE
:011EF20032BD
:011EF30032BC
:011EF40032BB
:011EF50032BA
:011EF60032B9
:101C4800C0E0C083C0825391EF90E65F7440F020FB
:101C58000A1690E6A2E05402700C90E7C07404F0F3
:0F1C680090E68F7401F0D20AD082D083D0E032A0
:011EF70032B8
:021DF000C11818
:031EE50002199D42
:10199D00752705752870754504754610E4F549F5EC
:1019AD004AF54BF54C75431F7544BD752402F5255D
:1019BD007531017532A0752902752A80753701F5CB
:1019CD0038753501F536C21190E618744CF0C21316
:0E19DD00753301C214753401C219E4F51D22E0
:1018F3007F647E001219EB431C02AD1C7F02121D94
:101903009C7F02121CF0EF30E303D38001C39215D6
:101913007D017F03121D9C7D027F0B121D9C7D1098
:101923007F21121D9C1205EC90E6307419F090E6AD
:101933003174F0F090E6347409F090E63574F0F009
:0719430090E6027440F0225F
:101D1300AE41E5427803C333CE33CED8F9FF200872
:101D23000F30190C7C007D03120F2E7D05120F401E
:011D3300228D
:0715B400AE43AF44E4FCFD6F
:1015BB008F738E728D718C70200825301922E47F09
:1015CB0005FEFDFCAB73AA72A971A870120F95E40E
:1015DB007B03FAF9F81210208F738E728D718C7059
:1015EB00AF73AE72AD71AC70E47B08FAF9F8121000
:1015FB00208F738E728D718C70AB42AA41121EB10B
:10160B008F738E728D718C70C3E5429573F573E594
:10161B00419572F572E571457060067572007573D0
:0C162B0001AD73AC727F7A7E02021B815D
:101A2C008E708F718C728D738B74AF741574EF60B4
:101A3C002DE571FF2402F571E570FE3400F5708F11
:101A4C00828E83E0FEA3E0FF0573E573AC72700237
:0F1A5C00057214F5828C83E0FD121B4980CC22A9
:101BB0008E708F718C728D73AF031BEF6024057371
:101BC000E573AE727002057214F5828E83E0FF0534
:101BD00071E571AC707002057014F5828C83EFF0C2
:031BE00080D6228A
:1005EC00853368A213921A853469A214921B3008C1
:1005FC000E853B68A216921A853C69A217921B7E47
:10060C00E07FA4E56964016003301B067CE07DFC9F
:10061C0080047CE17D083008047B0A80027B0C128C
:10062C001A2C7EE07FBCE569640170067CE17D14C8
:10063C0080047CE17D267B12121A2C756702D3E5AF
:10064C00699401748094804009E4F567301B03754C
:10065C006703AD677F6F7E01121B497F14121CF07C
:10066C00EF54B8F567201A0BE5686404700543670E
:10067C00048005E568144267201503301A034367AC
:10068C0040AD677F14121D9CD3E56994017480946E
:10069C00805003020756E4F526E569FD7C007F08CF
:1006AC007E01121B817EE17FC0301B067CE17D54F4
:1006BC0080047CE17D387B1C121BB0301B65AF695C
:1006CC007E00EF6403702590E1C204F0A37465F022
:1006DC0090E1C67401F0A37465F0A37401F0A374E7
:1006EC0066F090E1CC7401F0A37465F0EF64044EF5
:1006FC00702590E1C204F0A3740DF090E1C6740172
:10070C00F0A3740DF0A37401F0A3740EF090E1CC7F
:10071C007401F0A3740DF030080990E1D4E4F0A357
:10072C00E569F0756720AF697E00EF6402700375B0
:10073C006741EF64034E700375672B756A08756B20
:10074C0003756E08756F0302087F854B6E854C6FC1
:10075C0085456A85466B30080C854F6E85506F85D4
:10076C00476A85486B536FF0E4F567E56F456E603B
:10077C0003756702AF6FAE6E121DF38E6C8F6DC377
:10078C007420956FF56F7404956EF56E90E1D2E45C
:10079C00F0A3EFF090E1CE7406F0A374FEF0856C3C
:1007AC0026740C256CF56C2567FFE433FE90E1C4D0
:1007BC00F0A3EFF0AD6C7C0090E1C0ECF0A3EDF099
:1007CC0090E1CAEEF0A3EFF0C3E56F956BF56FE522
:1007DC006E956AF56EE56B2DFFEC356AFEAD67EF35
:1007EC002DF56DEC3EF56C90E1C2F0A3E56DF0904B
:1007FC00E1C6E56CF0A3E56DF090E1CCE56CF0A3FF
:10080C00E56DF0C39DF56DE56C9CF56CAF6FAE6E50
:10081C00121DF38E6E8F6FE56E256DF56DE4356CE4
:10082C00F56CE56D240190E1C9F0E4356C90E1C8FC
:10083C00F0AE6AE56B7803CEC313CE13D8F9F56727
:10084C0090E1D07406F0A374FEF090E1D67406F03B
:10085C00A374FEF030080DE548B41008E547B40465
:10086C0003756F0190E1D4E4F0A3E56FF0756E06AB
:10087C00756FFEAD677F04121D9CAD6E7F06121D59
:10088C009CAD6F7F07121D9C90E1C8E0F541A3E081
:10089C00F542E56775F008A4FFC3E5429FFD7F1A9A
:1008AC00121D9C85496C854A6D85276A85286B309D
:1008BC00080C854D6C854E6D852D6A852E6BE56912
:1008CC0064017024748D256DF56D7401356CF56CB7
:1008DC0090E1D8F0A3E56DF0256BF56DE56A356C0C
:1008EC00F56CA3F0A3E56DF0AA6AAB6BE56875F047
:1008FC0004A4FDACF0AF03AE02120F408E6A8F6BF6
:10090C00AF677E00AC6AAD6B120F2EEF24FFF56B58
:10091C00EE34FFF56A90E1DC7416F0E56A131313FC
:10092C00541FA3F0AE6AE56B7805C333CE33CED833
:10093C00F98E6A441FF56B90E1DEE56AF0A3E56B76
:10094C00F07AE17BDCD21C7D047F44121E58E4F566
:10095C0067C3E567940E74809480502BE56725E09F
:10096C0024E0F582E434E0F583E0FEA3E0FFE567E4
:10097C0025E024C0F582E434E1F583E0FCA3E0FD3E
:10098C00121B81056780CA300817E4FDFC7F7A7E54
:10099C0002121B817DFF7C007F6F7E02121B818007
:1009AC00031215B4300806AE2BAF2C8004AE24AF66
:1009BC0025121D34121B792015031217B1E4FD7F8B
:1009CC007C7E02121B49E4F567C3E56794057480CD
:1009DC0094805037E56725E02470F582E434E1F526
:1009EC0083E0FEA3E0FFE56725E0300809247AF5F3
:1009FC0082E434E180072484F582E434E1F583E079
:100A0C00FCA3E0FD121B81056780BE7F0B121CF05E
:100A1C008F6D756703756A01756B4520080C30196D
:100A2C0009756713756A01756BC7AD677F05121D74
:100A3C009CAD6BAC6A7FE17E00121B8120080630F6
:100A4C001903436D20AD6D7F0B121D9CE4FD7F29B6
:0D0A5C00FE121B497D017F297E00021B490F
:101E09007F0B121CF0EF4480121D99431C10AD1C6E
:051E19007F02021D9C88
:101CA300531CEFAD1C7F02121D9C7F0B121CF0EF27
:101CB300545FF567121D99E5674440FD7F0B121DC4
:081CC3009CAD677F0B021D9C24
:0C0A69008E5B8F5C8C5D8D5E8A5F8B6005
:100A7500E4F561F562C3E562955EE561955D400368
:100A8500020D1AE4F565F566F563F564E55C855BCD
:100A9500F01210C30B9C00040B6500080B82000CC0
:100AA5000B9900100B9C019C0BA902200BB204A012
:100AB5000BB804A40BDA04AC0BB204F00BE304F49A
:100AC5000C0B04F80C1104FC0BAC05000BEB050436
:100AD5000C0B05080C1D050C0BAC05100BF30514D0
:100AE5000C0B05180C1D051C0BAC05200BFB052478
:100AF5000C0B05280C1D052C0BAC05300C0305341F
:100B05000C0B05380C1D053C0BB205400BB205500E
:100B15000BAC05600BAC05700BAC05800BAC059000
:100B25000BB205A00BB206100C2610000C351004F4
:100B35000C4D10080C3E100C0C5B10100C6B1014B7
:100B45000C7810180C8C101C0C9110400CAC104833
:100B55000CCA104C0C9110500B994FF800000CD298
:100B6500E58030E103436480E5AA544070034364A3
:100B750040201803020CD2436420020CD275630B8B
:100B850075642F7F01121CF08F66E4FF121CF08F35
:100B950065020CD2020CCF90E680E020E703020C40
:100BA500D2020CCF020C8C301503020CD275658075
:100BB500020CD2854363854464E563C4540FF5662E
:100BC500E564C4F8540FC868F564E563C454F04897
:100BD500F563020CD2121D138E638F6480DB8524AE
:100BE5006385256480D385316385326480CB853503
:100BF5006385366480C385376385386480BB852902
:100C050063852A6480B3756310020CD275637D75A4
:100C1500640C756601020CD275633E756450020C56
:100C2500D2756470756305756610756504020CD21E
:100C3500756404756608020CD2852763852864856A
:100C45004565854666020CD2854963854A64854BB0
:100C550065854C66807720110D3015047F00800274
:100C65007F088F6480673015047F0580027F0C8FB5
:100C750064805A85336430130375630185346630A7
:100C8500144B7565018046756404804112188C8E7D
:100C9500638F647C007D03120F407C007D05120F7D
:100CA5002E8E658F66802612188C8E638F643019A0
:100CB5001C7C007D03120F407C007D05120F2E8EDB
:100CC500638F6480087564028003756401856082A2
:100CD500855F83E564F0A3E563F0856082855F83C6
:100CE500A3A3E566F0856082855F83A3A3A3E5657D
:100CF500F074042560F560E4355FF55F74042562E2
:100D0500F562E43561F5617404255CF55CE4355BF9
:090D1500F55B020A7AAE61AF62DF
:010D1E0022B2
:0C0056008E5B8F5C8C5D8D5E8A5F8B6022
:10006200E55E455D70030205EB856082855F83A3D3
:10007200A3A3E0F561856082855F83A3A3E0F562B7
:10008200856082855F83A3E0F563856082855F83F7
:10009200E0F564E563C4F854F0C868F565E564C446
:1000A200540F48F566E562C454F04265E562C454F3
:1000B2000F600674FFF565F566E55C855BF012106E
:1000C200C3014F0000015B000801AC021401ED0204
:1000D2001802FD022403050228030D04A4031904D7
:1000E200F403C9050403D1051403D9052403E1056A
:1000F200340326054403B0055403E9056403F705F8
:10010200740405058404130594042505A0043E0522
:10011200A404530614048C1008047D100C049B10D4
:100122001004BC101804DD10480503400804F44014
:100132000C05124010053740180557500005755040
:100142004005755080057550C0000005C67D807F52
:1001520002121D9C12199D804BE564602590E601F8
:10016200E054FC4480F0000000000090E61474E2C9
:10017200F0000000000090E61574A2F0121AE302EB
:1001820005C6121BE390E61474E0F00000000000C4
:1001920090E6157422F0000000000090E601E054A1
:1001A2007F4403F01218F30205C6C20DE5645480C1
:1001B200600E2008061205EC121E09D20F0205C6B7
:1001C200C20F200803121CA3E56454406005D20D3F
:1001D2000205C690E6047480F0000000000074027C
:1001E200F00000000000E4F00205C6300816AF641B
:1001F200EF64037003756406AF64EF6401705F75AA
:100202006405805AE56430E255121CA3300F0EE4F7
:1002120090E690F0000000000090E691F0D20843D2
:100222001C4090E6027460F01205ECE4FD7FEBFEE8
:10023200121B497D047F19121D9CE51D30E3097BC9
:10024200407D3F7F21121E1E7F967E001219EB1207
:100252001E09C289D2A8D210C20EC209C20A7F0BDD
:10026200121CF08F63300820E56430E102D20CC228
:100272000B5363FEE56430E008200C03436301D2B4
:100282000BAD637F0B121D9C2008030205C6E564BB
:10029200540460030205C6C20CC2A8C20EE5635430
:1002A200EEFD7F0B121D9CC208121CA3531C9F90D3
:1002B200E6027440F0E51D30E3047D1080027D000B
:1002C2007F19121D9CE4FB7D3F7F21121E1E7D01C2
:1002D2007FEB7E00121B4990E6047480F000000060
:1002E20000007406F00000000000E4F0200F03029A
:1002F20005C61205EC121E090205C690E65F74409F
:10030200F08001E490E65EF00205C68565438566ED
:10031200441215B40205C6856524856625AF25AE4F
:10032200240203C0E47B0AFAF9F8AF64AE63AD625B
:10033200AC61121020E47B8FFAF9F8120F958F64EA
:100342008E638D628C61E47FCE7E04FDFCAB64AA79
:1003520063A962A861C31210B2500BE47564CE7532
:100362006304F562F561C3E56494CEF564E56394D4
:1003720004F563E5629400F562E5619400F561AD10
:10038200617F08121D9CAD627F09121D9CAD637FC7
:100392000A121D9C2008030205C6E56160047D0166
:1003A20080027D007F7C7E02121B490205C68565A4
:1003B2002B85662C2008030205C6AF2CAE2B121D1E
:1003C20034121B790205C685653185663280248523
:1003D2006535856636801C856537856638803E853D
:1003E200652985662A803685653985663A2008033F
:1003F2000205C6802885653D85663E200803020504
:10040200C6801A85653F8566402008030205C680BE
:100412000C85652F8566302008030205C61217B1C8
:100422000205C67F0B121CF0EF4402F561E563542E
:100432008060035361FDAD617F0B8039AE63AF64B1
:100442007C007D2B120F408E638F64AD647F15801C
:1004520024AF64AE63AD62AC61E47B06FAF9F812D4
:100462000F958F648E638D628C61AD627F2B121D3E
:100472009CAD637F2C121D9C0205C6856327856493
:10048200288561458562460205C685634985644AB9
:1004920085614B85624C0205C6C21175614CAF6421
:1004A200EF640C6007AF64EF6405700575614DD2AF
:1004B2001190E618E561F00205C6856433E56354E0
:1004C200016003D38001C39213856234E561540154
:1004D2006003D38001C392140205C6D21912188C8C
:1004E200EF65647003EE656360030205C6C219021C
:1004F20005C685632D85642E8561478562480205A0
:10050200C685634D85644E85614F8562500205C67E
:10051200AF64EF640C6007AF64EF64057003D380CF
:1005220001C392123012047F4D80027F4C90E61A72
:10053200EFF00205C685643BE56354016003D38096
:1005420001C3921685623CE56154016003D38001C8
:10055200C39217806FE55E6440455D60167F14129A
:100562001CF0EF54DFFD7F14121D9C755D00755E5B
:10057200048051E55C04856082855F83F0D21CAB08
:1005820060AA5F7D407F46121E58856082855F8328
:10059200E55CF0A3E564F0D21CAB60AA5F7D027F4C
:1005A20046121E58E55C64C0700E7F14121CF0EFF8
:1005B2004420FD7F14121D9C74C4255EF55E74FFF9
:1005C200355DF55D74042560F560E4355FF55F74B3
:1005D200FC255EF55E74FF355DF55D7404255CF502
:0905E2005CE4355BF55B0200628C
:0105EB0022ED
:10188C00E534FD7C00AE45AF46120F40AB07AA060F
:10189C00E533FD7C00AE27AF28120F408E678F68B2
:1018AC00EB2430FFE43A8F82F5833011047F038000
:1018BC00027F04AE02EBA807088005CEC313CE133B
:1018CC00D8F9FF7C007D7D120F2EAC67AD6812102D
:1018DC00F0C006C007AE83AF82AB07AA06E4F9F8E6
:0718EC00D007D00602102016
:101DF300EF4E70047E01FF22EF7805C333CE33CE5E
:061E0300D8F94408FF229B
:04149B008E718F724D
:10149F00E5727803C333CE33CED8F9F5728E71AFC0
:1014AF00717E00C3EF941074809480501075730890
:1014BF00757400E4F583F582FA7B1A8041C3EF94CB
:1014CF0028EE64809480500F75731075740090002F
:1014DF004D7A007B3C8027C3EF9450EE648094805C
:1014EF00500F7573287574009000B37A007B848059
:1014FF000D7573507574009001007A017B26C3E55A
:10150F00729574FFE5719573FEAD03AC02120F4037
:08151F00EF2582FFEE3583FE8B
:0115270022A1
:101D340012149B7C027D3B1210F0E4FB7A01F9F84B
:0B1D4400121020EF24ECFFE43EFE2212
:101D4F0012149B7C007D6A1210F0E4FB7A01F9F803
:0A1D5F00121020EF6420543FFF2211
:1017B100E4F570E52630E003757002300806AE2FBF
:1017C100AF308004AE29AF2A121D4F7409121B3F9E
:1017D100300806AE3FAF408004AE37AF38121D4F20
:1017E100740A121B3F300806AE3DAF3E8004AE3591
:1017F100AF36121D4FAD07E5702407FFE433FE122B
:101801001B49300806AE39AF3A8004AE31AF32120F
:0F1811001D4FAD07E5702408FFE433FE021B49AD
:081B7900AC06AD077F027E00FF
:101B81008E748F758C768D77E577543FFD121B49E6
:101B9100AE76E5777806CEC313CE13D8F9F5778EF6
:0F1BA10076E5752401FFE43574FEAD77021B492C
:101AE300C281E5B254DF4454F5B2C286C282C284D5
:091AF3007567071567E56770FAD5
:031AFC00D284226F
:101BE300D286C286D286C286D286C286D286C28672
:101BF300D286C286D286C286D286C286D286C28662
:101C0300D286C286D286C286308502D21853B2AB40
:031C1300D2812259
:10194A00EF1FAC0670011E4C604890E67BE0F52064
:10195A00A2009282D286C286A2019282D286C286D0
:10196A00A2029282D286C286A2039282D286C286BC
:10197A00A2049282D286C286A2059282D286C286A8
:10198A00A2069282D286C286A2079282D286C28694
:03199A0080AE22FA
:101CF00090E1E0EFF07AE17BE0C21C7D017F4412CD
:101D00001E587AE17BE07D017F44121ED890E1E00D
:021D1000E0FFF2
:011D120022AE
:031D9900FD7F0BC0
:101D9C0090E1E0EFF0A3EDF07AE17BE0D21C7D0264
:051DAC007F44021E58F7
:101E1E008F678D688B69121CF0E5685F4569FDAFB1
:041E2E0067021D9C8E
:0A1B3F00AD07C39570FFE49400FEAB
:041B49008E788F798A
:101B4D0090E1E0740CF0E5797802CEC313CE13D892
:101B5D00F990E1E1F0E579C4333354C04DA3F07A47
:0C1B6D00E17BE0D21C7D037F44021E5887
:0A1ECE0000010202030304040505ED
:10134C00E4F554F553F552F551C21FC21E90E682D6
:10135C0074C4F0121820120036750AE0750B007573
:10136C0012E07513127508E075091C7510E0751103
:10137C005C7514E075156E85100C85110D85080EC5
:10138C0085090F90E680E030E70C85080C85090D87
:10139C0085100E85110FD2E890E668E0440BF090B2
:1013AC00E65CE04439F0D2AF121EE51216B990E6B5
:1013BC0080E0440AF07FDC7E051219EB90E65D7448
:1013CC00FFF090E65FF05391EF90E680E054F7F079
:1013DC00538EF8C21F301E05120D1FC21E301F0D7A
:1013EC001200465008C21F121CCB12004E121637A8
:0213FC0080E38C
:100D1F0090E6B9E07003020DD0147003020E402468
:100D2F00FE7003020EC424FB7003020DCA1470037D
:100D3F00020DC414607314607624056003020F1A49
:100D4F001200414003020F2690E6BBE024FE602212
:100D5F0014603324FD601114602224067048E50AE4
:100D6F0090E6B3F0E50B8037E51290E6B3F0E513AC
:100D7F00802DE50C90E6B3F0E50D8023E50E90E6AF
:100D8F00B3F0E50F801990E6BAE0FF121C77AA06C0
:100D9F00A9077B01EA494B600DEE90E6B3F0EF90A7
:100DAF00E6B4F0020F26020F1F121E8F020F26123B
:100DBF001E45020F26121E6B020F26121E7D020FFA
:100DCF0026121EEB4003020F26E490E740F090E658
:100DDF00B8E02480604614604314705290E6BCE083
:100DEF00D39480748094807E0040047F0180027FC2
:100DFF000090E6BCE0547EFDEF4D24CEF582741ECC
:100E0F003EF583E493FF3395E0FEEF24A1FFEE342C
:100E1F00E68F82F583E0540190E740F0E490E741DC
:100E2F00F090E68AF090E68B7402F0020F26020F24
:100E3F001F121EED4003020F2690E6B8E024FE605D
:100E4F001524026003020F2690E6BAE064027003D5
:100E5F00020F26020F1F90E6BAE0705790E6BCE033
:100E6F00D39480748094807E0040047F0180027F41
:100E7F000090E6BCE0547EFDEF4D24CEF582741E4B
:100E8F003EF583E493FF3395E0FEEF24A1FFEE34AC
:100E9F00E68F82F583E054FEF090E6BCE0548013B9
:100EAF001313541FFFE0540F2F90E683F0E04420FC
:100EBF00F08064805B121EEF505D90E6B8E024FE78
:100ECF00600E2402705190E6BAE0640260498040DF
:100EDF0090E6BCE0D39480748094807E0040047FC1
:100EEF000180027F0090E6BCE0547EFDEF4D24CEE2
:100EFF00F582741E3EF583E493FF3395E0FEEF24F5
:100F0F00A1FFEE34E68F82F583800812111D500782
:0E0F1F0090E6A0E04401F090E6A0E04480F0EF
:010F2D0022A1
:03003300021EE1C9
:041EE10053D8EF32B1
:10E00000120100020000004054539A000000010277
:10E0100003010A060002000000400100090240005E
:10E0200001010080FA0904000000FF00000009045B
:10E03000000101FF000000070508020002010904B9
:10E04000000203FF0000000705820200020107052D
:10E050008602000201070581030100040902120083
:10E0600001010080FA0904000000FF000000040321
:10E07000090412034C0075006D0065006E00650018
:10E08000720061000C034C00750031003300300059
:10E0900012033100320033003400350036003700FF
:10E0A00038000000006500660071007200A200A345
:10E0B0000170017101720175026F0270009300948A
:10E0C0000095009601D001D101D401DA01DE01DF13
:10E0D00001E001E401E501E601EA01EB00A900AA83
:10E0E000017301760067006900EE00D200D501845B
:10E0F00001AA0113013400F200C300C50C000300A3
:10E1000002000C000002390304003F3F000202003D
:10E1100002013D032E062F1B3E1B00002801002894
:10E12000010028023805220A341F032001010401DE
:10E13000010401011D013E0901040FFF01040FFE4E
:10E14000010500040104080308030001000A080394
:10E1500002930803000D0215000D02150216000DB2
:10E160000215080308030000000A080302930803CD
:10E170000224022A02300236013D000000000000A5
:0EE1800000000FFE000F002F002F004F005276
:101EA10090E670E04401F0C2A8C2B8D288C289228B
:03000300021EE8F2
:031EE800D20E32E5
:03004300021B009D
:03005300021B008D
:101B0000021D6900021DC700021DB100021D8100F7
:101B1000021AA800021A6B0002003200021AFF002B
:101B2000021EF100021EF200021EF300021EF4006B
:0F1B3000021EF500021EF600021C4800021EF7FE
:1013FE008C5B8D5C8A5D8B5EEE6003021497EF242E
:10140E00FC601B24FD603A1460542408707B7AE75C
:0E141E007B40AD5BAF5C121ED8AF5B7E002240
:10142C0090E1DCE55BF07AE17BDCD21C7D01AF5C0A
:10143C00121E587AE77B407D01AF5C121ED87E00ED
:03144C007F0122FB
:10144F007F03121CF08F5FE55FC4540F90E741F0EC
:0D145F00E55F540F90E740F07E007F022211
:10146C0090E741E55CF0E55B443090E740F07AE7CB
:10147C007B40C21C7D027F51121E587AE77B40AD27
:0F148C005E7F51121ED8AE5DAF5E22E4FEFF22DE
:041738008C5B8D5CDD
:10173C0090E740E0F55DEE706AEF24FA601A1460F1
:10174C002224FE60272409705A7AE77B40D21CAD14
:10175C005BAF5C121E58D322AD5DAF5CAE5B121B4F
:0C176C0049D322AD5D7F03121D9CD322E7
:10177800E55DF4F51D54086003D38001C3921A3067
:101788001A072008047B1080027B007DEF7F191266
:101798001E1E301A073008047B4080027B007D3F04
:0717A8007F21121E1ED32257
:0117AF00C376
:0117B0002216
:0F1EB100E4F8F91210208F058E048B078A0622A1
:0B003600E4F51990E67A04F0D2E9220C
:10000600AC0790E678E020E6F9AE19EE701CE04405
:1000160080F0EC25E090E679F08D168A178B18753E
:0C0026001901A21DE433F51AD322C322F5
:101C1600AC0790E678E020E6F9AE19EE6007AE195B
:101C2600EE640A701B90E678E04480F0EC25E04410
:101C36000190E679F08D168A178B18751903D32251
:021C4600C322B7
:091ED800121C16E51970FCD3225E
:101E5800A21C921D120006E51924F66004240A70DB
:031E6800F6D3228C
:03004B000212821C
:10128200C0E0C083C082C0D075D000C004C005C019
:1012920006C007E51924FE605114602E24FE700377
:1012A200021325240460030213380518E518AE174B
:1012B2007002051714F5828E83E090E679F0151618
:1012C200AF16EF7071751905806C90E679E0AC1776
:1012D200AD188D828C83F0751902AF16EF64017020
:1012E2005590E678E04420F0804CAF16EF6402702F
:1012F2000790E678E04420F0AF161516EF6401700F
:101302000A90E678E04440F075190090E679E0FF33
:101312000518E518AC177002051714F5828C83EFD7
:10132200F08013E51A600C90E678E04440F07519FD
:1013320000800375190A5391DFD007D006D005D07B
:0A13420004D0D0D082D083D0E03276
:101CCB0090E682E044C0F090E681F043870100008B
:041CDB0000000022E3
:1019EB008E678F6890E600E05418700DE567C3139F
:1019FB00F567E56813F568801590E600E05418FF6D
:101A0B00BF100BE56825E0F568E56733F567E5681A
:101A1B001568AE67700215674E6005121CDF80EE0D
:011A2B002298
:021C7700A907BB
:101C7900AE14AF158F828E83A3E064037017AD0194
:101C890019ED7001228F828E83E07C002FFDEC3EDE
:091C9900FEAF0580DF7E007F0034
:011CA200221F
:101CDF007400F58690FDA57C05A3E582458370F918
:011CEF0022D2
:03000000021528BE
:0C152800787FE4F6D8FD75817902156F1C
:100F2E00EF8DF0A4A8F0CF8CF0A428CE8DF0A42ED7
:020F3E00FE2291
:100F4000BC000BBE0029EF8DF084FFADF022E4CC95
:100F5000F875F008EF2FFFEE33FEEC33FCEE9DEC5E
:100F6000984005FCEE9DFE0FD5F0E9E4CEFD22EDA4
:100F7000F8F5F0EE8420D21CFEADF075F008EF2FEE
:100F8000FFED33FD4007985006D5F0F222C398FDDF
:050F90000FD5F0EA227C
:100F9500E88FF0A4CC8BF0A42CFCE98EF0A42CFCFB
:100FA5008AF0EDA42CFCEA8EF0A4CDA8F08BF0A479
:100FB5002DCC3825F0FDE98FF0A42CCD35F0FCEBD8
:100FC5008EF0A4FEA9F0EB8FF0A4CFC5F02ECD399D
:0F0FD500FEE43CFCEAA42DCE35F0FDE43CFC220A
:100FE40075F008758200EF2FFFEE33FECD33CDCCC4
:100FF40033CCC58233C5829BED9AEC99E582984047
:101004000CF582EE9BFEED9AFDEC99FC0FD5F0D623
:10101400E4CEFBE4CDFAE4CCF9A88222B800C1B94D
:101024000059BA002DEC8BF084CFCECDFCE5F0CB8B
:10103400F97818EF2FFFEE33FEED33FDEC33FCEBC4
:1010440033FB10D703994004EB99FB0FD8E5E4F97F
:10105400FA227818EF2FFFEE33FEED33FDEC33FC6C
:10106400C933C910D7059BE99A4007EC9BFCE99A60
:10107400F90FD8E0E4C9FAE4CCFB2275F010EF2FA5
:10108400FFEE33FEED33FDCC33CCC833C810D707A5
:101094009BEC9AE899400AED9BFDEC9AFCE899F8E0
:0E10A4000FD5F0DAE4CDFBE4CCFAE4C8F92273
:1010B200EB9FF5F0EA9E42F0E99D42F0E89C45F094
:0110C200220B
:1010C300D083D082F8E4937012740193700DA3A3BC
:1010D30093F8740193F5828883E473740293B5F0F3
:0D10E300067403936860E9A3A3A3A380D85B
:1010F000EC8EF0A4CCC5F0CCCDF8EFA4CEC5F02D8D
:10110000FDE43CFCE8A42EC8C5F03DFDE43CFCEF4A
:0D111000A4FFE5F028FEE43DFDE43CFC22D8
:1015340002134CE493A3F8E493A34003F68001F26E
:1015440008DFF48029E493A3F85407240CC8C333B8
:10155400C4540F4420C8834004F456800146F6DF87
:10156400E4800B0102040810204080901DDDE47E1D
:10157400019360BCA3FF543F30E509541FFEE4937C
:10158400A360010ECF54C025E060A840B8E493A343
:10159400FAE493A3F8E493A3C8C582C8CAC583CA6E
:1015A400F0A3C8C582C8CAC583CADFE9DEE780BE26
:011DF20000F0
:00000001FF
