:0C064800010B00010800C10CC10DC10E27
:1000560075B208C283E490E600F090E6107420F0D2
:100066000090E61174B0F00090E61274E0F0009093
:10007600E6137420F00090E61474E2F00090E615A2
:1000860074A2F00090E69D7480F000F00090E609FE
:0F0096007420F00043AF01122842C289D2A82281
:1000A5007F517D027AE17B98C2221228D67F517D4D
:1000B500047AE17BC01228CCE4FF74C02FF582E4FA
:1000C50034E1F583E0F555C4540F2430FE75829272
:1000D5007583E075F004EF122F2DEEF0E555540F02
:1000E5002430FE7582947583E075F004EF122F2D90
:0600F500EEF00FBF04C491
:0100FB0022E2
:1000FC00E5AA20E62D90E69CE0F55590E69DE0F50E
:10010C0056455560177AFC79007EFC7F0074FCF52F
:10011C009A7400F59BAF56AE5512213190E69D7442
:10012C0080F0300D0FE5AA30E00AE490E690F00084
:10013C0090E691F0200E030202C7C20E300807D2DF
:10014C0010D2090202C7AF0A050AEFD3940250037A
:10015C000202C7E4F50A7F101221848F597F111215
:10016C0021848F5A7F121221848F5B7F131221847A
:10017C008F5C301321AF31AE30AD5AAB591202FC4B
:10018C008E308F31AF2CAE2BAD5BAB5C1202FC8E84
:10019C002B8F2C1220052019030202C7AF59AD5A20
:1001AC00EF2DFFE433FEAD5B7C00EF2DFFEC3EFE4C
:1001BC00AD5CEF2DF556EC3EF555E556AE55780396
:1001CC00C333CE33CED8F9240CF556E43EF555AFF7
:1001DC0042E4FCFDFEF8F9FAAB07AE4FAF50122D1E
:1001EC00B27B007A0879007800122E3DEF240CF5D2
:1001FC0058E43EF557E5462404F55CE43545F55BDB
:10020C00E43544F55AE43543F5597F027E007D0010
:10021C007C00AB5CAA5BA95AA859122DB2A804A900
:10022C0005AA06AB07AE57AF58E4FCFD122DB2C0C1
:10023C0004C005C006C007E5582556FFE5573555DF
:10024C00FEE4FCFDF8F9AA06AB07D007D006D005F2
:10025C00D004122E3D8F5C8E5B8D5A8C597F047EA0
:10026C00007D007C00AB5CAA5BA95AA859C3122E76
:10027C00CF5003755C04C3E55C9404F55CE55B94BA
:10028C0000F55BE55A9400F55AE5599400F55912BE
:10029C0008A98F468E458D448C43AB5CAA5BA95A4A
:1002AC00A859C3122ECF5010AF5CAE5BAD5AAC59EF
:1002BC008F468E458D448C4312095E300909E5AC9E
:1002CC0030E104C20AC209300C253010227F0B1217
:1002DC0021848F567F0BE5564410FD1221A7300B5D
:0F02EC00034356017F0BAD561221A7C20CC2105F
:0102FB0022E0
:0402FC008E5D8F5E26
:10030000E55E7805CEC313CE13D8F9F560EDC4547D
:100310000FF55FEDD39B4024C3ED9BD3955F401C4D
:10032000E560255EF55EE4355DF55DD3E55E94F24E
:10033000E55D94014006755D01755EF2EDC39B506D
:1003400026C3EB9DD3955F401EC3E55E9560F55EC9
:10035000E55D9400F55DC3E55E9480E55D94005035
:0B03600006755D00755E80AE5DAF5E4F
:01036B00226F
:1000060075B208C283E490E600F090E6017480F0D1
:03001600C21D22E6
:09001900E50B6003120006D3227E
:0E002200D28343B202D28190E6007412F02223
:09003600E50B6003120022D32245
:02003000D322D9
:10036C0090E6BAE0F50B600512002280031200063D
:02037C00D3228A
:10037E0090E740E50BF0E490E68AF090E68B04F00F
:02038E00D32278
:0803900090E6BAE0F508D32263
:1003980090E740E508F0E490E68AF090E68B04F0F8
:0203A800D3225E
:1003AA0090E6BDE0F55790E6BCE0F55890E6BFE070
:1003BA00F55590E6BEE0F55690E6BBE0F55990E6B5
:1003CA00BAE0F55A90E6B9E024ED70030204BF04DE
:1003DA00600302050F90E6B8E030E76EE556455532
:1003EA00700302051185555985565AD3E55A94402A
:1003FA00E55994004006755900755A40AF58AE57F2
:10040A00AD5AAC597AE77B401210AA8E598F5A908E
:10041A00E68AE559F090E68BE55AF00090E6A0E00E
:10042A0020E1F9C3E556955AF556E5559559F5551E
:10043A00E55A2558F558E5593557F557C3E55A94FD
:10044A0040E55994005095020511E556455570034B
:10045A00020511E490E68AF090E68BF00090E6A09F
:10046A00E020E1F9C3E5569440E5559400402CAFED
:10047A0058AE577D407C007AE77B4012153D40021A
:10048A00D32274C02556F55674FF3555F555744078
:10049A002558F558E43557F55780AFAF58AE57ADE4
:1004AA0056AC557AE77B4012153D4002D322E4F55B
:1004BA0055F556809590E6B8E030E721AF58AE572B
:1004CA00AD5AAC59AB56AA5512293F8E558F569044
:1004DA00E68AE555F090E68BE556F0802AE5564522
:1004EA00556011E490E68AF090E68BF00090E6A061
:1004FA00E020E1F9AF58AE57AD5AAC59AB56AA5500
:08050A00122A0FB322D322C311
:0105120022C6
:10051300C0E0C083C082D21E5391EF90E65D7401A8
:08052300F0D082D083D0E03259
:10052B00C0E0C083C0825391EF90E65D7404F0D0BD
:06053B0082D083D0E03203
:10054100C0E0C083C0825391EF90E65D7402F0D0A9
:0605510082D083D0E032ED
:10055700C0E0C083C082851410851511851182857E
:100567001083A37402F0850C12850D138513828501
:100577001283A37407F0C283E4F50B75B20890E603
:1005870000F090E6017480F0C21D5391EF90E65D94
:0A0597007410F0D082D083D0E0325F
:1005A100C0E0C083C082D21F5391EF90E65D740812
:0805B100F0D082D083D0E032CB
:1005B900C0E0C083C08290E680E030E720850C105F
:1005C900850D11851182851083A37402F08514129B
:1005D900851513851382851283A37407F05391EF50
:0D05E90090E65D7420F0D082D083D0E03227
:01003200329B
:01003F00328E
:01004000328D
:01004100328C
:01004200328B
:010046003287
:010047003286
:010048003285
:1005F600C0E0C083C0825391EF90E65F7440F02064
:100606000A1590E6A2E020E10C90E7C07404F09091
:0E061600E68F7401F0D20AD082D083D0E03299
:10062400C0E0C083C0825391EF90E65F7480F09085
:10063400E1C5E004F0700690E1C4E004F0D082D09B
:0406440083D0E0324D
:1022020005C105C00AF504043AC10A4106C1090123
:1022120009810010004000AF00C5010101400189A1
:1022220001C00200024002800779078107C008004E
:1022320009C00A010C410C820CC11900194C198009
:1022420019CD1A001A5E1A901AC01B001B411B807E
:102252001BC21C001C431C801CFF1D3F2341238901
:1022620023C024222440248124EE2506256F259BA9
:1022720025C1263F267F26BF26FF2700277F27BFAF
:1022820027FF283F2841288228C029023AC13B0063
:102292003B413B9F3BD03C003C413CBE3CDB5B04B2
:1022A2005B415B805BC25C0C5C405C805CCD5D0032
:1022B2005D425D9E5DD05E015E7F5EBF5EC05F3F40
:1022C2005F7F5F805FFF603F6040608060C0613E13
:1022D200615B618161C062026240628062C0630FC1
:1022E2006340638263C16400644064AA64C065029F
:1022F2006541658065C0662A6640668266C0670081
:102302006740678467C16A006A406ABE6ADB6B0124
:102312006B406B856BC06C006C406C8F6CC06D0544
:102322006D416D806DC06E2A6E406E856EC16F000C
:102332006F406FAA6FC070057040708070C07104EA
:102342007141738073C0743E745B748074C0750095
:102352007540758075C076297640768076C17700A3
:10236200774077A877C178007841788078C079285B
:102372007941798079C07A007A407AA87AC27D0060
:102382007D407D837DE07E007E407E807EC07F003A
:102392007F407FA97FC080008041808080C08128EB
:1023A2008141818081C18200824082A882C18300F2
:1023B2008340838083C084288442868086C08725A8
:1023C2008742878187C088068840888088C0890FB5
:1023D2008940898689C18A008A408AAF8AC08B0671
:1023E2008B418B808BC08C2F8C408C868CC08D0057
:1023F2008D408D8F8DC19441948194C095249541D7
:10240200994099809A009A409BF99C0390003D0163
:102412003D413D803DC03E033E7F3EBF3EE43F0620
:102422003F413F803FC140014040408C40C1413F5D
:10243200417F419841C242044240428142C143002D
:102442004350438143FF443F4460448244C04500BB
:102452004541458145C0462B464846BF46FF472B6E
:102462004748478147C048014841488048FF493FA3
:10247200497F49BF49C14A004A414A804AC14B018A
:102482004B404B904BC14C3F4C7F4CA04CC24D1724
:102492004D404D814DD94E004E434E814EFF4F3F30
:1024A2004F524F814FC050002940298029E72A000E
:1024B2002A782A852AC02B002B402B802BC02C0087
:1024C2002C402C802CE82D002D792D852DC02E003E
:1024D2002E7F2EBF2EFF2F3F2F402FBF2FFF303FCB
:1024E200307F308030CD3106317D319B31C0323F7B
:1024F200327F32BF32FF3300337F33BF33FF343F8B
:102502003440348D34C03501355E359035C0363FA8
:10251200367F368036C1373B375B378137E038202C
:102522003846388638C03900394139BB39CB3A018F
:102532003A603ABA9C419C929CC29D029D439DBEC8
:102542009DFF9E3E9E7F9E819EC09F009F409F80DA
:102552009FC1A007A042A080A0C0A100A140A1806D
:04256200060106C0A8
:04065400C11DC11CE7
:03065900120687FF
:10065C0090E1C67430F0E4A3F07F517D027AE17B27
:10066C00C6C2221228D67F517D047AE17BC612289D
:0A067C00CC90E1C8E0B40202D21CE9
:010686002251
:10068700752905752A70754704754810E4F54BF50B
:100697004CF54DF54E7546D07545FB754401F54350
:1006A700752501F526C213C219754298F5307531C3
:1006B700AD752B01752C5CF536753780F5347535BE
:1006C70080C21290E618744CF0E4F53EC2167532FB
:1006D70001C217753301753F01D215C211752F0F6E
:0906E700C20EC208C20FF509227F
:1006F0007F647E00122BD64309027F02AD091221CE
:10070000A77F02122184EF30E303D38001C3921844
:10071000E4F567F5687F0C74022568F582E56734B7
:1007200022F583E493FD1221A77F0D74032568F55C
:1007300082E5673422F583E493FD1221A774022534
:1007400068F568E43567F567C3E5689464E5679420
:100750000340C27FB47D801221A77F037D01122157
:10076000A77F0B7D021221A77F057D031221A77FA2
:09077000217D101221A7301C7339
:1007790090E1CA7430F0A37404F07F517D027AE1EC
:100789007BCAD2221228D6E4F5697F2FAD691221DE
:10079900A7E4F5687F517D047AE17BCB1228CC90E0
:1007A900E1CAE568F07F457D057AE17BCAD222126C
:1007B90028D674042568F568B4FC1BE569B40616E7
:1007C90090E1CA7424F0E4A3F07F517D027AE17BC1
:1007D900CAD2221228D6E56870BA0569E569C394B8
:0307E9001040A716
:1007EC00120BA17F0212109D7F0612109D90E63015
:1007FC007419F090E63174F4F090E6347419F090BA
:0F080C00E63574F4F090E6027440F0C289D2A889
:01081B0022BA
:10081C00E533D39401402A30171F754002754116F9
:10082C00E533B40306754001754166E53364047025
:10083C003C75400175410E80347540017541058051
:10084C002CE54E540760067E047F8880047E047F6E
:10085C0090C3EF9548FFEE9547FEEF7803CEC31398
:10086C00CE13D8F92548F541E5473EF540E53ED392
:10087C0094034028E53E24FDFFE541AE40A807085F
:10088C008005C333CE33CED8F9F5418E40D394FED8
:0D089C00E540940F400675400F7541FE22A7
:1008A90012081C853E68E568D39403400375680304
:1008B900AF6874F8A807088002C313D8FCF568E587
:1008C90033D39401402FAE40AF41E4FCFD7B807AE5
:1008D90045F9F8122DB2C004C005C006C007AF68BB
:1008E900E4FCFDFEF8F9FAAB07D007D006D005D035
:1008F90004122E3D22AE40AF41E4FCFD7BA07A3CC0
:10090900F9F8122DB2C004C005C006C007AF68E4EB
:10091900FCFDFEF8F9FAAB07D007D006D005D004E4
:03092900122E3D4E
:01092C0022A8
:10092D00122CCFD3940340057403122D15122CCF26
:10093D00FF7405A807088002C333D8FC122D15E5F6
:10094D0033D3940140067E087F0380047E067FFE2C
:01095D002277
:10095E0090E1CF7422F0854677854576854475857E
:10096E004374853E737B007A00797312092D8E785D
:10097E008F7912081C7F8F7E007D007C00AB77AADA
:10098E0076A975A874122DB2C004C005C006C007A2
:10099E00AF73E4FCFDFEF8F9FAAB07D007D006D032
:1009AE0005D004122E3D8F778E768D758C74E5787A
:1009BE00C313FEE57913FFE4EF2577FFEE3576FEE0
:1009CE00E43575FDE43574FCC004C005C006C007EF
:1009DE00AE78AF79E4FCFDF8F9AA06AB07D007D0E4
:1009EE0006D005D004122E3D8F778E768D758C74C1
:1009FE00AB41AA401228558F778E768D758C74C3B5
:100A0E00E5419577F577E5409576F576E57545748C
:100A1E0060087576007577018017C3E5779541E517
:100A2E00769540400CE54124FFF577E54034FFF51F
:100A3E00767F7A7E02AD77AC761220AE857674859F
:100A4E007775C3E5759403E57494005006757400CC
:100A5E0075750374FD2575F57574FF3574F5747829
:100A6E0075E690E1D0F018E6A3F0A374D8F0E4A3F5
:100A7E00F07F447D057AE17BCFD2221228D6C3E5E2
:100A8E00419577F577E5409576F576E4F574F5754D
:100A9E00AE78AF79FCFDAB77AA76A975A874122D46
:100AAE00B2A804A905AA06AB07AF73E4FCFDFE12BB
:100ABE002DB27B8F7A0079007800122E3D8F468EF4
:050ACE00458D448C433E
:010AD3002200
:100AD4008E738F748C758D768B77AF771577EF6007
:100AE4002DE574FF2402F574E573FE3400F5738F6D
:100AF400828E83E0FEA3E0FF0576E576AC75700296
:0F0B0400057514F5828C83E0FD1221D280CC227E
:100B13008E738F748C758D76AF031BEF602405760F
:100B2300E576AE757002057514F5828E83E0FF05D8
:100B330074E574AC737002057314F5828C83EFF063
:030B430080D62237
:100B46007D457C0175670E7568A0EF70087DC775D9
:100B5600670E756820EFC454F04403F569EFC3943B
:100B66000340037569437FE17E001220AE7FE97E74
:100B760000AD68AC671220AE7F05122184EF540CDD
:100B86004569FD7F051221A77F297E00E4FD12211C
:0A0B9600D27F297E007D011221D2DA
:010BA0002232
:100BA100E4F50A85326BA216922085336CA2179266
:100BB1002130080E85386BA21A922085396CA21B50
:100BC1009221301C1A301517E4F56EE56CB401085A
:100BD100E56BB40103756E807F3BAD6E1221A77E7C
:100BE100E07FA4E56C640160033021067CE07DFCBC
:100BF10080047CE17D083008047B0A80027B0C12B2
:100C01000AD47EE07FBCE56CB401067CE17D1480F2
:100C1100047CE17D267B12120AD4756A02E56CD34D
:100C210094014009E4F56A302103756A037F6F7E00
:100C310001AD6A1221D27F14122184EF5420F56A8A
:100C410020200AE56BB40405436A048005E56B14B2
:100C5100426A201803302003436A407F14AD6A12B0
:100C610021A7E56CD394015003020D19E4F5277F08
:100C7100087E01AD6CFC1220AE7EE17FDE302108E2
:100C81007BFF7AE1795480067BFF7AE17938AC0207
:100C9100AD017B1C120B13302162E56CB40326906D
:100CA100E1E07401F0A37465F090E1E47401F0A354
:100CB1007465F0A37401F0A37466F090E1EA740125
:100CC100F0A37465F0E56CB4042690E1E07401F0E2
:100CD100A3740DF090E1E47401F0A3740DF0A3741A
:100CE10001F0A3740EF090E1EA7401F0A3740DF029
:100CF10030080990E1F2E4F0A3E56CF0756A20E5B3
:100D01006CB40203756A41E56CB40303756A2B7513
:100D11007108757203020E48854D71854E728547C3
:100D21006D85486E30080C85537185547285496D07
:100D3100854A6E5372F8E4F56AE572457160037590
:100D41006A02E56A2572F572E43571F5717F3EFD3F
:100D51001221A77F3FAD721221A7C3E572956AF5F3
:100D610072E5719400F571AF72FE121E358E6F8FB0
:100D710070C374209572F57274049571F57190E1E8
:100D8100F0E4F0A3EFF0856F27740C256FF56FAFDA
:100D91006A7E002FFDE433FC90E1E2F0A3EDF0ABBD
:100DA1006F7A0090E1DEEAF0A3EBF090E1E8ECF07D
:100DB100A3EDF0C3E572956EF572E571956DF57170
:100DC100E56E2BCDEA356DCD2FF570EE3DF56F90CB
:100DD100E1E0F0A3E570F090E1E4E56FF0A3E570E8
:100DE100F090E1EAE56FF0A3E570F0C39FF570E5DF
:100DF1006F9EF56FAF72AE71121E358E718F72E5F7
:100E0100712570F570E4356FF56FE570240190E19F
:100E1100E7F0E4356F90E1E6F0E56EAE6D7803CE74
:100E2100C313CE13D8F9F56A30080DE54AB410089A
:100E3100E549B4040375720190E1F2E4F0A3E572AF
:100E4100F07571067572FE7F04AD6A1221A77F06E7
:100E5100AD711221A77F07AD721221A790E1E6E0E3
:100E6100FEA3E08E40F541200843E53ED3940340C4
:100E71003CE53E24FDFFE541AE40A807088005C3DF
:100E810033CE33CED8F9F5418E4090E1F2E4F0A3B0
:100E910004F0D3E54194FEE540940F400675400F00
:100EA1007541FE90E1E6E540F0A3E541F090E1EC0B
:100EB100E571F0A3E572F0A3E571F0A3E572F0909E
:100EC100E1F4E571F0A3E572F0E56A75F008A4FFBD
:100ED100C3E5419FFD7F1A1221A7854B6F854C7099
:100EE10085296D852A6E30080C85516F8552708574
:100EF1002D6D852E6E7F3CAD6F1221A77F3DAD70AC
:100F01001221A7E56CB40124748D2570F57074016C
:100F1100356FF56F90E1F6F0A3E570F0256EF57091
:100F2100E56D356FF56FA3F0A3E570F0AA6DAB6EBB
:100F3100E56B75F004A4FDACF0AF03AE02122D5DBC
:100F41008E6D8F6EAF6A7E00AC6DAD6E122D49EF66
:100F510024FFF56EEE34FFF56DF54F856E5090E18F
:100F6100D47416F0E56D131313541FA3F0E56EAEA0
:100F71006D7805C333CE33CED8F98E6D441FF56E2F
:100F810090E1D6E56DF0A3E56EF07F447D047AE152
:100F91007BD4D2221228D6E4F56A7582E07583E00B
:100FA10075F002E56A122F2DE0FEA3E0FFE56A2548
:100FB100E024DEF582E434E1F583E0FCA3E0FD12F8
:100FC10020AE056AE56AC3940E40CF3008177F7AD8
:100FD1007E02E4FDFC1220AE7F6F7E027DFF7C006D
:100FE1001220AE800312095E12208F2018123020C9
:100FF1001AE56B64016014302111E56C6401600B2A
:101001007F067E007D011221D2800C7F067E007D4D
:10101100091221D212200530080C7F08122184EF19
:1010210060047D0180027D007F7C7E021221D2E47A
:10103100F56A7582707583E175F002E56A122F2DEC
:10104100E0FEA3E0FF30081575827A7583E175F043
:1010510002E56A122F2DE0FCA3E0FD801375828466
:101061007583E175F002E56A122F2DE0FCA3E0FD26
:0C1071001220AE056AE56AC3940540B683
:01107D002250
:10107E007F0B7DFBE4FB1221BD4309107F02AD09FE
:04108E001221A72262
:0B1092005309EF7F02AD091221A722D5
:0D109D0090E6047480F000EFF000E4F02213
:0C10AA008E5B8F5C8C5D8D5E8A5F8B60BE
:1010B600E4F561F562C3E562955EE561955D400321
:1010C600021538756600756500756400756300E580
:1010D6005C855BF0122F39122A000411F100081208
:1010E6000D000C12340010122A019C122401A012C9
:1010F6003A022012400280124904A0127904A41276
:10110600AF04A812E004AC127304F0130904F4133C
:101116004C04F8135204FC12580500132C05041352
:101126004C0508135E050C125805101334051413EC
:101136004C0518135E051C12580520133C05241394
:101146004C0528135E052C1258053013440534133C
:101156004C0538135E053C1273054012EE05441229
:10116600FA054C12730550126D0560126D0570126A
:101176006D0580126D0590127305A012730610128C
:1011860073064013670644136D064C1273067013FC
:101196007306741379067C127307101398071412DA
:1011A6006D0720137F07B0138507B413B110001322
:1011B600C0100413D8100813C9100C13E71010142C
:1011C6001C1014142A10181442101C144810401431
:1011D6006310481479104C1481105014AC40081454
:1011E600BA401014ED4FF8000014F0E58030E1032A
:1011F600436680E5AA20E603436640201D030214E9
:10120600F04366200214F075650B7566C77F011200
:1012160021848F64E4FF1221848F630214F07566C3
:101226000C0214F090E680E020E7030214F07566E5
:10123600010214F07566040214F0E4F566436602D2
:101246000214F07563C02019030214F0756540029C
:1012560014F03018030214F07563C020130302144F
:10126600F07565400214F03018030214F0756380BF
:101276000214F01208A98F668E658D648C63AF66C2
:10128600AE65AD64AC63AB46AA45A944A843C31298
:101296002ECF40030214F0AE45AD44AC43854666FE
:0912A6008E658D648C630214F066
:1012AF00853E677B007A00796712092DE4FCFDF813
:1012BF00F9AA06AB07AF67FE122DB27B8F7A0079C2
:0E12CF00007800122E3D8F668E658D648C6354
:1012DD000214F01208A98F668E658D648C6302145A
:1012ED00F07B007A007963121E510214F07566FFCF
:1012FD007565FF7564FF7563FF0214F085256585BF
:10130D002666E565131313541FF564E566AE65781F
:10131D0005C333CE33CED8F9F5668E650214F0854C
:10132D00306585316680DB85346585356680D3858E
:10133D00366585376680CB852B65852C6680C375B4
:10134D0065100214F075657D75660C7564010214E7
:10135D00F075653E7566500214F08542660214F014
:10136D007566FF0214F0853F660214F07566030280
:10137D0014F07563800214F0853E66E53ED3940348
:10138D0050030214F07566030214F07F38122184A5
:10139D008F65AE65AF667C007D06122D5D8E658F07
:1013AD00660214F0756670756505756410756304D5
:1013BD000214F07566047564080214F085296585BC
:1013CD002A668547638548640214F0854B65854C14
:1013DD0066854D63854E640214F020181630162173
:1013ED0030171EE532540164016016E53354016473
:1013FD0001600E3012047F0580027F008F6602149B
:10140D00F03012047F0C80027F088F660214F030DA
:10141D0018047F0580027F0C8F660214F0853266FA
:10142D008533643016037565012017030214F075BA
:10143D0063010214F07566040214F0121DC28E636E
:10144D008F64E564AE637805CEC313CE13D8F9F57A
:10145D00668E650214F0121DC2EFA83E088005CEFF
:10146D00C313CE13D8F9F5668E658077756606E4DD
:10147D00F528806F121DC2C374049528FDEFA805D1
:10148D00088005CEC313CE13D8F9F5648E63E563DA
:10149D00C313F565E56413F56605280528804485B5
:1014AD0051658552668553638554648036201816C0
:1014BD00301A20E538540164016018301B15E539E8
:1014CD0054016401600D3014047F0580027F008F8C
:1014DD006680103014047F0C80027F088F668003B5
:1014ED00756601856082855F83E566F0A3E565F02D
:1014FD00856082855F83A3A3E564F0856082855F47
:10150D0083A3A3A3E563F074042560F560E4355F60
:10151D00F55F74042562F562E43561F561740425A7
:0F152D005CF55CE4355BF55B0210BBAE61AF6251
:01153C00228C
:0C153D008E5B8F5C8C5D8D5E8A5F8B6026
:10154900E55E455D7003021DC0856082855F83A3EA
:10155900A3A3E0F561856082855F83A3A3E0F562BB
:10156900856082855F83A3E0F563856082855F83FB
:10157900E0F564E564AE637805CEC313CE13D8F9FC
:10158900F5668E65E56233333354F84265E562C426
:10159900135407600674FFF565F566E55C855BF035
:1015A900122F3916A600001664000816B602141682
:1015B900EA021817FE0224180B0228181304A018AF
:1015C9002104A4185604F4198E0500199C05041960
:1015D9008E051019A80514198E052019B0052419AE
:1015E9008E053019B8053418620544198405541953
:1015F900C0056419C9057419D1058419D905941947
:10160900E205A019FE05A41A1706141A4306441A7E
:101619004906741A8107141A6507241ABE10081A94
:10162900AF100C1ACD10101AEB10181B0A10481B1A
:101639003110601BA040081B91400C1BAF40101BD0
:10164900CD40181BEC40601C5650001D4550401DF4
:101659004550801D4550C000001D9BE564602490E5
:10166900E601E054FC4480F00090E61474E2F000D6
:1016790090E61574A2F07F807E00122BD61220DE30
:10168900021D9B1220FE90E61474E0F00090E6150E
:101699007422F00090E601E0547F4403F07F027D5C
:1016A900801221A71206871206F0021D9BC20DE5C2
:1016B9006430E71320080B120BA1AF3E120B461240
:1016C900107ED20F021D9BC20F200803121092E553
:1016D9006430E605D20D021D9B7F0212109D021D8A
:1016E9009B200863E56430E25E121092300F0AE431
:1016F90090E690F00090E691F0D20843094090E618
:10170900027460F0120BA1AF3F120B467FEB7E0013
:10171900E4FD1221D27F197D041221A73011097F1E
:10172900217D3F7B401221BD74187E01A83F0880AE
:1017390005C333CE33CED8F9FF122BD612107ED281
:1017490010C20EC209C20A7F0B1221848F633008AE
:1017590020E56430E102D20CC20B5363FEE564302C
:10176900E008200C03436301D20B7F0BAD63122108
:10177900A7200803021D9BE56430E203021D9BC2FA
:101789000CC20E7F0BE56354EEFD1221A7C20812AD
:10179900109253099F90E6027440F07F19301104AA
:1017A9007D1080027D001221A77F217D3FE4FB127D
:1017B90021BD7FEB7E007D011221D27F0612109D93
:1017C9007F727E027D927C001220AE7F747E027D44
:1017D900C27C001220AE7F6F7E027DF97C00122050
:1017E900AE120BA1200F03021D9BAF3E120B461236
:1017F900107E021D9B90E65F7440F090E65EF00259
:101809001D9BE490E65EF0021D9BE56330E603D381
:101819008001C39219021D9B1208A98F468E458D1E
:10182900448C43AB64AA63A962A861C3122ECF504A
:1018390010AF64AE63AD62AC618F468E458D448C4A
:1018490043300803021D9B12095E021D9B85652515
:1018590085662612208F021D9BE5616072E47E0574
:10186900A83F088005C333CE33CED8F9FFEE3395B0
:10187900E0FDFCF8F9AA06AB07AF64AE63AD62AC54
:1018890061122E3D7B8F7A0079007800122DB28F7C
:10189900648E638D628C617F28AD611221A77F08F8
:1018A900AD621221A77F09AD631221A77F0AAD643A
:1018B9001221A7200803021D9B7F7C7E02E5624559
:1018C9006160047D0180027D001221D2021D9B7F8F
:1018D90028E4FD1221A774057E00A83F088005C3EE
:1018E90033CE33CED8F9FFEE3395E0FDFCF8F9AAF3
:1018F90006AB07AF64AE63AD62AC61122E3D7B8F60
:101909007A0079007800122DB28F648E638D628C13
:10191900617FCE7E047D007C00AB64AA63A962A8C6
:1019290061C3122ECF500C7564CE756304756200C5
:10193900756100C3E56494CEF564E5639404F563C9
:10194900E5629400F562E5619400F5617F08AD6197
:101959001221A77F09AD621221A77F0AAD63122167
:10196900A7200803021D9B7F7C7E02E56160047D40
:101979000180027D001221D2021D9B7880A6650894
:10198900A66602185CE56330E603D38001C39213AF
:10199900021D9B856530856631122005021D9B85D8
:1019A900653485663580F285653685663780EA85D2
:1019B900652B85662C80E27884A66508A66680D9A1
:1019C90085653A85663B80D185653C85663D80C9DC
:1019D9007882A66508A66680C07F0B122184EF4431
:1019E90002F561E56330E7035361FD7F0BAD6112D9
:1019F90021A7021D9BAE63AF647C007D2B122D5D78
:101A09008E638F647F15AD641221A7021D9BAF649D
:101A1900AE63AD62AC617B067A0079007800122D65
:101A2900B28F648E638D628C617F2BAD621221A7A8
:101A39007F2CAD631221A7021D9B856442021D9B69
:101A4900E564D3940340037564038564667B007A77
:101A5900007961121E5185663F021862E5645409D6
:101A6900F52FE56430E103432F04E56420E2030226
:101A79001D9B432F02021D9BAF64AE63AD62AC6137
:101A89007B067A0079007800122DB28F648E638DFF
:101A9900628C61E562456160037563FF7F38AD6300
:101AA9001221A7021D9B85632985642A85614785C3
:101AB9006248021D9B85634B85644C85614D856237
:101AC9004E021D9BC21275614CE564640C6005E50C
:101AD90064B4050575614DD21290E618E561F0020E
:101AE9001D9B856432E56330E003D38001C3921600
:101AF900856233E56130E003D38001C39217021D8B
:101B09009B121DC28E618F62E4F53ED3E562956436
:101B1900E56195635003021D9B053EE561C313F51D
:101B290061E56213F56280E3C3E54E9407E54D94E0
:101B390000400AE54E54F82402F54E8003E4F54EC0
:101B4900E533C39402401AE53375F008A42548FF2C
:101B5900E54735F0FEEF64207003EE64046002C3CC
:101B690022E53364026005E533B40305201702C397
:101B790022E53264026009E53264036003021D9BB9
:101B8900301603021D9BC32285632D85642E856152
:101B99004985624A021D9B8563518564528561535B
:101BA900856254021D9BC21475614CE564640C6026
:101BB90005E564B40505D21475614D90E61AE56131
:101BC900F0021D9B856438E56330E003D38001C3CF
:101BD900921A856239E56130E003D38001C3921B13
:101BE900021D9BC3E5549407E5539400400AE5544C
:101BF90054F82402F5548003E4F554E539C39402FA
:101C0900401AE53975F008A4254AFFE54935F0FE83
:101C1900EF64207003EE64046002C322E5396402B4
:101C29006005E539B40305201B02C322E5386402C7
:101C39006005E538B40305201A02C322E5396404B6
:101C49006003021D9B301B03021D9BC3227F2E12C2
:101C590021848F63E4F561F562E562C39404504918
:101C6900AF62E52FA807088002C313D8FC20E02241
:101C7900E56225E0FFE563A807088002C313D8FCE5
:101C89005403FF7401A807088002C333D8FC4261DA
:101C99008013E56225E0FF7403A807088002C333B7
:101CA900D8FCF45263056280B0E4F562E56130E086
:101CB90013756201E56130E10B756202E56130E29D
:101CC90003756203E4F561AF61E52FA80708800297
:101CD900C313D8FC30E012E56125E0FFE562A807EF
:101CE900088002C333D8FC42630561E561B404D7B7
:101CF9007F2EAD631221A77F2D122184EF540FF59A
:101D0900637F2DAE627410A806088002C333D8FC25
:101D19004563FD1221A7E55E6440455D601E7F2D88
:101D2900AE627401A806088002C333D8FCF4556377
:101D3900FD1221A7755D00755E048056E55C04857A
:101D49006082855F83F07F467D40AB60AA5FD222C7
:101D59001228D6856082855F83E55CF0A3E564F08F
:101D69007F467D02AB60AA5FD2221228D6E55CB419
:101D7900C0147F2D1221848F637F2DE563C4540F16
:101D89004563FD1221A774C4255EF55E74FF355DB8
:101D9900F55D74042560F560E4355FF55F74FC2535
:0D1DA9005EF55E74FF355DF55D7404255C2C
:0B1DB600F55CE4355BF55B021549D3DA
:011DC10022FF
:101DC200E533FD7C00AE47AF48122D5DAB07AA0696
:101DD200E532FD7C00AE29AF2A122D5D8E6A8F6B33
:101DE200EB2430F569E43AF5683012047F0580028D
:101DF2007F04EBAE02A807088005C333CE33CED8EA
:101E0200F9FFE4FCFDF8F9AA06AB07AE6AAF6B1264
:101E12002DB2C004C005C006C007AE68AF69E4FCBD
:101E2200FDF8F9AA06AB07D007D006D005D00412F8
:021E32002E3D43
:011E3400228B
:101E3500AD07AC06ED4C70047E01FF22EDAE0478D3
:0C1E450005C333CE33CED8F94408FF2289
:101E51008B688A69896A7F28122184AB68AA69A97B
:101E61006AEF122D157F08122184AB68AA69A96A4D
:101E7100900001EF122D277F09122184AB68AA6916
:101E8100A96A900002EF122D277F0A122184AB6804
:101E9100AA69A96A900003EF122D27122CCF700FA7
:101EA100AB68AA69A96A900001122CE8B4FF47AB9C
:101EB10068AA69A96A122EF37B8F7A0079007800EB
:101EC100122E3DC004C005C006C007E47E05A83F30
:101ED100088005C333CE33CED8F9FFEE3395E0FD4C
:101EE100FCD003D002D001D000122DB2AB68AA6998
:101EF100A96A122F1322AB68AA69A96A122EF37874
:101F010008122EE0EF24CEFFEE3404FEE43DFDE4A2
:101F11003CFC7B8F7A0079007800122E3DC004C012
:101F210005C006C00774057E00A83F088005C333BD
:101F3100CE33CED8F9FFEE3395E0FDFCD003D002CD
:101F4100D001D000122DB2AB68AA69A96A122F1371
:011F5100226D
:041F5200AD07AC0625
:101F5600EDC4F8540FC868FDECC454F048FCC394B3
:101F6600105010757608757700E4F574F575FA7BF0
:101F76001A8040ECC3942850127576107577007558
:101F8600740075754D7A007B3C8028ECC3945050E4
:101F9600127576287577007574007575B37A007BAF
:101FA6008480107576507577007574017575007AA2
:101FB600017B26C3ED9577FFEC9576FEAC02AD036B
:0B1FC600122D5DE5752FFFE5743EFE57
:011FD10022ED
:101FD200121F52E4FCFD7B3B7A02F9F8122DB27B10
:101FE200007A0179007800122E3DEF24ECFFE43EE6
:021FF200FE22CD
:101FF400121F527C007D6A122D49EE6420543FFF6B
:0120040022B9
:10200500E4F573E52730E00375730230080978823B
:10201500E6FE08E6FF8004AE2BAF2C121FF4AD07D9
:10202500C374099573FFE49400FE1221D2300806AB
:10203500AE3CAF3D8004AE36AF37121FF4AD07C3DB
:10204500740A9573FFE49400FE1221D2300806AE9F
:102055003AAF3B8004AE34AF35121FF4AD07E573DC
:102065002407FFE433FE1221D23008097884E6FE06
:1020750008E6FF8004AE30AF31121FF4AD07E573FB
:092085002408FFE433FE1221D20D
:01208E00222F
:10208F003008097880E6FE08E6FF8004AE25AF260B
:0F209F00121FD2AC06AD077F027E001220AE22C8
:1020AE008E7A8F7B8C7C8D7DE57D543FFD1221D207
:1020BE00E57DAE7C7806CEC313CE13D8F9F57D8EB2
:1020CE007CE57B2401FFE4357AFEAD7D1221D22220
:1020DE00C281E5B254DF4454F5B2C286C282C284D4
:0620EE00756707D567FDD0
:0A20F400D2847F027E00122BD62258
:1020FE00D286C286D286C286D286C286D286C28652
:10210E00D286C286D286C286D286C286D286C28641
:10211E00D286C286D286C286308502D21D53B2AB1B
:03212E00D2812239
:10213100EF1FAC0670011E4C604890E67BE0F52075
:10214100A2009282D286C286A2019282D286C286E1
:10215100A2029282D286C286A2039282D286C286CD
:10216100A2049282D286C286A2059282D286C286B9
:10217100A2069282D286C286A2079282D286C286A5
:0321810080AE220B
:1021840090E1D8EFF07F447D017AE17BD8C222123E
:1021940028D67F447D017AE17BD81228CC90E1D8FF
:0221A400E0FF5A
:0121A6002216
:1021A70090E1D9EFF0A3EDF07F447D027AE17BD98E
:0521B700D2221228D61F
:0121BC002200
:1021BD008F678D688B69122184E5685F4569FDAF76
:0521CD00671221A722AA
:0421D2008E7E8F7FEF
:1021D600E57F7806C333CE33CED8F9F57F8E7E9071
:1021E600E1DB740CF0A3E57EF0E57F4DA3F07F44C0
:0B21F6007D037AE17BDBD2221228D6A9
:0122010022BA
:10256600C21E90E68274C4F0120056122864750EDC
:10257600E0750F007516E0751712750CE0750D1CE9
:102586007514E075155C7518E075196E851410855F
:102596001511850C12850D1390E680E030E70C8549
:1025A6000C10850D11851412851513D2E890E66876
:1025B600E0440BF090E65CE04439F0D2AF120659E5
:1025C6001200A590E680E0440AF07FDC7E05122B1F
:1025D600D690E65D74FFF090E65FF05391EF90E6DB
:1025E60080E054F7F0538EF8C21F301E0512260EF7
:1025F600C21E301F0D1200195008C21F122BB11235
:0826060000361200FC80E32203
:10260E0090E6B9E070030226DF147003022755240A
:10261E00FE70030227D924FB70030226D91470031F
:10262E000226D31470030226C71470030226CD248B
:10263E0005600302282E120030400302283A90E66D
:10264E00BBE024FE602C14604724FD60161460313C
:10265E002406705BE50E90E6B3F0E50F90E6B4F05D
:10266E0002283AE51690E6B3F0E51790E6B4F002CC
:10267E00283AE51090E6B3F0E51190E6B4F00228A2
:10268E003AE51290E6B3F0E51390E6B4F002283A7C
:10269E0090E6BAE0FF122C17AA06A9077B01EA49B9
:1026AE00600DEE90E6B3F0EF90E6B4F002283A90AB
:1026BE00E6A0E04401F002283A12039802283A12EA
:1026CE00039002283A12036C02283A12037E022863
:1026DE003AE490E740F0A3F090E6B8E02480604141
:1026EE0014604C14705790E6BCE0547EFF7E00E000
:1026FE00D3948040067C007D0180047C007D00EC3C
:10270E004EFEED4F248EF582EE34E1F583E024A1EA
:10271E00FFE434E68F82F583E0540190E740F080C9
:10272E000E2087047F0180027F0090E740EFF0E4E7
:10273E0090E68AF090E68B7402F002283A90E6A0BA
:10274E00E04401F002283A90E6B8E024FE601C2432
:10275E0002600302283A90E6BAE06402700302288F
:10276E003A90E6A0E04401F002283A90E6BAE07012
:10277E005190E6BCE0547EFF7E00E0D3948040068C
:10278E007C007D0180047C007D00EC4EFEED4F242C
:10279E008EF582EE34E1F583E024A1FFE434E68F7A
:1027AE0082F583E054FEF090E6BCE05480FF1313F4
:1027BE0013541FFFE0540F2F90E683F0E04420F0F7
:1027CE00806A90E6A0E04401F0806190E6B8E024D3
:1027DE00FE60152402705590E6BAE06402604D90DA
:1027EE00E6A0E04401F0804490E6BCE0547EFF7E1B
:1027FE0000E0D3948040067C007D0180047C007D47
:10280E0000EC4EFEED4F248EF582EE34E1F583E0C2
:10281E0024A1FFE434E68F82F583E04401F0800CBE
:10282E001203AA500790E6A0E04401F090E6A0E063
:03283E004480F0E3
:012841002274
:0300330002004E7A
:04004E0053D8EF3262
:10E00000120100020000004054539A001000010267
:10E0100003010A060002000000400100090240005E
:10E0200001010080FA0904000000FF00000009045B
:10E03000000101FF000000070508020002010904B9
:10E04000000203FF0000000705820200020107052D
:10E050008602000201070581030100040902120083
:10E0600001010080FA0904000000FF000000040321
:10E07000090412034C0075006D0065006E00650018
:10E08000720061000C034C00750031003300300059
:10E0900012033100320033003400350036003700FF
:10E0A00038000000006500660071007200A200A345
:10E0B0000170017101720175026F0270009300948A
:10E0C0000095009601D001D101D401DA01DE01DF13
:10E0D00001E001E401E501E601EA01EB00A900AA83
:10E0E000017301760067006900EE00D200D501845B
:10E0F00001AA0113013400F200C300C50C000300A3
:10E1000002000C000002390304003F3F000202003D
:10E1100002013D032E062F1B3E1B00002801002894
:10E12000010028023805220A341F032001010401DE
:10E13000010401011D013E0901040FFF01040FFE4E
:10E14000010500040104080308030001000A080394
:10E1500002930803000D0215000D02150216000DB2
:10E160000215080308030000000A080302930803CD
:10E170000224022A02300236013D000000000000A5
:10E1800000000FFE000F002F002F004F0052000173
:0AE1900002020303040405053FF832
:030043000229008F
:030053000229007F
:10290000020513000205410002052B000205A1008B
:10291000020557000205B9000200320002003F0024
:102920000200400002004100020042000200460096
:0F29300002004700020048000205F600020624DC
:1028420090E670E04401F0C2A8C2B8D288C28922E0
:030003000228527E
:03285200D20E3271
:10293F008C5B8D5C8A5D8B5EEE6003022A0AEF145E
:10294F00602924FD606A24FD70030229DC24FB70DA
:10295F00030229F9240C6003022A0AAF5CAD5B7AEB
:0B296F00E77B401228CCAF5B7E00220B
:10297A007AE779407EE77F4074E7F59D7440F59EDB
:10298A00855B5F855C60855D5B855E5CE55E455D5C
:10299A00601E0560E560AE5F7002055F14F5828E09
:1029AA0083E090E67CF0E55E155E7002155D80DCE2
:0529BA00AE5BAF5C22E2
:1029BF00AF5C7D017AE67BBBD2221228D6AF5C7D5D
:0D29CF00017AE77B401228CC7E007F0122B8
:1029DC007F031221848F5FE55FC4540F90E741F0B1
:0D29EC00E55F540F90E740F07E007F02226F
:1029F90090E7407401F0E4A3F0A3F0A3F0FE7F0494
:062A0900227E007F002286
:0C2A0F008E5B8F5C8C5D8D5E8A5F8B603F
:102A1B0090E740E0F561EE6003022AEDEF146028C9
:102A2B0024FB606214606A24FE606F24FA70030258
:102A3B002AD9240F6003022AEDAF5EAD5D7AE77BE6
:082A4B0040D2221228D6D3224A
:102A5300855D62855E637AE779407EE77F4074E750
:102A6300F59A7440F59BE560455F602090E67BE056
:102A7300FF0563E563AC627002056214F5828C8323
:0E2A8300EFF0E56015607002155F80DAD32277
:102A9100AF5EAE5DAD611221D2D3227F03AD611273
:102AA10021A7D322E561F430E303D38001C392115E
:102AB1007F197DEF3011072008047B1080027B0015
:102AC1001221BD7F217D3F3011073008047B4080FA
:102AD100027B001221BDD322430901E56130E003ED
:0D2AE1005309FE7F02AD091221A7D322C3C5
:012AEE0022C5
:0F285500E4F8F9122E3D8F058E048B078A0622B8
:0B286400E4F51D90E67A04F0D2E922B2
:10286F00A90790E678E020E6F9E51D701F90E6785D
:10287F00E04480F0E925E090E679F08D1A8A1B8B11
:0E288F001C751D01A223E433F51ED322C322C3
:10289D00A90790E678E020E6F9E51D6005E51DB491
:1028AD000A1B90E678E04480F0E925E0440190E6CB
:0F28BD0079F08D1A8A1B8B1C751D03D322C32241
:0A28CC0012289DAF1DEF70FBD32210
:1028D600A222922312286FAF1DEF24F66004240A69
:0428E60070F5D32294
:03004B00022AEF97
:102AEF00C0E0C083C082C0D0C004C005C006C0070C
:102AFF00AF1DEF24FE605014602E24FE7003022BD6
:102B0F008C24046003022B9D051CE51CAE1B700278
:102B1F00051B14F5828E83E090E679F0151AAF1A33
:102B2F00EF706B751D05806690E679E0AC1BAD1CF0
:102B3F008D828C83F0751D02E51A6401705090E64A
:102B4F0078E04420F08047E51AB4020790E678E079
:102B5F004420F0AF1A151AEFB4010A90E678E0445A
:102B6F0040F0E4F51D90E679E0FF051CE51CAC1B79
:102B7F007002051B14F5828C83EFF08011751D0A0E
:102B8F00E51E600A90E678E04440F0E4F51D5391AD
:102B9F00DFD007D006D005D004D0D0D082D083D0DC
:022BAF00E03212
:102BB10090E682E044C0F090E681F0438701000096
:042BC10000000022EE
:102BD6008E6A8F6B90E600E05418700DE56AC31399
:102BE600F56AE56B13F56B801590E600E05418FF67
:102BF600BF100BE56B25E0F56BE56A33F56AE56B0F
:102C0600156BAE6A7002156A4E6005122BC580EE12
:012C1600229B
:022C1700A9070B
:102C1900AE18AF198F828E83A3E064037017AD01DC
:102C290019ED7001228F828E83E07C002FFDEC3E2E
:092C3900FEAF0580DF7E007F0084
:012C4200226F
:102BC5007400F58690FDA57C05A3E582458370F923
:012BD50022DD
:03000000022C438C
:0C2C4300787FE4F6D8FD758185022C8AAC
:102CCF00BB010689828A83E0225002E722BBFE0203
:092CDF00E32289828A83E4932236
:102CE800BB010CE58229F582E5833AF583E02250A1
:102CF80006E92582F8E622BBFE06E92582F8E222EB
:0D2D0800E58229F582E5833AF583E4932204
:102D1500BB010689828A83F0225002F722BBFE019D
:022D2500F32297
:102D2700F8BB010DE58229F582E5833AF583E8F0E2
:102D3700225006E92582C8F622BBFE05E92582C88E
:022D4700F22276
:102D4900EFF88DF0A4FFEDC5F0CEA42EFEEC88F0CF
:042D5900A42EFE2284
:102D5D00BC000BBE0029EF8DF084FFADF022E4CC5A
:102D6D00F875F008EF2FFFEE33FEEC33FCEE9DEC23
:102D7D00984005FCEE9DFE0FD5F0E9E4CEFD22ED69
:102D8D00F8F5F0EE8420D21CFEADF075F008EF2FB3
:102D9D00FFED33FD4007985006D5F0F222C398FDA4
:052DAD000FD5F0EA2241
:102DB200E88FF0A4CC8BF0A42CFCE98EF0A42CFCC0
:102DC2008AF0EDA42CFCEA8EF0A4CDA8F08BF0A43E
:102DD2002DCC3825F0FDE98FF0A42CCD35F0FCEB9D
:102DE2008EF0A4FEA9F0EB8FF0A4CFC5F02ECD3962
:0F2DF200FEE43CFCEAA42DCE35F0FDE43CFC22CF
:102E010075F008758200EF2FFFEE33FECD33CDCC88
:102E110033CCC58233C5829BED9AEC99E58298400B
:102E21000CF582EE9BFEED9AFDEC99FC0FD5F0D6E8
:102E3100E4CEFBE4CDFAE4CCF9A88222B800C1B912
:102E41000059BA002DEC8BF084CFCECDFCE5F0CB50
:102E5100F97818EF2FFFEE33FEED33FDEC33FCEB89
:102E610033FB10D703994004EB99FB0FD8E5E4F944
:102E7100FA227818EF2FFFEE33FEED33FDEC33FC31
:102E8100C933C910D7059BE99A4007EC9BFCE99A25
:102E9100F90FD8E0E4C9FAE4CCFB2275F010EF2F6A
:102EA100FFEE33FEED33FDCC33CCC833C810D7076A
:102EB1009BEC9AE899400AED9BFDEC9AFCE899F8A5
:0E2EC1000FD5F0DAE4CDFBE4CCFAE4C8F92238
:102ECF00EB9FF5F0EA9E42F0E99D42F0E89C45F059
:012EDF0022D0
:102EE000E8600FEFC333FFEE33FEED33FDEC33FC50
:032EF000D8F122F4
:102EF300BB010789828A83022F725005E9F8022FEA
:102F030066BBFE05E9F8022F7E89828A83022F8A37
:102F1300BB010789828A83022FA65005E9F8022F95
:0A2F23009ABBFE05E9F8022FB22266
:0C2F2D00A42582F582E5F03583F58322AF
:102F3900D083D082F8E4937012740193700DA3A327
:102F490093F8740193F5828883E473740293B5F05E
:0D2F5900067403936860E9A3A3A3A380D8C6
:102C4F00022566E493A3F8E493A34003F68001F210
:102C5F0008DFF48029E493A3F85407240CC8C33386
:102C6F00C4540F4420C8834004F456800146F6DF55
:102C7F00E4800B0102040810204080900648E47E97
:102C8F00019360BCA3FF543F30E509541FFEE4934A
:102C9F00A360010ECF54C025E060A840B8E493A311
:102CAF00FAE493A3F8E493A3C8C582C8CAC583CA3C
:102CBF00F0A3C8C582C8CAC583CADFE9DEE780BEF4
:0106580000A1
:0C2F6600E6FC08E6FD08E6FE08E6FF2297
:0C2F7200E0FCA3E0FDA3E0FEA3E0FF22D2
:0C2F7E00E2FC08E2FD08E2FE08E2FF228F
:102F8A00E493FCA3E493FDA3E493FEA3E493FF225A
:0C2F9A00ECF608EDF608EEF608EFF62263
:0C2FA600ECF0A3EDF0A3EEF0A3EFF0229E
:0C2FB200ECF208EDF208EEF208EFF2225B
:00000001FF
