:0A328600011E00011B00C11FC12042
:102D590075B21AC281C283D284E490E600F090E68B
:102D6900107420F000000090E61174B0F00000002B
:102D790090E61274E0F000000090E6137420F00071
:102D8900000090E61474E2F000000090E61574A2C9
:102D9900F000000090E69D7480F0000000F0000053
:102DA9000090E6097420F000000090E6307419F0F4
:102DB90090E63174F4F090E6347419F090E63574C5
:0E2DC900F4F090E6027440F043AF010235D3FF
:102DD70090E1C374F8F090E1C2743FF07AE17BC2EE
:102DE700C21B7D027F511233F27AE17BC27D047FE1
:102DF7005112350FE4FFEFC394047480948050445C
:102E070074C22FF582E434E1F583E0C4540F243013
:102E1700FEEF25E025E02492F582E434E0F583EE29
:102E2700F074C22FF582E434E1F583E0540F2430C7
:102E3700FEEF25E025E02494F582E434E0F583EE07
:042E4700F00F80B256
:012E4B002264
:101A4500E5AA20E63190E69CE0F55490E69DE0F5A8
:101A5500554554601B7AFC790074FCF59A7400F5C1
:101A65009BAF55AE54300A05122FC28003122F6F5B
:101A750090E69D7480F0202003021C55C220301D85
:101A85000DD222122CD67E00123138021C55AF1D04
:101A9500051DC3EF9402748094805003021C55E425
:101AA500F51D201206200C03021B6C7F1012330C4F
:101AB5008F547F2012330C8F55AE547C007D20123D
:101AC50017ABC006C007AE35AF36AB07AA06E4F9BB
:101AD500F8D007D0061216858F567F1112330C8F5A
:101AE500547F2112330C8F55AE547C007D20121784
:101AF500ABC006C007AE35AF36AB07AA06E4F9F8AA
:101B0500D007D0061216858F577F1212330C8F54CB
:101B15007F2212330C8F55AE547C007D201217ABFB
:101B2500C006C007AE35AF36AB07AA06E4F9F8D054
:101B350007D0061216858F587F1312330C8F547FEA
:101B45002312330C8F55AE547C007D201217ABC089
:101B550006C007AE35AF36AB07AA06E4F9F8D007DD
:101B6500D0061216858F59300C1DAF307E00AB564E
:101B7500AD57122A9F8F30AF2A7E00AB59AD581250
:101B85002A9F8F2A122F1C201203021C55AF57AD16
:101B950056ED2FFFE433FEAD587C00EF2DFFEC3EF4
:101BA500FEAD59EF2DFFEC3EFEEF7802CEC313CE0E
:101BB50013D8F9F5558E54E5412440F559E43540DF
:101BC500F558E4353FF557E4353EF556AF3BE4FCB3
:101BD500FDFEAB59AA58A957A8561215FAC007AF6A
:101BE50055AB07E4FAF9F8D0071216858F598E58C8
:101BF5008D578C56E47F40FEFDFCAB59AA58A9577A
:101C0500A856C312172D5003755940C3E559944082
:101C1500F559E5589400F558E5579400F557E556FC
:101C25009400F556122E4C8F418E408D3F8C3EAB65
:101C350059AA58A957A856C312172D5010AF59AE17
:101C450058AD57AC568F418E408D3F8C3E1217FCD8
:101C5500301F2B3022287F0B12330C8F55E555543E
:101C6500FEFD7F0B1234E1E55554FE4410FD7F0B5C
:0E1C75001234E1AD557F0B1234E1C21FC222C2
:011C8300223E
:062A9F008E5A8F5BAA05B0
:102AA500C3EB9AF9EAD39B4003EA9BF9E9FF7E0061
:102AB500AC5AAD5B121513EA2401FDE433FC121583
:102AC50025A907EAD39B402FEBFFEA9FFFE494007B
:102AD500FED3EF9407EE64809480401BE9255BF5F7
:102AE5005BE4355AF55AD3E55B94FFE55A9400400B
:102AF50006755A00755BFFEAC39B502FC3EB9AFF1F
:102B0500E49400FED3EF9407EE64809480401CE5C6
:102B15005B99F55BE55A9400F55AC3E55B9440E58E
:0D2B25005A94005006755A00755B40AF5B76
:012B32002280
:10359C0075B21AC283E490E600F090E6017480F0F4
:0335AC00C20A222E
:09362100E51E600312359CD32262
:0E35F200D28343B202C28190E6007412F0222E
:09362A00E51E60031235F2D32203
:02004100D322C8
:1034A600AF1E90E6BAE0F51E6008EF70051235F221
:0A34B6008007E51E700312359CD359
:0134C00022E9
:1035AF0090E740E51EF0E490E68AF090E68B04F099
:0235BF00D32215
:0836330090E6BAE0F51BD3227A
:1035C10090E740E51BF0E490E68AF090E68B04F08A
:0235D100D32203
:02005100D322B8
:02364100D32292
:02364300D32290
:10202A0090E6BDE0F55690E6BCE0F55790E6BFE0D5
:10203A00F55490E6BEE0F55590E6BBE0F55890E61B
:10204A00BAE0F55990E6B9E024ED700302214304A1
:10205A00600302219590E6B8E030E770E5554554F3
:10206A007003022197855458855559D3E5599440F0
:10207A00E558940040067558007559407AE77B4048
:10208A00AD59AC58AF57AE561209C78E588F5990F2
:10209A00E68AE558F090E68BE559F000000090E6F4
:1020AA00A0E020E1F9C3E5559559F555E554955851
:1020BA00F554E5592557F557E5583556F556C3E50C
:1020CA00599440E55894005093022197E555455498
:1020DA007003022197E490E68AF090E68BF0000004
:1020EA000090E6A0E020E1F9C3E5559440E5549458
:1020FA0000402C7AE77B407D407C00AF57AE5612F9
:10210A0000564002D32274C02555F55574FF355444
:10211A00F55474402557F557E43556F55680AD7A8F
:10212A00E77B40AD55AC54AF57AE5612005640024D
:10213A00D322E4F554F555809390E6B8E030E721D0
:10214A00AB55AA54AD59AC58AF57AE561221998E19
:10215A00548F5590E68AE554F090E68BE555F08069
:10216A002CE55545546013E490E68AF090E68BF02E
:10217A0000000090E6A0E020E1F9AB55AA54AD5961
:0E218A00AC58AF57AE561222E0B322D322C398
:012198002224
:10352800C0E0C083C082D2235391EF90E65D74015E
:08353800F0D082D083D0E03214
:10357000C0E0C083C0825391EF90E65D7404F0D048
:0635800082D083D0E0328E
:10358600C0E0C083C0825391EF90E65D7402F0D034
:0635960082D083D0E03278
:10301500C0E0C083C08285100C85110D850D8285A9
:103025000C83A37402F085080E85090F850F828530
:103035000E83A37407F0C283751E0075B21A90E65D
:1030450000E4F090E6017480F0C20A5391EF90E637
:0B3055005D7410F0D082D083D0E03218
:10354000C0E0C083C082D2245391EF90E65D74083E
:08355000F0D082D083D0E032FC
:10317900C0E0C083C08290E680E030E72085080C7B
:1031890085090D850D82850C83A37402F085100EC7
:1031990085110F850F82850E83A37407F05391EF74
:0D31A90090E65D7420F0D082D083D0E0323B
:102767007F3838383600D600D6006E003A00200988
:1027770086098604C60266013680304092000080D2
:10278700306082000080306082000080306062002C
:1027970000803060620000803170621000803180FC
:1027A700621000803170721000803160621000800A
:1027B70031606210008032706210008032806210D7
:1027C70000803270721000803260621000803260C8
:1027D700621000803320C11100803330F111008076
:1027E7003380101100803350D01000803350D01048
:1027F7000080351001000780351001000780351073
:1028070001000280351001000180351001000180B0
:1028170036005F10008036C0F510008036409010FB
:10282700008036107410008036A05B1000803720BF
:102837004B04008037802204008037802204008008
:102847003780220400803780220400ACAC5C34203F
:0A28570000000000004020100804FB
:10329000C10AC1155CE1A6000101A6000208DE001A
:1032A000001306000908DE041008DE000013060003
:0332B0000208DE33
:0331B600122C4F89
:1031B90090E1C27430F0E4A3F07AE17BC2C21B7DD6
:1031C900027F511233F27AE17BC27D047F511235BD
:0B31D9000F90E1C4E064027002D21508
:0B31E40090E1A07480F0A3744BF02277
:102C4F00752805752970754204754310E4F547F52D
:102C5F0048F549F54A7541A8754061F53FF53EC203
:102C6F000CC212753B9875305078737650752A6088
:102C7F001876607534407533407875764018764015
:102C8F00C20B90E618744CF0C20F753101C210756B
:102C9F003201D20E752F0FC208753903754B0375AC
:102CAF003A03754403752704752505752600752BA2
:102CBF0005752C00C209C21DC221E4F51CC220F506
:072CCF003C753D4002265F49
:101E8C007F0A7E001231387D807F021234E11233DA
:101E9C00857D807F021234FA123385756720AF6717
:101EAC001567EF601A431C02AD1C7F021234E17FF0
:101EBC00017E001231387F0212330CEF30E1DF7FEC
:101ECC00107E001231387D027F0B1234E17D037FCE
:071EDC00051234E130157B13
:101EE30090E1C27430F0A37404F07AE17BC2D21B98
:101EF3007D027F511233F2E4F568C3E568941074F0
:101F03008094805056AD687F2F1234E1E4F5677AF0
:101F1300E17BC37D047F5112350F90E1C2E567F089
:101F23007AE17BC2D21B7D057F451233F27404250F
:101F330067F56764FC701CE5686406701690E1C27F
:101F43007424F0E4A3F07AE17BC2D21B7D027F51BB
:0B1F53001233F2E56770B80568809F4C
:101F5E00E4F567C3E56794807480948050147F9491
:101F6E00123336EF20E20B7F107E001231380567F8
:101F7E0080E17F94123336EF20E103D38001C392C8
:101F8E00117D037F851234FA1234F6E4FD7F93122D
:101F9E0034FA7D047F931234FA7D147F931234FA4F
:101FAE007D107F911234FA7F017E001231387D014F
:101FBE007F061234FAE4FD7F071234FA2011077DF2
:101FCE00207F3B1234E17D597F951234FAE4FD7F78
:101FDE00961234FA7F021234137F0612341390E6EF
:101FEE00307419F090E63174F4F090E6347419F010
:101FFE0090E63574F4F090E6027440F090E1C77408
:10200E0007F0A3747EF07AE17BC7D21B7D027F605E
:0C201E001233F2C289D2A8C217020F923E
:10265F00AB39EB70027B01E53925E0246CF582E4A0
:10266F003427F583E493FF74019390E1A8CFF0A38F
:10267F00EFF0C374049BF97E007445A80108800530
:10268F00C333CE33CED8F924BEFFEE3405AD07FCED
:10269F0090E1ACF0A3EDF090E1B2E4F0A37409F097
:1026AF0020100EE5326404700890E1B2F0A37408B4
:1026BF00F090E1B4ECF0A3EDF090E1C0ECF0A3EDFD
:1026CF00F0E53275F045A4AEF0A801088005C333DC
:1026DF00CE33CED8F924BEFDEE3405FCE53925E026
:1026EF002476F582E43427F583E493FA740193FB9F
:1026FF0090E1B0EAF0A3EBF0AE49E54A7803CEC320
:10270F0013CE13D8F9FF90E1AEEEF0A3EFF090E106
:10271F00B8ECF0A3EDF0E532FD7C00AE42AF431212
:10272F00152590E1B6EEF0A3EFF0C374109543FFBB
:10273F0074049542FEC3EF954AFFEE9549FEEF787C
:10274F0003CEC313CE13D8F9FF90E1BAEEF0A3EF87
:07275F00F0A3EAF0A3EBF088
:012766002250
:102CD600C374109546FF74049545FEC3EF954FFFE8
:102CE600EE954EFEEF7803CEC313CE13D8F9FFE56B
:102CF6003A25E02476F582E43427F583E493FC74E0
:102D06000193FD1217ABEF24BCF55DEE3411F55CB3
:102D1600E43DF55BE43CF55AAF5DAE5CAD5BFCC0F3
:102D260004C005C006C0077EFAE4A83A088005CEAE
:102D3600C313CE13D8F9FBAA06E4F9F8D007D006D8
:102D4600D005D0041216858F5D8E5C8D5B8C5AEF94
:022D560004FF78
:012D58002258
:102E4C00E4F56CF56BF56AF5697B06EB25E025E09E
:102E5C0024A8F582E434E1F583E0FEA3E0FFEB2542
:102E6C00E025E024A6F582E434E1F583E0FCA3E060
:102E7C00FD1217ABE56C2FF56CE56B3EF56BE56A57
:102E8C003DF56AE5693CF569EB60031B80BD7E008E
:102E9C007440A839088006CEA2E713CE13D8F8FBED
:102EAC00AA06EA3395E0F9F8AF6CAE6BAD6AAC6983
:032EBC0002168576
:1017FC00301D03021A44AF39A8077440088002C395
:10180C0013D8FCF571FFE4FCFDFEAB41AA40A93FE7
:10181C00A83E1215FA8F698E688D678C66757006F6
:10182C00E4F56AF56BF56CF56DE57025E025E024C3
:10183C00A6F582E434E1F583E0FEA3E0FF256DF527
:10184C006DEE356CF56CE57025E025E024A8F5828D
:10185C00E434E1F583E0F56EA3E0F56FD3E567952D
:10186C006FE566956E4041AC6EAD6F1217ABA80478
:10187C00A905AA06C3E5699FF569E5689AF568E5C7
:10188C006799F567E56698F566E57025E025E0242F
:10189C00A6F582E434E1F583E0FEA3E0256BF56B5D
:1018AC00EE356AF56A0219C5AB6FAA6EAD67AC6608
:1018BC00AF69AE681235E38F698E688D678C66E50B
:1018CC007025E025E024A6F582E434E1F583E0FE02
:1018DC00A3E0D39567EE95665003021976E567256C
:1018EC006BF56BE566356AF56AE56EC313FEE56F5D
:1018FC0013FFD3E5699FE5689E500CE5674566705C
:10190C0039E57064067033056BE56B7002056AC3CC
:10191C00E56F9569FFE56E9568FEAD717C0012155B
:10192C0025E4FCFDE5412FF541E5403EF540ED3564
:10193C003FF53FEC353EF53E8025E571FD7C00AE74
:10194C0068AF69121525AA06C3E5419FF541E5402C
:10195C009AF540E53F9400F53FE53E9400F53EE4F2
:10196C00F569F568F567F566804FE57025E025E0CB
:10197C0024A6F582E434E1F583E0FEA3E0FF256BB9
:10198C00F56BEE356AF56AC3E5679FF567E5669E0C
:10199C00F566FEAF67AC6EAD6F1217ABA804A90568
:1019AC00AA06AB07E4FCFDEB2569F569EA3568F599
:1019BC0068ED39F567EC38F566E570705BE56BB58D
:1019CC006D26E56AB56C21E56B156B7002156AE442
:1019DC00FCFDE569256FF569E568356EF568ED3553
:1019EC0067F567EC3566F566AF71AB07E4FAF9F8A5
:1019FC00AF69AE68AD67AC66121685A804A905AAD6
:101A0C0006C3E5419FF541E5409AF540E53F99F560
:101A1C003FE53E98F53E80051570021835C3E56D1F
:101A2C00956BF56BE56C956AF56AAD6B7F061234B8
:081A3C00FAAD6A7F071234FACB
:011A4400227F
:100F92001234F6853169A20F921885326AA2109234
:100FA2001985496B854A6C85426D85436E301D1AE1
:100FB200853769A213921885386AA2149219854E50
:100FC2006B854F6C85456D85466E201110E5696411
:100FD20001700AE56A640170047D0180027D007F70
:100FE2001A1234E190E1CB7487F03017047F258028
:100FF200027F0190E1CCEFF0E4A3F0A37403F0A32D
:101002007480F0E4A3F020190AE56A640470047F96
:10101200B080027F0090E1D1EFF07AE17BCBD21B6E
:101022007D077F471233F27D017F911234FA123429
:10103200F63017047F2880027F0490E1CCEFF09015
:10104200E1CE7401F0AF6CEFC454F0A3F0E56BC4D1
:10105200F854F0C8E56CC4540F48A3F0E56BC454CF
:101062000F4490A3F07AE17BCBD21B7D077F47121E
:1010720033F27D017F911234FA1234F6AD6B7F3E6A
:101082001234E1AD6C7F3F1234E13017047F2980C6
:10109200027F0590E1CCEFF090E1CE7401F02019CF
:1010A20009E56A64047003FF80027F8090E1CFEF5C
:1010B200F0A37404F0A37450F07AE17BCBD21B7DD1
:1010C200077F471233F27D017F911234FA1234F610
:1010D200AE6BE56C7803CEC313CE13D8F9240CF5AE
:1010E20070E43EF56F7D4A7F801234FA7DB87F81CD
:1010F2001234FAE4FD7F821234FAE57025E0FD7FB6
:10110200831234FAAE6FE5707807CEC313CE13D8CC
:10111200F9FD7F841234FAC37410956CFF74049540
:101122006BFEC3EF956EF56CEE956DF56BE56AFDA2
:101132007C00AE6DAF6E121525EF2570F570EE35A1
:101142006FF56F7D4B7F801234FAE570C454F04422
:101152000890E1A2F0E56FC4F854F0C8E570C454F9
:101162000F48A3F0AE6BE56C7803CEC313CE13D851
:10117200F92401FFE43EFEEF2570F570EE356FF5C0
:101182006FE57025E090E1A4F0AE6FE5707807CED0
:10119200C313CE13D8F990E1A5F0A217921A123414
:1011A20032AC6DAD6EE56A75F008A4FFAEF0CFCD3E
:1011B200CFCECCCE1215258E6D8F6EAD6D7F2912DE
:1011C20034E1AD6E7F041234E1E56A131313541F48
:1011D200FFE56AC313C39F2405C454F090E1D1F024
:1011E20030174790E1CC7420F090E1CE7403F0A365
:1011F2007430F0E4A3F07AE17BCBD21B7D077F470A
:101202001233F27D017F911234FA1234F690E1CC5E
:101212007423F07AE17BCBD21B7D077F471233F236
:101222007D017F911234FA1234F63017047F2A803E
:10123200027F0690E1CCEFF090E1CE7431F0E4A3AE
:10124200F0E56E25E025E0A3F0A3E0FDAE6DE56ECE
:101252007806CEC313CE13D8F94D90E1D1F07AE1DE
:101262007BCBD21B7D077F471233F27D017F911228
:1012720034FA1234F6AE6DE56E7803C333CE33CE54
:10128200D8F9F56E8E6D3017047F2B80027F0790A0
:10129200E1CCEFF090E1CE7401F0AF6CEFC454F00A
:1012A200A3F0E56BC4F854F0C8E56CC4540F48A32E
:1012B200F0E56BC4540F4490A3F07AE17BCBD21BD0
:1012C2007D077F471233F27D017F911234FA123487
:1012D200F6301522E4F56BE5696401700CE56A6489
:1012E200017006300E03756B80201103436B20AD35
:1012F2006B7F3B1234E1E56964087005756B03800E
:1013020006E569C313F56B30080C3017047F1080B3
:10131200027F40EF426B301703436B04AD6B7F19C2
:101322001234E185476B85486C853970301D09851B
:101332004C6B854D6C853A70AD6B7F3C1234E1ADE0
:101342006C7F3D1234E1743C256CF56CE4356BF531
:101352006BAF707E00C3EF9402748094805012C30E
:1013620074029FFFE49EFEEF256CF56CEE356BF583
:101372006BAD6C7F141234FAAD6B7F151234FA85A3
:10138200286B85296C301D06852D6B852E6CAD6C06
:101392007F121234FAAD6B7F131234FAAD6C7F16E2
:1013A2001234FAAD6B7F171234FAAE6BAF6CAD69C3
:1013B2007C001215258E6B8F6CAE6BAF6CAC6DAD75
:1013C2006E1217AB8F6E8E6D8D6C8C6B856C358546
:1013D2006D36AF6EAE6DAD6CAC6BEF24FFF56EEE9D
:1013E20034FFF56DED34FFF56CEC34FFF56B90E1F5
:1013F200CB7416F0A3E56CF0A3E56DF0A3E56EF0F7
:101402007AE17BCBD21B7D047F441233F285396BA8
:10141200301D03853A6BE56B2403FFF874010880E5
:1014220002C333D8FC54F0FD7F051234FAAF6BEFE0
:1014320075F006A42480F582E43427AB82FAD21B2D
:101442007D067F471233F2AF6BEF75F006A4249E40
:10145200F582E43427AB82FAD21B7D067F47123332
:10146200F2AF6BEF75F006A424BCF582E43427AB2F
:1014720082FAD21B7D067F471233F2AF6BEF75F013
:1014820006A424DAF582E43427AB82FAD21B7D0665
:101492007F471233F2AF6BEF75F006A424F8F582A2
:1014A200E43427AB82FAD21B7D067F471233F2AFB8
:1014B2006BEF75F006A42416F582E43428AB82FAA9
:1014C200D21B7D067F471233F2AF6BEF75F006A495
:1014D2002434F582E43428AB82FAD21B7D067F479E
:1014E2001233F23017047D0280027D007F931234A2
:1014F200FA3017047D0680027D047F931234FA309D
:1015020017047D5080027D107F911234FAE4F51D9C
:0115120022B6
:103360001230F2201103122F1CA2169217120F9284
:1033700030160E7D027F061234FAE4FD7F07023418
:05338000FA1217FC2207
:1034C1007F0B12330CEF4484FD5305FB7F0B123449
:0B34D100E1431C10AD1C7F020234E13F
:0A361700531CEFAD1C7F020234E1EA
:103413008F6990E6047480F07F097E007D007C0054
:0F34230012355890E604E569F0000000E4F0224D
:0C09C7008E5A8F5B8C5C8D5D8A5E8B5FAE
:1009D300E4F560F561C3E561955DE560955C400311
:1009E300020F8DE4F565F564F563F562E55B855A01
:1009F300F012177E0BBA00040B7700080BA1000C52
:100A03000BB800100BBA019C0BCA01A00BD00280DB
:100A13000BD604A00C0204A40C0E04A80C1E04ACF8
:100A23000BFC04F00CC404F40D5704F80D6704FC2C
:100A33000BE105000D8705040DB505080DBB050C7D
:100A43000BE105100D8B05140DB505180DBB051C29
:100A53000BE105200D8F05240DB505280DBB052CD5
:100A63000BE105300D9305340DB505380DBB053C81
:100A73000BFC05400C2605440C2E05480C53054C75
:100A83000BFC05500D0A05540D5F05580D73055CED
:100A93000BF605600D9705640DB505680DBB056C78
:100AA3000BF605700D9C05740DB505780DBB057C23
:100AB3000BF605800DA105840DB505880DBB058CCE
:100AC3000BF605900DA605940DB505980DBB059C79
:100AD3000BFC05A00C6005A40CA805AC0BFC0610D0
:100AE3000C8406140CA8061C0BFC06400D7E064461
:100AF3000D84064C0BFC06700DC406740DCA067CEF
:100B03000BFC06900DFD06940E0906A00BFC0710C6
:100B13000DDF07140DE8071C0BF607200DD007B0F7
:100B23000DD907B40DCA07BC0BFC08B00E1E08B4E0
:100B33000E2708BC0E3010000E3F10040E5710088D
:100B43000E48100C0E6610100E9A10140EA81018F2
:100B53000EC0101C0EC610400ED310480EDE104CF3
:100B63000EE610500F0240080F1040100F424FF8CE
:100B730000000F45E58030E103436580E5AA54405A
:100B83007003436540300A03436502E4FF123336C2
:100B9300EF640B6003020F45436520020F45756444
:100BA300CE75651B7F0112330C8F637F01123336C1
:100BB3008F62020F45800A90E680E020E703020F70
:100BC30045756501020F4575650E020F4575650292
:100BD300020F457562C0201203020F45800F3011CA
:100BE30003020F457562C0200C03020F4575644074
:100BF300020F45301103020F45756280020F45AEA7
:100C030040AD3FAC3E854165020D4E75651CE5392F
:100C13007003020F45756538020F45122E4C8F6520
:100C2300020D4E1225378F65020D4E7E007440A8CB
:100C33003A088006CEA2E713CE13D8F8FDAC06E53A
:100C43003A90285293FF7E0012157A8F65020F4562
:100C530074FFF565F564F563F562020F457F1512C0
:100C6300330C8F647F3912330C8F63AF65AE64AD81
:100C730063AC62E47B06FAF9F81216858F65020D00
:100C83004E7F2C12330C8F647F2B12330C8F63AF88
:100C930065AE64AD63AC62E47B06FAF9F8121685BF
:100CA3008F65020D4E7564FF7563FFAF65AE64AD6E
:100CB30063AC62E47B06FAF9F81216858F65020DC0
:100CC3004E852564852665E564C4540FF563E565A3
:100CD300C4F8540FC868F565E564C454F048F56476
:100CE300E47F10FEFDFCAB65AA64A963A86212153C
:100CF300FAC007E53990276793FBE4FAF9F8D007C0
:100D03001216858F658044852B64852C65E564C444
:100D1300540FF563E565C4F8540FC868F565E564D9
:100D2300C454F048F564E47F10FEFDFCAB65AA648F
:100D3300A963A8621215FAC007E53A90276793FBE7
:100D4300E4FAF9F8D0071216858F658E648D638CEB
:100D530062020F4575641C7565C0808475641C75DB
:100D630065C080C27564B6756540756307020CE3A0
:100D73007564B675654075630780AB853B65020F87
:100D830045020E2AE530801EE533801AE5348016CD
:100D9300E52A80127873E6800D7874E6800878750A
:100DA300E680037872E675F040A4F56585F0640289
:100DB3000F45756410020F4575643F7565C0020FDA
:100DC30045853A65020F45756504020F45756280D6
:100DD300756301020F45853965020F457F3812336C
:100DE3000C8F6480037564FFAE64AF657C007D0681
:100DF3001215258E648F65020F457B007A00796298
:100E0300122EBF020F45201503020F457562802085
:100E13000E03020F45756480020F45853C64853DD2
:100E230065020F457564037565FF020F457564051B
:100E3300756570756204756310020F4575650475F9
:100E43006308020F458528648529658542628543C9
:100E530063020F45854764854865854962854A6312
:100E6300020F45201115D3E531940174809480500D
:100E73000AE532940174809480400E300B047F05A0
:100E830080027F008F65020F45300B047F0C8002C8
:100E93007F088F65020F453011047F0580027F0CA8
:100EA3008F65020F45853165853263300F037564A5
:100EB30001201003020F45756201020F4575650895
:100EC300020F45E4FF1234508E628F637F04800269
:100ED300AF391234508E648F658067756505752749
:100EE30004805FAF271234508E648F65E52760520C
:100EF30014FF1234508E628F6315271527804385A4
:100F03004C64854D65854E62854F63803520111590
:100F1300D3E537940174809480500AE538940174C2
:100F2300809480400D300D047F0580027F008F6523
:100F33008010300D047F0C80027F088F658003438F
:100F43006501855F82855E83E565F0A3E564F085D1
:100F53005F82855E83A3A3E563F0855F82855E83FD
:100F6300A3A3A3E562F07404255FF55FE4355EF5A2
:100F73005E74042561F561E43560F5607404255BF6
:0E0F8300F55BE4355AF55A0209D8AE60AF614D
:010F9100223D
:0C0056008E5A8F5B8C5C8D5D8A5E8B5F28
:10006200E55D455C70030209C5855F82855E83A3F9
:10007200A3A3E0F560855F82855E83A3A3E0F561BB
:10008200855F82855E83A3E0F562855F82855E83FC
:10009200E0F563E55B855AF012177E01C0000001AE
:1000A20055000801C9021401EA021803E404A0037E
:1000B200F304A4043B04F404F70500050605040454
:1000C200F705100517051404F70520052805240473
:1000D200F705300539053404220544049705540513
:1000E2004A0564055C0574056E0584058005940562
:1000F2009605A005B005A405E106140633064406DC
:1001020039067406E106A00608071406B807240794
:100112001908B4074B1008073C100C075A101007B7
:100122007810180799104807CB106007F3400807AA
:10013200E4400C08024010082340180844406008BC
:100142005A5000094E5040094E5080094E50C0008E
:100152000009A0AF63EF6401702890E601E054FC4F
:100162004480F000000090E61474E2F00000009079
:10017200E61574A2F07F807E001231381233CF026E
:1001820009A0AF63EF640270101231EF7F017E00AD
:1001920012313812346D0209A01200067F0A7E0065
:1001A20012313890E61474E0F000000090E6157405
:1001B20022F000000090E601E0547F4403F0122C8C
:1001C2004F121E8C0209A0E5635480600BD22130CD
:1001D2001D030209A002032EC221201D031236179D
:1001E2007F021234130209A0301D030202CCE56320
:1001F20020E2030202CC12361730210CE490E69082
:10020200F000000090E691F0D21D431C4090E602FF
:100212007460F0C3E53A9401748094804027E54B02
:100222006023D2161233607F907E001231387E0036
:100232007418A83A088005C333CE33CED8F92418EF
:10024200FFE43E8064E53A6063F562753A01D216D6
:1002520012336085623AE54B60067E007F4480047B
:100262007E017F441231387F447E00123138E53AF4
:100272006401604CD2161233607E007418A83A08EA
:100282008005C333CE33CED8F92418FFE43EFE12E4
:100292003138C3E53A9403748094804023E54B756A
:1002A200F008A42478FFE435F0FE8011D216123350
:1002B20060E54B7E0060047F9080027F221231381D
:1002C200853A4B1234C1D222C2207F0B12330C8FDB
:1002D20062301D1D5362EEC21EE56330E102D21F81
:1002E200E56330E005436201D21EAD627F0B12343A
:1002F200E1201D030209A0E563540460030209A082
:10030200C220E56254EEFD7F0B1234E1C21DC21F12
:10031200123617531C9F90E6027440F07F06123487
:100322001320210302064B7F02123413C3E53994D2
:1003320001748094804027E54B6023C2161233601B
:100342007F907E001231387E007418A8390880052B
:10035200C333CE33CED8F92418FFE43E8064E539A6
:100362006063F562753901D216123360856239E530
:100372004B60067E007F4480047E017F4412313848
:100382007F447E00123138C216123360E5396401AF
:1003920060477E007418A839088005C333CE33CE77
:1003A200D8F92418FFE43EFE123138C3E53994032C
:1003B200748094804023E54B75F008A42478FFE410
:1003C20035F0FE8011C216123360E54B7E006004E8
:1003D2007F9080027F2212313885394B1234C1025C
:1003E200064BE56254406003D38001C392120209B6
:1003F200A0122E4C8F418E408D3F8C3EAB63AA6281
:10040200A961A860C312172D5010AF63AE62AD612F
:10041200AC608F418E408D3F8C3E1217FC0209A0CA
:10042200AF63AE62AD61AC6012240D201D03020900
:10043200A0D21A1234320209A0E53990276793FF3D
:10044200E4FCFDFEAB63AA62A961A8601215FAE49E
:100452007B10FAF9F81216858F638E628D618C60BB
:10046200E562C4F854F0C868F564E563C4540F4803
:10047200F565E561C454F04264C3E5619410E5603A
:100482009400400674FFF564F565123060856425BA
:10049200856526805AE53A90276793FFE4FCFDFEC6
:1004A200AB63AA62A961A8601215FAE47B10FAF99B
:1004B200F81216858F638E628D618C60E562C4F8D6
:1004C20054F0C868F564E563C4540F48F565E56106
:1004D200C454F04264C3E5619410E56094004006A0
:1004E20074FFF564F56512306085642B85652C1206
:1004F20030F20209A0E56254406003D38001C39246
:100502000C0209A0AE62E5637806CEC313CE13D8FF
:10051200F9F5308079AE62E5637806CEC313CE1367
:10052200D8F9F5338068AE62E5637806CEC313CEA0
:1005320013D8F9F5348057AE62E5637806CEC3135B
:10054200CE13D8F9F52A8046AE62E5637806CEC3AB
:1005520013CE13D8F97873F68034AE62E563780669
:10056200CEC313CE13D8F97874F68022AE62E56357
:100572007806CEC313CE13D8F97875F68010AE6222
:10058200E5637806CEC313CE13D8F97872F6122F2C
:100592001C0209A07F0B12330CEF4402F560E562E6
:1005A200548060035360FDAD607F0B020713AF639D
:1005B200AE62AD61AC60E47B06FAF9F81215FA8F0F
:1005C200638E628D618C60E56060067561FF7562A5
:1005D200FFAD627F151234E1AD617F39020713AFBF
:1005E20063AE62AD61AC60E47B06FAF9F81215FA0B
:1005F2008F638E628D618C60AD617F2B1234E1ADB1
:10060200627F2C020713AF63AE62AD61AC60E47B24
:1006120006FAF9F81215FA8F638E628D618C60E525
:10062200607004E56160037562FFAD627F380207A6
:100632001385633B0209A0AF63D3EF9404748094E3
:10064200804003756304856344301D030209A0E5FD
:1006520044653A70030209A0AE2BAF2CE544902703
:100662006793FD7C001217ABC007E53A93FBE4FAEF
:10067200F9F8D0071216858F638E628D618C60E562
:10068200614560600674FFF562F5637B007A00796C
:100692006212306685622B85632C1225378F638E3A
:1006A200628D618C6085443AAF63AE62AD61AC60CD
:1006B20012240D0209A0E4F52FE56330E003432F75
:1006C20001E56330E103432F02E56330E203432F88
:1006D20004E56320E3030209A0432F080209A0E511
:1006E2006254806003D38001C3920EE5312532F556
:1006F20061301D06E5372538F561AF61EF640260B0
:10070200030209A0536280201103436220AD627F7D
:100712003B1234E10209A0D3E56394FFE56294033E
:100722005006E561456060067562037563FF856288
:100732003C85633D1232220209A085622885632925
:100742008560428561430209A085624785634885C9
:10075200604985614A0209A0C20B75604CAF63EF24
:10076200640C6007AF63EF6405700575604DD20BD2
:1007720090E61802081D856331E56254016003D3D7
:100782008001C3920F856132E56054016003D3801A
:1007920001C392100209A0E4FF1234508E608F61EF
:1007A200E4F565D3E5619563E560956240130565FF
:1007B200E5656404600BAF651234508E608F618012
:1007C200E2AF651230AA0209A0534AF8E532145585
:1007D200327007E5311455316002C32212265F02DE
:1007E20009A085622D85632E8560458561460209D3
:1007F200A085624C85634D85604E85614F0209A0DC
:10080200C20D75604CAF63EF640C6007AF63EF64B9
:10081200057005D20D75604D90E61AE560F002098B
:10082200A0856337E56254016003D38001C392134C
:10083200856138E56054016003D38001C3921402DC
:1008420009A0534FF8E538145538700AE5371455A6
:100852003770030209A0C3227F2E12330C8F62E489
:10086200F560F561AF61C3EF9404748094805046E3
:10087200AF61A807E52F088002C313D8FC20E0204F
:10088200E56125E0FFF8E562088002C313D8FC5455
:1008920003FFF87401088002C333D8FC426080125F
:1008A200E56125E0FFF87403088002C333D8FCF445
:1008B2005262056180AEE4F561E56030E013756176
:1008C20001E56030E10B756102E56030E2037561BC
:1008D20003E4F560AF60C3EF940474809480502504
:1008E200AF60A807E52F088002C313D8FC30E011DF
:1008F200E56025E0FFF8E561088002C333D8FC42D9
:1009020062056080CFAD627F2E1234E17F2D1233FB
:100912000CEF540FF562AF61A8077410088002C390
:1009220033D8FC1234DCE55D6440455C601EAF6187
:10093200A8077401088002C333D8FCF45562FD7F16
:100942002D1234E1755C00755D048052E55B04850F
:100952005F82855E83F0D21BAB5FAA5E7D407F46DD
:100962001233F2855F82855E83E55BF0A3E563F077
:10097200D21BAB5FAA5E7D027F461233F2E55B6457
:10098200C0700F7F2D12330C8F62E562C4540F12B8
:1009920034DC74C4255DF55D74FF355CF55C74046C
:1009A200255FF55FE4355EF55E74FC255DF55D74EB
:1009B200FF355CF55C7404255BF55BE4355AF55A4A
:0409C200020062D3FA
:0109C600220E
:0829FC008F6C8E6B8D6A8C69F3
:102A0400E53175F004A4AEF0FBAA06E4F9F8AE28AB
:102A1400AF29FCFD121685C004C005C006C007E539
:102A24003275F004A4AEF0FBAA06E4F9F8AE42AFA6
:102A340043FCFD121685D003D002D001D00012153C
:102A4400FAE47BD07A03F9F81215FAC004C005C081
:102A540006C007E47B10FAF9F8AF6CAE6BAD6AAC54
:102A640069121685A804A905AA06AB07D007D006E3
:102A7400D005D0041216858E6D8F6E300B18E56D5F
:102A840030E70874FFF56DF56E800BE56E25E0F513
:0A2A94006EE56D33F56DAE6DAF6EAB
:012A9E002215
:103450008539688F3912265F122E4C1229FC8E6630
:0C3460008F6785683912265FAE66AF6783
:01346C00223D
:042B33008E688F69B0
:102B3700E4FBFAC3E5689410748094804015E56857
:102B4700C4F854F0C868F568E569C4540F48F569D6
:102B57000A7B34C3E5689402748094804013E56867
:102B670013F568E56913F569744D2BFBE43AFA80B0
:102B7700E2C3E5699420748094804027AE68E569D4
:102B87007803C333CE33CED8F92404FFE43EFE7C6A
:102B9700007D091215258E688F69740D2BFBE43AA9
:102BA700FA80CE7E00AF697C007D0D1215137D1F64
:0B2BB700121525EF2BFBEE3AFEAF03DA
:012BC20022F0
:10348A00122B337C027D2D1217ABE4FB7A01F9F87B
:0C349A00121685EF2472FFEE34FFFE22B4
:063060007B007A00796498
:103066008B6B8A6C896D1215B0FFAEF0E4FCFD7BAC
:10307600647A7BF9F8C3121717500EAB6BAA6CA9CA
:103086006D747B75F0641215DBAB6BAA6CA96D12BF
:1030960015B0C394CCE5F094015008740175F0CCDA
:0430A6001215DB2202
:1030F200301D06AE2BAF2C8004AE25AF2612348ACB
:103102008E668F6790E1C27480F0A37405F0E56764
:10311200C454F0A3F0E566C4F854F0C8E567C4549B
:103122000F48A3F0E4A3F0A3F07AE17BC2D21B7DA7
:06313200067F470233F2A4
:1032220090E1C27480F0A37406F0E53DC454F0A3AB
:10323200F0E53CC4F854F0C8E53DC4540F48A3F08F
:10324200E4A3F0A3F07AE17BC2D21B7D067F4702A2
:0232520033F255
:0230AA008F662F
:1030AC00AE25AF26E56690276793FD7C001217AB23
:1030BC00C007E53993FBE4FAF9F8D0071216858FAF
:1030CC006A8E698D688C67E5684567600674FFF5E4
:1030DC0069F56A7B007A0079691230668569258505
:0530EC006A268566392B
:0130F10022BC
:102F1C0090E1C2741CF0301D067873E6FF8002AF9E
:102F2C003090E1C3EFF0301D067874E6FF8002AFFD
:102F3C003390E1C4EFF0301D067875E6FF8002AFE8
:102F4C003490E1C5EFF0301D067872E6FF8002AFD9
:102F5C002A90E1C6EFF07AE17BC2D21B7D057F445B
:032F6C000233F23B
:1025370090E1C27430F07AE17BC2C21B7D017F4714
:102547001233F27AE17BC27D057F4712350F90E1A6
:10255700C6E0FF6003D38001C392163016028005E0
:1025670090E1C5E0FF8F6630160790E1C5E0FF8078
:102577000590E1C4E0FF8F6730160790E1C4E0FFE4
:10258700800590E1C3E0FF8F6830160790E1C3E054
:10259700FF800590E1C2E0FF8F6920162FE56924CF
:1025A700FEFBE56834FFFAE56734FFF9E56634FFBB
:1025B700F8E53A90285293FFE4FCFDFEEB2FF5690E
:1025C700EE3AF568ED39F567EC38F566E53A9028A7
:1025D7005793F56AE56620E71DE56A6019AF69AEAE
:1025E70068AD67AC6678011217518F698E688D6781
:1025F7008C66156A80DEAF69AE68AD67AC66C007EA
:10260700E53A90285C93FBE4FAF9F8D007121685AF
:102617008F698E688D678C66A96AA8011217518F1A
:10262700698E688D678C66301625E566600C74FFC9
:10263700F569F568F567F5668015AF69AE68AD674A
:10264700AC6678081217518F698E688D678C66AFF4
:0726570069AE68AD67AC66D7
:01265E002259
:08240D008F698E688D678C66F3
:10241500D3E5679407E56694004003D38001C39232
:1024250009C3E5669404748094804003D38001C396
:102435009216301615AF69AE68AD67AC66780812AE
:10244500173E8F698E688D678C66AB69AA68A96728
:10245500A866C000C001C002C0037E007440A83A4F
:10246500088006CEA2E713CE13D8F8FFEE3395E029
:10247500FDFCD003D002D001D0001215FA8F698E71
:10248500688D678C66201651E53A90285293FFE4D3
:10249500FCFDFEAB69AA68A967A866C312172D5093
:1024A5000CE4756902F568F567F566802CE53A90E8
:1024B500285293FBC3E5699BFFE5689400FEE56739
:1024C5009400FDE5669400FCEF2402F569E43EF511
:1024D50068E43DF567E43CF56690E1C27430F030A0
:1024E50016047F008002AF6990E1C3EFF030160457
:1024F500AF698002AF6890E1C4EFF0301604AF68B1
:102505008002AF6790E1C5EFF0301604AF67800237
:10251500AF6690E1C6EFF0301604AF6680027F002B
:1025250090E1C7EFF07AE17BC2D21B7D067F4702BF
:0225350033F27F
:10343200301A073009047D0980027D017F9212341F
:0E344200FA7AE17BA0D21B7D067F470233F2AF
:062EBF008B668A6789683A
:102EC500E490E1C2F07AE17BC2C21B7D017F4A1228
:102ED50033F27AE17BC27D027F4A12350F90E1C25F
:102EE500E0FEA3E07807CEA2E713CE13D8F8FFEEF5
:102EF5003395E0FDFCE47BF47A01F9F81215FAEF5D
:102F05002468FFEE342AFEED3404FDE43CFCAB6698
:072F1500AA67A96802176416
:1033CF00C281E5B254DF4454F5B2C286C282C284D0
:0933DF007566071566E56670FAD3
:0A33E800D28443B303C290C29122C5
:1031EF00D286C286D286C286D286C286D286C28650
:1031FF00D286C286D286C286D286C286D286C28640
:10320F00D286C286D286C286308502D20A53B2AB2C
:03321F00D2812237
:102F6F00EF1FAC0670011E4C604890E67BE0F52029
:102F7F00A2009282D286C286A2019282D286C28695
:102F8F00A2029282D286C286A2039282D286C28681
:102F9F00A2049282D286C286A2059282D286C2866D
:102FAF00A2069282D286C286A2079282D286C28659
:032FBF0080AE22BF
:0A346D0043B303C290C291752064BE
:093477007566071566E56670FA3A
:093480007566071566E56670FA31
:013489002220
:10000600D290C290D290C290D290C290D290C2901A
:10001600D290C290D290C290D290C290D290C2900A
:0C002600D290C290D290C29053B3FC2242
:102FC200EF1FAC0670011E4C604890E67BE0F520D6
:102FD200A2009291D290C290A2019291D290C290FC
:102FE200A2029291D290C290A2039291D290C290E8
:102FF200A2049291D290C290A2059291D290C290D4
:10300200A2069291D290C290A2079291D290C290BF
:0330120080AE226B
:10330C0090E1CBEFF07AE17BCBC21B7D017F4412C5
:10331C0033F2500D7AE17BCB7D017F4412350F40A7
:09332C00037FFF2290E1CBE0FFDA
:013335002275
:0534DC004562FD7F2D9B
:1034E10090E1D2EFF0A3EDF07AE17BD2D21B7D0225
:0534F1007F440233F2EC
:1033360090E1CBEFF07AE17BCBC21B7D017F471298
:1033460033F2500D7AE17BCB7D017F4712350F407A
:09335600037FFF2290E1CBE0FFB0
:01335F00224B
:0434F600E4FD7F91E1
:1034FA0090E1D2EFF0A3EDF07AE17BD2D21B7D020C
:05350A007F470233F2CF
:10338500E4F569C3E56994647480948050167F01FF
:103395001233367E00BEFF0CBFFF097F01123138A4
:0433A500056980DF57
:0133A9002201
:10294A00E4F553F552F551F550C224C22390E682BC
:10295A0074C4F0122D59120036750AE0750B007511
:10296A0012E07513127508E075091C7510E07511EF
:10297A005C7514E075156E85100C85110D85080EB1
:10298A0085090F90E680E030E70C85080C85090D73
:10299A0085100E85110FD2E890E668E0440BF0909E
:1029AA00E65CE04439F0D2AF1231B6122DD790E688
:1029BA0080E0440AF07FDC7E0512313890E65D74CF
:1029CA00FFF090E65FF05391EF90E680E054F7F065
:1029DA00538EF8C224302305121C84C22330240DDE
:1029EA001236215008C2241233AA12362A121A4564
:0229FA0080E378
:101C840090E6B9E07003021D35147003021DAC2404
:101C9400FE7003021E2924FB7003021D2F1470031F
:101CA400021D2914607314607624056003021E78F3
:101CB4001200414003021E8490E6BBE024FE602231
:101CC40014603324FD601114602224067048E50A70
:101CD40090E6B3F0E50B8037E51290E6B3F0E51338
:101CE400802DE50C90E6B3F0E50D8023E50E90E63B
:101CF400B3F0E50F801990E6BAE0FF1232E0AA06CD
:101D0400A9077B01EA494B600DEE90E6B3F0EF9032
:101D1400E6B4F0021E84021E7D1235C1021E841236
:101D24003633021E841234A6021E841235AF021EFC
:101D3400841200514003021E84E490E740F0A3F0B3
:101D440090E6B8E02480604114604C14705790E62B
:101D5400BCE0D39480748094807E0040047F018032
:101D6400027F0090E6BCE0547EFDEF4D24A4F58292
:101D740074E03EF583E024A1FFE434E68F82F5832A
:101D8400E0540190E740F0800E2087047F01800238
:101D94007F0090E740EFF0E490E68AF090E68B74E1
:101DA40002F0021E84021E7D1236414003021E848C
:101DB40090E6B8E024FE601524026003021E8490BD
:101DC400E6BAE064027003021E84021E7D90E6BA45
:101DD400E0705090E6BCE0D39480748094807E00E0
:101DE40040047F0180027F0090E6BCE0547EFDEF5A
:101DF4004D24A4F58274E03EF583E024A1FFE4348D
:101E0400E68F82F583E054FEF090E6BCE054801344
:101E14001313541FFFE0540F2F90E683F0E0442087
:101E2400F0805D8054123643505690E6B8E024FEAC
:101E3400600E2402704A90E6BAE06402604280397F
:101E440090E6BCE0D39480748094807E0040047F4C
:101E54000180027F0090E6BCE0547EFDEF4D24A497
:101E6400F58274E03EF583E024A1FFE434E68F823A
:101E7400F583800812202A500790E6A0E04401F080
:071E840090E6A0E04480F0AD
:011E8B002234
:0300330002004682
:0400460053D8EF326A
:10E00000120100020000004024179A0018000102CB
:10E0100003010A060002000000400100090240005E
:10E0200001010080FA0904000000FF00000009045B
:10E03000000101FF000000070508020002010904B9
:10E04000000203FF0000000705820200020107052D
:10E050008602000201070581030100040902120083
:10E0600001010080FA0904000000FF000000040321
:10E07000090412034C0075006D0065006E00650018
:10E08000720061000C034C00750031003300300059
:10E0900012033100320033003400350036003700FF
:0EE0A00038000000000102020303040405051D
:0300430002360082
:0300530002360072
:103600000235280002358600023570000235400080
:0736100002301500023179C0
:1035D30090E670E04401F0C2A8C2B8D288C2892242
:0300030002004EAA
:03004E00D220328B
:102199008C5A8D5B8A5C8B5DEE60030222DCEF1446
:1021A900603A14606F14700302224B147003022208
:1021B9008824FD70030222AE24FB70030222CB2483
:1021C9000C60030222DC7AE77B40AD5AAF5B123523
:0C21D9000F5004AF5A80027F007E0022ED
:1021E50074E7F59D7440F59E855A5E855B5F855C59
:1021F5005A855D5BE55D455C604A055FE55FAE5E02
:102205007002055E14F5828E83E090E67CF0E55D54
:08221500155D70E0155C80DC32
:10221D0074E7F59D7440F59E855B5E855C5A855D22
:10222D005BE55D455C6015AF5E055EA807E690E673
:0E223D007CF0E55D155D70E9155C80E580388C
:10224B007AE779407EE774E7F59D7440F59E855BF0
:10225B005E855C5A855D5BE55D455C601BAF5E052D
:10226B005E90363CEFF012363B90E67CEFF0E55D8E
:0D227B00155D70E3155C80DFAE5AAF5B228D
:102288007AE67BBBD21B7D01AF5B1233F250127A28
:10229800E77B407D01AF5B12350F50057E007F0163
:0622A800227E007F0022EF
:1022AE007F0312330C8F5EE55EC4540F90E741F04E
:0D22BE00E55E540F90E740F07E007F0222A5
:1022CB0090E7407401F0E4A3F0A3F0A3F0FE7F04C9
:0522DB0022E4FEFF22D9
:0C22E0008E5A8F5B8C5C8D5D8A5E8B5F7C
:1022EC0090E740E0F560E55A600302240BE55B14CF
:1022FC00602B14605E14700302238724FC700302AD
:10230C0023BB24FE70030223C12409600302240BA7
:0D231C007AE77B40D21BAD5CAF5D0233F26F
:10232900855C61855D6274E7F59A7440F59BE55FAC
:10233900455E602090E67BE0FF0562E562AC617076
:1023490002056114F5828C83EFF0E55F155F70DE9D
:06235900155E80DAD322BC
:10235F0074E7F59A7440F59B855D61E55F455E60B6
:10236F001590E67BE0AE610561A806F6E55F155FA7
:08237F0070E9155E80E5D32230
:102387007AE779407EE774E7F59A7440F59B855DB7
:1023970061E55F455E601BAF61056190363FEFF019
:1023A70090E67BE0FF12363EE55F155F70E3155E52
:0423B70080DFD322CE
:1023BB00AD607F0380457F0B12330CEF54FDF55D51
:1023CB00E56030E003435D02AD5D7F0B1234E1E568
:1023DB0060F4FFE4F4EF30E303D38001C392087F92
:1023EB001912330CEF54AFF55D30080B301D05435C
:1023FB005D108003435D40AD5D7F191234E1D32244
:01240B00C30D
:01240C0022AD
:03363B00AFD022EB
:03363E008FD02208
:1035580000000000000000EF1F70F5EE1E70F6ED91
:083568001D70F4EC1C70F02250
:0F35E300E4F8F91216858F058E048B078A0622ED
:0B003600E4F51990E67A04F0D2E9220C
:1032B400AC0790E678E020E6F9AE19EE701CE04425
:1032C40080F0EC25E090E679F08D168A178B18755E
:0C32D4001901A21CE433F51AD322C32216
:10325400AC0790E678E020E6F9AE19EE6007AE1907
:10326400EE640A701B90E678E04480F0EC25E044BC
:103274000190E679F08D168A178B18751903D322FD
:02328400C32263
:10350F00123254E51924FA600B146006240770F385
:09351F00D3228000E4F519C32257
:1033F200A21B921C1232B4E51924FA600F14600A5F
:1034020024FD6004240A70EFD3228000E4F519C37E
:013412002297
:03004B0002286127
:10286100C0E0C083C082C0D075D000C004C005C024
:1028710006C00790E678E030E206751906022936AF
:1028810090E678E020E10DAF19EF6402600675195A
:1028910007022936E51924FE605114602E24FE70CA
:1028A10003022925240460030229360518E518AE20
:1028B100177002051714F5828E83E090E679F01502
:1028C10016AF16EF706F751905806A90E679E0AC66
:1028D10017AD188D828C83F0751902AF16EF640164
:1028E100705390E678E04420F0804AAF16EF64021E
:1028F100700790E678E04420F0AF161516EF6401FA
:10290100700A90E678E04440F075190090E679E0AD
:10291100FF0518E518AC177002051714F5828C83B2
:10292100EFF0801175190AE51A600A90E678E04423
:1029310040F07519005391DFD007D006D005D004BF
:09294100D0D0D082D083D0E03266
:1033AA0090E682E044C0F090E681F0438701000095
:0433BA0000000022ED
:103138008E6A8F6B90E600E05418700DE56AC31331
:10314800F56AE56B13F56B801590E600E05418FFFF
:10315800BF100BE56B25E0F56BE56A33F56AE56BA7
:10316800156BAE6A7002156A4E60051233BE80EEAA
:013178002234
:0232E000A9073C
:1032E200AE14AF158F828E83A3E064037017AD0115
:1032F20019ED7001228F828E83E07C002FFDEC3E5F
:09330200FEAF0580DF7E007F00B4
:01330B00229F
:1033BE007400F58690FDA57C05A3E582458370F922
:0133CE0022DC
:03000000022BC30D
:0C2BC300787FE4F6D8FD758175022C0ABD
:10151300EF8DF0A4A8F0CF8CF0A428CE8DF0A42EEC
:02152300FE22A6
:10152500BC000BBE0029EF8DF084FFADF022E4CCAA
:10153500F875F008EF2FFFEE33FEEC33FCEE9DEC73
:10154500984005FCEE9DFE0FD5F0E9E4CEFD22EDB9
:10155500F8F5F0EE8420D21CFEADF075F008EF2F03
:10156500FFED33FD4007985006D5F0F222C398FDF4
:051575000FD5F0EA2291
:10157A00C2D5EC30E709B2D5E4C39DFDE49CFCEE8C
:10158A0030E715B2D5E4C39FFFE49EFE121525C3CA
:10159A00E49DFDE49CFC800312152530D507C3E4C5
:0615AA009FFFE49EFE22FB
:1015B000BB010A89828A83E0F5F0A3E02250068706
:1015C000F009E71922BBFE07E3F5F009E3192289C8
:0B15D000828A83E493F5F074019322FB
:1015DB00BB010A89828A83F0E5F0A3F0225006F75B
:0F15EB0009A7F01922BBFE06F3E5F009F3192258
:1015FA00E88FF0A4CC8BF0A42CFCE98EF0A42CFC90
:10160A008AF0EDA42CFCEA8EF0A4CDA8F08BF0A40D
:10161A002DCC3825F0FDE98FF0A42CCD35F0FCEB6C
:10162A008EF0A4FEA9F0EB8FF0A4CFC5F02ECD3931
:0F163A00FEE43CFCEAA42DCE35F0FDE43CFC229E
:1016490075F008758200EF2FFFEE33FECD33CDCC58
:1016590033CCC58233C5829BED9AEC99E5829840DB
:101669000CF582EE9BFEED9AFDEC99FC0FD5F0D6B8
:10167900E4CEFBE4CDFAE4CCF9A88222B800C1B9E2
:101689000059BA002DEC8BF084CFCECDFCE5F0CB20
:10169900F97818EF2FFFEE33FEED33FDEC33FCEB59
:1016A90033FB10D703994004EB99FB0FD8E5E4F914
:1016B900FA227818EF2FFFEE33FEED33FDEC33FC01
:1016C900C933C910D7059BE99A4007EC9BFCE99AF5
:1016D900F90FD8E0E4C9FAE4CCFB2275F010EF2F3A
:1016E900FFEE33FEED33FDCC33CCC833C810D7073A
:1016F9009BEC9AE899400AED9BFDEC9AFCE899F875
:0E1709000FD5F0DAE4CDFBE4CCFAE4C8F92207
:10171700EB9FF5F0EA9E42F0E99D42F0EC6480C849
:0617270064809845F022E9
:10172D00EB9FF5F0EA9E42F0E99D42F0E89C45F012
:01173D002289
:10173E00E8600FECC313FCED13FDEE13FEEF13FF89
:03174E00D8F122AD
:10175100E8600FEFC333FFEE33FEED33FDEC33FCF6
:03176100D8F1229A
:10176400BB010789828A830217E45005E9F802174E
:0A177400D8BBFE05E9F80217F022C9
:10177E00D083D082F8E4937012740193700DA3A3FA
:10178E0093F8740193F5828883E473740293B5F031
:0D179E00067403936860E9A3A3A3A380D899
:1017AB00EC8EF0A4CCC5F0CCCDF8EFA4CEC5F02DCB
:1017BB00FDE43CFCE8A42EC8C5F03DFDE43CFCEF89
:0D17CB00A4FFE5F028FEE43DFDE43CFC2217
:102BCF0002294AE493A3F8E493A34003F68001F2A9
:102BDF0008DFF48029E493A3F85407240CC8C33307
:102BEF00C4540F4420C8834004F456800146F6DFD6
:102BFF00E4800B0102040810204080903286E47EAE
:102C0F00019360BCA3FF543F30E509541FFEE493CA
:102C1F00A360010ECF54C025E060A840B8E493A391
:102C2F00FAE493A3F8E493A3C8C582C8CAC583CABC
:102C3F00F0A3C8C582C8CAC583CADFE9DEE780BE74
:0132B300001A
:0C17D800ECF608EDF608EEF608EFF6223D
:0C17E400ECF0A3EDF0A3EEF0A3EFF02278
:0C17F000ECF208EDF208EEF208EFF22235
:00000001FF
