:0C044700010A00010800C10CC10DC10E2B
:1000560075B208C283E490E600F090E6107420F0D2
:10006600000090E61174B0F0000090E61274E0F023
:10007600000090E6137420F0000090E61474E2F09D
:10008600000090E61574A2F0000090E69D7480F0E2
:100096000000F0000090E6097420F0000043AF0174
:0400A600121A5522B3
:1000AA007F517D027AE17B98C21E121C377F517DF7
:1000BA00047AE17BC0121C2DE4FF74C02FF582E4A0
:1000CA0034E1F583E0F556C4540F2430FE7582926C
:1000DA007583E075F004EF121FC2EEF0E556540F77
:1000EA002430FE7582947583E075F004EF121FC206
:0600FA00EEF00FBF04C48C
:0101000022DC
:10010100E5AA20E62D90E69CE0F55690E69DE0F507
:1001110057455660177AFC79007EFC7F0074FCF528
:100121009A7400F59BAF57AE561216B490E69D74C3
:1001310080F0300D10E5AA30E00BE490E690F0007D
:100141000090E691F0300E09C20E300804D210D2B0
:1001510009300909E5AC30E104C20AC209300C25B5
:100161003010227F0B1217078F577F0BE557441072
:10017100FD12172A300B034357017F0BAD5712179E
:050181002AC20CC210AF
:010186002256
:1000060075B208C283E490E600F090E6017480F0D1
:03001600C21922EA
:05001900120006D322D5
:0E001E00D28343B202D28190E6007412F02227
:05002C0012001ED322AA
:02003100D322D8
:1001870090E6BAE0F50A600512001E800312000629
:02019700D32271
:1001990090E740E50AF0E490E68AF090E68B04F0F7
:0201A900D3225F
:0800360090E6BAE0F508D322C0
:1001AB0090E740E508F0E490E68AF090E68B04F0E7
:0201BB00D3224D
:1001BD0090E6BDE0F55890E6BCE0F55990E6BFE05D
:1001CD00F55690E6BEE0F55790E6BBE0F55A90E6A1
:1001DD00BAE0F55B90E6B9E024ED70030202D404B9
:1001ED00600302031D90E6B8E030E76FE557455612
:1001FD00700302031F85565A85575BD3E55B944008
:10020D00E55A94004006755A00755B40AF59AE58DB
:10021D00AD5BAC5A7AE77B40120B848E5A8F5B90A4
:10022D00E68AE55AF090E68BE55BF0000090E6A0DB
:10023D00E020E1F9C3E557955BF557E556955AF57D
:10024D0056E55B2559F559E55A3558F558C3E55B23
:10025D009440E55A9400509402031FE5574556709B
:10026D000302031FE490E68AF090E68BF000009005
:10027D00E6A0E020E1F9C3E5579440E5569400402F
:10028D002CAF59AE587D407C007AE77B40120EC9E9
:10029D004002D32274C02557F55774FF3556F556D5
:1002AD0074402559F559E43558F55880AEAF59AE1F
:1002BD0058AD57AC567AE77B40120EC94002D32297
:1002CD00E4F556F557809490E6B8E030E71DAF5948
:1002DD00AE58AD5BAC5A121A688E568F5790E68A9F
:1002ED00E556F090E68BE557F08027E557455660CB
:1002FD0012E490E68AF090E68BF0000090E6A0E024
:10030D0020E1F9AF59AE58AD5BAC5A121B3FB32289
:03031D00D322C325
:0103200022BA
:10032100C0E0C083C082D21A5391EF90E65D7401A0
:08033100F0D082D083D0E0324D
:10033900C0E0C083C0825391EF90E65D7404F0D0B1
:0603490082D083D0E032F7
:10034F00C0E0C083C0825391EF90E65D7402F0D09D
:06035F0082D083D0E032E1
:10036500C0E0C083C08285130F8514108510828577
:100375000F83A37402F0850B11850C1285128285FB
:100385001183A37407F0E4F50AC2835391EF90E655
:0B0395005D7410F0D082D083D0E03205
:1003A000C0E0C083C082D21B5391EF90E65D740819
:0803B000F0D082D083D0E032CE
:1003B800C0E0C083C08290E680E030E720850B0F64
:1003C800850C10851082850F83A37402F0851311A4
:1003D800851412851282851183A37407F05391EF57
:0D03E80090E65D7420F0D082D083D0E0322A
:01003E00328F
:01003F00328E
:01004000328D
:01004100328C
:01004200328B
:010046003287
:010047003286
:010048003285
:1003F500C0E0C083C0825391EF90E65F7440F02067
:100405000A1590E6A2E020E10C90E7C07404F09094
:0E041500E68F7401F0D20AD082D083D0E0329C
:10042300C0E0C083C0825391EF90E65F7480F09088
:10043300E1C5E004F0700690E1C4E004F0D082D09E
:0404430083D0E03250
:02045300C119CD
:04004E001204562220
:10045600752805752970754A04754B10E4F54EF537
:100466004FF550F5517549D07548FB754701F5466E
:10047600752401F525F5327533AD752A01752B5CAA
:10048600F538753980F536753780C21290E61874DE
:100496004CF0E4F542C214753401C2157535017588
:0D04A6004301C211C20EC208C20FF50922A7
:1004B3007F647E00121D324309027F02AD091217C9
:1004C3002A7F02121707EF30E303D38001C392168A
:1004D3007F037D0112172A7F0B7D0212172A7F05E6
:1004E3007D0312172A7F217D1012172A1206AF7F70
:1004F30002120B757F06120B7590E6307419F0909B
:10050300E63174F0F090E6347409F090E63574F057
:08051300F090E6027440F022B2
:10051B00854269E569D394034003756903AE44AF23
:10052B0045E4FCFDC004C005C006C00774027E0094
:10053B00A869088005C333CE33CED8F9FFEE3395C7
:10054B00E0FDFCD003D002D001D000121E947B2022
:09055B007A0079007800121E9468
:010564002274
:10056500EFD3940340027F0374017E00A80708803F
:1005750005C333CE33CED8F9FF7C0F7DA5121E2BD4
:010585002253
:10058600AF42120565E4FCFDC004C005C006C00705
:100596007F40FEAB49AA48A947A846121E94D0033D
:1005A600D002D001D000121F1F8F748E738D728CF3
:1005B60071AB45AA44121ADE8F748E738D728C71DC
:1005C600C3E5459574F574E5449573F573E5724591
:1005D6007160067573007574017F7A7E02AD74AC26
:0405E600731216383E
:0105EA0022EE
:1005EB008E718F728C738D748B75AF751575EF6003
:1005FB002DE572FF2402F572E571FE3400F5718F63
:10060B00828E83E0FEA3E0FF0574E574AC73700289
:0F061B00057314F5828C83E0FD12175580CC22F5
:10062A008E718F728C738D74AF031BEF6024057407
:10063A00E574AE737002057314F5828E83E0FF05CC
:10064A0072E572AC717002057114F5828C83EFF059
:03065A0080D62225
:10065D007D457C0175680E7569A0EF70087DC775C5
:10066D00680E756920EFC454F04403F56AEFC39426
:10067D00034003756A437FE17E001216387FE97EE1
:10068D0000AD69AC681216387F05AD6A12172A7F66
:10069D00297E00E4FD1217557F297E007D0112177A
:0106AD0055F7
:0106AE002229
:1006AF00853469A214921C85356AA215921D3008F3
:1006BF000E853C69A217921C853D6AA218921D7E79
:1006CF00E07FA4E56A64016003301D067CE07DFCD9
:1006DF0080047CE17D083008047B0A80027B0C12C9
:1006EF0005EB7EE07FBCE56AB401067CE17D1480FA
:1006FF00047CE17D267B121205EB756802E56AD357
:10070F0094014009E4F568301D037568037F6F7E1F
:10071F0001AD681217557F14121707EF54B8F5681B
:10072F00201C0AE569B404054368048005E56914D3
:10073F004268201603301C034368407F14AD6812D3
:10074F00172AE56AD394015003020807E4F5267FC0
:10075F00087E01AD6AFC1216387EE17FD0301D088D
:10076F007BFF7AE1795480067BFF7AE17938AC021E
:10077F00AD017B1C12062A301D62E56AB403269078
:10078F00E1D27401F0A37465F090E1D67401F0A387
:10079F007465F0A37401F0A37466F090E1DC74014A
:1007AF00F0A37465F0E56AB4042690E1D27401F009
:1007BF00A3740DF090E1D67401F0A3740DF0A3743F
:1007CF0001F0A3740EF090E1DC7401F0A3740DF04E
:1007DF0030080990E1E4E4F0A3E56AF0756820E5DC
:1007EF006AB40203756841E56AB4030375682B7533
:1007FF006F0875700302091285506F855170854A15
:10080F006B854B6C30080C85546F855570854C6B20
:10081F00854D6C5370F0E4F568E570456F600375B6
:10082F006802AF70AE6F1214C98E6D8F6EC37420D5
:10083F009570F5707404956FF56F90E1E2E4F0A395
:10084F00EFF0856D26740C256DF56DAF687E002F6A
:10085F00FDE433FC90E1D4F0A3EDF0AB6D7A0090A2
:10086F00E1D0EAF0A3EBF090E1DAECF0A3EDF0C306
:10087F00E570956CF570E56F956BF56FE56C2BCDAD
:10088F00EA356BCD2FF56EEE3DF56D90E1D2F0A30D
:10089F00E56EF090E1D6E56DF0A3E56EF090E1DC4A
:1008AF00E56DF0A3E56EF0C39FF56EE56D9EF56DFA
:1008BF00AF70AE6F1214C98E6F8F70E56F256EF526
:1008CF006EE4356DF56DE56E240190E1D9F0E435F8
:1008DF006D90E1D8F0E56CAE6B7803CEC313CE13F9
:1008EF00D8F9F56830080DE54DB41008E54CB4049F
:1008FF000375700190E1E4E4F0A3E570F0756F0605
:10090F007570FE7F04AD6812172A7F06AD6F121740
:10091F002A7F07AD7012172A90E1D8E0FEA3E08E70
:10092F0044F545200843E542D39403403CE5422477
:10093F00FDFFE545AE44A807088005C333CE33CE8F
:10094F00D8F9F5458E4490E1E4E4F0A304F0D3E543
:10095F004594FEE544940F400675440F7545FE908F
:10096F00E1D8E544F0A3E545F090E1DEE56FF0A3B3
:10097F00E570F0A3E56FF0A3E570F090E1E6E56FA9
:10098F00F0A3E570F0E56875F008A4FFC3E5459F97
:10099F00FD7F1A12172A854E6D854F6E85286B8540
:1009AF00296C30080C85526D85536E852E6B852F03
:1009BF006CE56AB40124748D256EF56E7401356D86
:1009CF00F56D90E1E8F0A3E56EF0256CF56EE56B43
:1009DF00356DF56DA3F0A3E56EF0AA6BAB6CE56911
:1009EF0075F004A4FDACF0AF03AE02121E3F8E6B88
:1009FF008F6CAF687E00AC6BAD6C121E2BEF24FFBB
:100A0F00F56CEE34FFF56B90E1C67416F0E56B13E1
:100A1F001313541FA3F0E56CAE6B7805C333CE33BD
:100A2F00CED8F98E6B441FF56C90E1C8E56BF0A33F
:100A3F00E56CF07F447D047AE17BC6D21E121C3731
:100A4F00E4F5687582E07583E075F002E568121FC2
:100A5F00C2E0FEA3E0FFE56825E024D0F582E43490
:100A6F00E1F583E0FCA3E0FD1216380568E568C3E5
:100A7F00940E40CF3008177F7A7E02E4FDFC1216E9
:100A8F00387F6F7E027DFF7C0012163880031205BF
:100A9F008612161C201612301C1AE56964016014A8
:100AAF00301D11E56A6401600B7F067E007D011227
:100ABF001755800C7F067E007D0912175512159869
:100ACF0030080C7F08121707EF60047D0180027D4C
:100ADF00007F7C7E02121755E4F56875827075836E
:100AEF00E175F002E568121FC2E0FEA3E0FF3008D7
:100AFF001575827A7583E175F002E568121FC2E001
:100B0F00FCA3E0FD80137582847583E175F002E527
:100B1F0068121FC2E0FCA3E0FD1216380568E568F5
:050B2F00C3940540B66F
:010B3400229E
:100B35007F0B7DFF7B801217404309107F02AD09B3
:040B450012172A2237
:100B49005309EF7F02AD0912172A7F0B121707EF1E
:100B5900545FF5687F0BFD12172A7F0BE568444047
:0B0B6900FD12172A7F0BAD6812172A3F
:010B7400225E
:0F0B750090E6047480F00000EFF00000E4F0223E
:0C0B84008E5C8F5D8C5E8D5F8A608B61E3
:100B9000E4F562F563C3E563955FE562955E400346
:100BA000020EC4756700756600756500756400E522
:100BB0005D855CF0121FCE0CD000040C9700080C71
:100BC000B3000C0CDA00100CD0019C0CCA01A00C74
:100BD000E002200CEC04A00CF204A40D0404A80D07
:100BE0002204AC0CEC04F00D3004F40D7304F80D89
:100BF0007904FC0CE605000D5305040D7305080D82
:100C000085050C0CE605100D5B05140D7305180D1C
:100C100085051C0CE605200D6305240D7305280DC4
:100C200085052C0CE605300D6B05340D7305380D6C
:100C300085053C0CEC05400CEC05500CE605600C01
:100C4000E605700CE605800CE605900CEC05A00CA2
:100C5000EC06100CEC06700D8E06740D94067C0DDF
:100C60009A10000DA910040DC110080DB2100C0D42
:100C7000D010100DEF10140DFD10180E11101C0ED9
:100C80001610400E3010480E46104C0E4E10500EEE
:100C9000794FF800000E7CE58030E103436780E582
:100CA000AA20E603436740201903020E7C43672015
:100CB000020E7C75660B7567C77F011217078F657B
:100CC000E4FF1217078F64020E7C75670C020E7C1E
:100CD00090E680E020E703020E7C756701020E7C3F
:100CE000756704020E7C301603020E7C7564800268
:100CF0000E7CAE48AD47AC468549678E668D658CE7
:040D000064020E7CFF
:100D0400854268AF68120565E4FCFD7B40FAF9F89A
:0B0D1400121F1F8F678E668D658C64B8
:100D1F00020E7C12051B8F678E668D658C64020E2A
:100D2F007C852466852567E566131313541FF565C7
:100D3F00E567AE667805C333CE33CED8F9F5678E47
:100D4F0066020E7C85326685336780DB8536668565
:100D5F00376780D385386685396780CB852A668566
:100D6F002B6780C3756610020E7C75667D75670CE8
:100D7F00756501020E7C75663E756750020E7C85A7
:100D8F004367020E7C756703020E7C75677075668C
:100D9F0005756510756404020E7C7567047565082A
:100DAF00020E7C852866852967854A64854B650216
:100DBF000E7C854E66854F67855064855165020EA2
:100DCF007C30160E3012047F0580027F008F670281
:100DDF000E7C3012047F0C80027F088F67020E7C1E
:100DEF003016047F0580027F0C8F67020E7C8534DE
:100DFF0067853565301403756601301570756401AC
:100E0F00806B75670480661214568E648F65E56576
:100E1F00AE647805CEC313CE13D8F9F5678E66800E
:100E2F004C121456EFA842088005CEC313CE13D828
:100E3F00F9F5678E668036756706E4F527802E1202
:100E4F001456C374049527FDEFA805088005CEC37B
:100E5F0013CE13D8F9F5658E64E564C313F566E513
:100E6F006513F5670527052780037567018561827F
:100E7F00856083E567F0A3E566F085618285608311
:100E8F00A3A3E565F0856182856083A3A3A3E564D1
:100E9F00F074042561F561E43560F5607404256331
:100EAF00F563E43562F5627404255DF55DE4355C48
:090EBF00F55C020B95AE62AF6315
:010EC8002207
:0C0EC9008E5C8F5D8C5E8D5F8A608B619B
:100ED500E55F455E7003021454856182856083A3D6
:100EE500A3A3E0F562856182856083A3A3E0F56332
:100EF500856182856083A3E0F56485618285608371
:100F0500E0F565E565AE647805CEC313CE13D8F973
:100F1500F5678E66E56333333354F84266E563C49B
:100F2500135407600674FFF566F567E55D855CF0AB
:100F3500121FCE100700000FC8000810170214106A
:100F45004B02181145022411520228115A04A4110A
:100F55007604F412300504123C05141244052412DB
:100F65004C053411820544122705541254056412A8
:100F75005C057412640584126C0594127405A01244
:100F85009005A412A9061412D5067412F4100812BD
:100F9500E5100C13031010132110181340104813FB
:100FA5007640081367400C1385401013A3401813AF
:100FB500C1500013DF504013DF508013DF50C000D5
:100FC50000142FE565601F90E601E054FC4480F0B5
:100FD500000090E61474E2F0000090E61574A2F0AB
:100FE50012166802142F12168190E61474E0F000B0
:100FF5000090E6157422F0000090E601E0547F446D
:1010050003F07F027D8012172A1204561204B302E0
:10101500142FC20DE56530E71320080B1206AFAF9C
:101025004212065D120B35D20F02142FC20F200893
:1010350003120B49E56530E605D20D02142F7F0238
:10104500120B7502142F200868E56530E263120B58
:1010550049300F0BE490E690F0000090E691F0D255
:101065000843094090E6027460F01206AFAF4312E0
:10107500065D7FEB7E00E4FD1217557F197D041296
:10108500172A3011097F217D3F7B401217407418C4
:101095007E01A843088005C333CE33CED8F9FF12AD
:1010A5001D32120B35C289D2A8D210C20EC209C296
:1010B5000A7F0B1217078F64300820E56530E102BF
:1010C500D20CC20B5364FEE56530E008200C0343E7
:1010D5006401D20B7F0BAD6412172A20080302149A
:1010E5002FE56530E20302142FC20CC2A8C20E7FA1
:1010F5000BE56454EEFD12172AC208120B49530979
:101105009F90E6027440F07F193011047D10800233
:101115007D0012172A7F217D3FE4FB1217407FEBEC
:101125007E007D011217557F06120B751206AF2042
:101135000F0302142FAF4212065D120B3502142F56
:1011450090E65F7440F090E65EF002142FE490E6BE
:101155005EF002142FAF65AE64AD63AC628F498E4D
:10116500488D478C4630080302142F120586021459
:101175002F85662485672512161C02142F74057E9B
:1011850000A843088005C333CE33CED8F9FFEE332C
:1011950095E0FDFCF8F9AA06AB07AF65AE64AD6353
:1011A500AC62121F1F7B8F7A0079007800121E94A3
:1011B5008F658E648D638C627FCE7E047D007C009E
:1011C500AB65AA64A963A862C3121FB1500C75650B
:1011D500CE756404756300756200C3E56594CEF54C
:1011E50065E5649404F564E5639400F563E562944C
:1011F50000F5627F08AD6212172A7F09AD631217E9
:101205002A7F0AAD6412172A20080302142F7F7C57
:101215007E02E56260047D0180027D0012175502A1
:10122500142F85662C85672D02117C8566328567AE
:101235003312159802142F85663685673780F28537
:10124500663885673980EA85662A85672B80E28559
:10125500663A85673B80DA85663E85673F80D2853D
:10126500664085674180CA85663085673180C27F63
:101275000B121707EF4402F562E56430E70353628A
:10128500FD7F0BAD6212172A02142FAE64AF657C89
:10129500007D2B121E3F8E648F657F15AD6512177D
:1012A5002A02142FAF65AE64AD63AC627B067A008B
:1012B50079007800121E948F658E648D638C627F31
:1012C5002BAD6312172A7F2CAD6412172A02142F37
:1012D500E565D39403400375650385654302142FC3
:1012E50085642885652985624A85634B02142F85A7
:1012F500644E85654F85625085635102142FC21275
:1013050075624CE565640C6005E565B405057562B7
:101315004DD21290E618E562F002142F856534E58A
:101325006430E003D38001C39214856335E56230F0
:10133500E003D38001C3921502142F1214568E6256
:101345008F63E4F542D3E5639565E56295645003E3
:1013550002142F0542E562C313F562E56313F563D5
:1013650080E385642E85652F85624C85634D021467
:101375002F85645285655385625485635502142F04
:10138500C21375624CE565640C6005E565B4050539
:10139500D21375624D90E61AE562F002142F856549
:1013A5003CE56430E003D38001C3921785633DE5D6
:1013B5006230E003D38001C39218806EE55F64401C
:1013C500455E60167F14121707EF54DFFD7F141278
:1013D500172A755E00755F048050E55D048561829E
:1013E500856083F07F467D40AB61AA60D21E121CEA
:1013F50037856182856083E55DF0A3E565F07F460D
:101405007D02AB61AA60D21E121C37E55DB4C00E29
:101415007F14121707EF4420FD7F1412172A74C496
:10142500255FF55F74FF355EF55E74042561F56132
:10143500E43560F56074FC255FF55F74FF355EF596
:101445005E7404255DF55DE4355CF55C020ED5D36F
:011455002274
:10145600E535FD7C00AE4AAF4B121E3FAB07AA0630
:10146600E534FD7C00AE28AF29121E3F8E6B8F6CD3
:10147600EB2430F56AE43AF5693012047F05800200
:101486007F04EBAE02A807088005C333CE33CED85F
:10149600F9FFE4FCFDF8F9AA06AB07AE6BAF6C12D8
:1014A6001E94C004C005C006C007AE69AF6AE4FC5E
:1014B600FDF8F9AA06AB07D007D006D005D004126E
:0214C6001F1FE6
:0114C8002201
:1014C900AD07AC06ED4C70047E01FF22EDAE047849
:0C14D90005C333CE33CED8F94408FF22FF
:0414E500AD07AC069D
:1014E900EDC4F8540FC868FDECC454F048FCC3942B
:1014F900105010757408757500E4F572F573FA7B70
:101509001A8040ECC39428501275741075750075D3
:10151900720075734D7A007B3C8028ECC39450505F
:10152900127574287575007572007573B37A007B2E
:101539008480107574507575007572017573007A21
:10154900017B26C3ED9575FFEC9574FEAC02AD03E6
:0B155900121E3FE5732FFFE5723EFEFF
:011564002264
:101565001214E5E4FCFD7B3B7A02F9F8121E947B2C
:10157500007A0179007800121F1FEF24ECFFE43E8A
:02158500FE2244
:101587001214E57C007D6A121E2BEE6420543FFF87
:011597002231
:10159800E4F571E52630E003757102300806AE30D7
:1015A800AF318004AE2AAF2B121587AD07C374097B
:1015B8009571FFE49400FE121755300806AE40AF4F
:1015C800418004AE38AF39121587AD07C3740A9548
:1015D80071FFE49400FE121755300806AE3EAF3F87
:1015E8008004AE36AF37121587AD07E5712407FFC3
:1015F800E433FE121755300806AE3AAF3B8004AE0E
:1016080032AF33121587AD07E5712408FFE433FEC6
:0316180012175551
:01161B0022AC
:10161C00300806AE2CAF2D8004AE24AF2512156514
:0C162C00AC06AD077F027E0012163822CB
:101638008E758F768C778D78E578543FFD12175527
:10164800E578AE777806CEC313CE13D8F9F5788E41
:1016580077E5762401FFE43575FEAD78121755223B
:10166800C281E5B254DF4454F5B2C286C282C28454
:06167800756807D568FD4E
:03167E00D28422F1
:10168100D286C286D286C286D286C286D286C286D9
:10169100D286C286D286C286D286C286D286C286C9
:1016A100D286C286D286C286308502D21953B2ABA7
:0316B100D28122C1
:1016B400EF1FAC0670011E4C604890E67BE0F520FD
:1016C400A2009282D286C286A2019282D286C28669
:1016D400A2029282D286C286A2039282D286C28655
:1016E400A2049282D286C286A2059282D286C28641
:1016F400A2069282D286C286A2079282D286C2862D
:0317040080AE2292
:1017070090E1CAEFF07F447D017AE17BCAC21E12E5
:101717001C377F447D017AE17BCA121C2D90E1CAF8
:02172700E0FFE1
:01172900229D
:10172A0090E1CBEFF0A3EDF07F447D027AE17BCB31
:05173A00D21E121C3755
:01173F002287
:101740008F688D698B6A121707E5695F456AFDAF7F
:051750006812172A22B7
:041755008E798F7A80
:10175900E57A7806C333CE33CED8F9F57A8E799007
:10176900E1CD740CF0A3E579F0E57A4DA3F07F445F
:0B1779007D037AE17BCDD21E121C37ED
:011784002242
:10178500C21A90E68274C4F0120056121AED750D55
:10179500E0750E007515E0751612750BE0750C1CDD
:1017A5007513E075145C7517E075186E85130F8554
:1017B5001410850B11850C1290E680E030E70C853E
:1017C5000B0F850C10851311851412D2E890E6686D
:1017D500E0440BF090E65CE04439F0D2AF12004EE5
:1017E5001200AA90E680E0440AF07FDC7E05121D17
:1017F5003290E65D74FFF090E65FF05391EF90E66E
:1018050080E054F7F0538EF8C21B301A0512182DDC
:10181500C21A301B0D1200195008C21B121D0D12E1
:08182500002C12010180E322F6
:10182D0090E6B9E070030218FE14700302196424E7
:10183D00FE70030219E824FB70030218F8147003FC
:10184D000218F21470030218E61470030218EC2447
:10185D00056003021A3D1200314003021A4990E659
:10186D00BBE024FE602C14604724FD60161460312B
:10187D002406705BE50D90E6B3F0E50E90E6B4F04E
:10188D00021A49E51590E6B3F0E51690E6B4F002BC
:10189D001A49E50F90E6B3F0E51090E6B4F0021AA0
:1018AD0049E51190E6B3F0E51290E6B4F0021A495D
:1018BD0090E6BAE0FF121D73AA06A9077B01EA495B
:1018CD00600DEE90E6B3F0EF90E6B4F0021A499099
:1018DD00E6A0E04401F0021A491201AB021A4912C6
:1018ED000036021A49120187021A49120199021A89
:1018FD0049E490E740F0A3F090E6B8E02480603F23
:10190D0014603C14704790E6BCE0547EFF7E00E00E
:10191D00D3948040067C007D0180047C007D00EC2A
:10192D004EFEED4F248EF582EE34E1F583E024A1D9
:10193D00FFE434E68F82F583E0540190E740F0E454
:10194D0090E68AF090E68B7402F0021A4990E6A0B8
:10195D00E04401F0021A4990E6B8E024FE601C2430
:10196D00026003021A4990E6BAE064027003021A9B
:10197D004990E6A0E04401F0021A4990E6BAE07001
:10198D005190E6BCE0547EFF7E00E0D3948040068B
:10199D007C007D0180047C007D00EC4EFEED4F242B
:1019AD008EF582EE34E1F583E024A1FFE434E68F79
:1019BD0082F583E054FEF090E6BCE05480FF1313F3
:1019CD0013541FFFE0540F2F90E683F0E04420F0F6
:1019DD00806A90E6A0E04401F0806190E6B8E024D2
:1019ED00FE60152402705590E6BAE06402604D90D9
:1019FD00E6A0E04401F0804490E6BCE0547EFF7E1A
:101A0D0000E0D3948040067C007D0180047C007D45
:101A1D0000EC4EFEED4F248EF582EE34E1F583E0C1
:101A2D0024A1FFE434E68F82F583E04401F0800CBD
:101A3D001201BD500790E6A0E04401F090E6A0E051
:031A4D004480F0E2
:011A50002273
:03003300021A515D
:041A510053D8EF3245
:10E00000120100020000004054539A000000010277
:10E0100003010A060002000000400100090240005E
:10E0200001010080FA0904000000FF00000009045B
:10E03000000101FF000000070508020002010904B9
:10E04000000203FF0000000705820200020107052D
:10E050008602000201070581030100040902120083
:10E0600001010080FA0904000000FF000000040321
:10E07000090412034C0075006D0065006E00650018
:10E08000720061000C034C00750031003300300059
:10E0900012033100320033003400350036003700FF
:10E0A00038000000006500660071007200A200A345
:10E0B0000170017101720175026F0270009300948A
:10E0C0000095009601D001D101D401DA01DE01DF13
:10E0D00001E001E401E501E601EA01EB00A900AA83
:10E0E000017301760067006900EE00D200D501845B
:10E0F00001AA0113013400F200C300C50C000300A3
:10E1000002000C000002390304003F3F000202003D
:10E1100002013D032E062F1B3E1B00002801002894
:10E12000010028023805220A341F032001010401DE
:10E13000010401011D013E0901040FFF01040FFE4E
:10E14000010500040104080308030001000A080394
:10E1500002930803000D0215000D02150216000DB2
:10E160000215080308030000000A080302930803CD
:10E170000224022A02300236013D000000000000A5
:10E1800000000FFE000F002F002F004F0052000173
:0AE1900002020303040405053FF832
:03004300021B009D
:03005300021B008D
:101B00000203210002034F00020339000203A00078
:101B1000020365000203B80002003E0002003F001D
:101B200002004000020041000200420002004600A4
:0F1B300002004700020048000203F500020423F0
:101A550090E670E04401F0C2A8C2B8D288C28922DB
:03000300021A6579
:031A6500D20E326C
:101A68008C5C8D5DEE706AEF24FC601C24FD603593
:101A780024FB604E240C7059AF5DAD5C7AE77B4067
:101A8800121C2DAF5C7E0022AF5D7D017AE67BBB28
:101A9800D21E121C37AF5D7D017AE77B40121C2DE8
:051AA8007E007F012219
:101AAD007F031217078F5EE55EC4540F90E741F078
:0D1ABD00E55E540F90E740F07E007F0222AE
:101ACA00E490E740F0A3F0A3F0A3F0FE7F04227EA7
:041ADA00007F002267
:041B3F008C5C8D5DD0
:101B430090E740E0F55EEE6003021BCEEF24FA60FF
:101B53001E14602624FE602B24FA605B240F706B36
:101B6300AF5DAD5C7AE77B40D21E121C37D322AF48
:101B73005DAE5CAD5E121755D3227F03AD5E1217C7
:101B83002AD322E55EF430E303D38001C392117FAD
:101B9300197DEF3011072008047B1080027B0012AF
:101BA30017407F217D3F3011073008047B408002BE
:101BB3007B00121740D322430901E55E30E0035353
:0C1BC30009FE7F02AD0912172AD322C3CD
:011BCF0022F3
:0F1ADE00E4F8F9121F1F8F058E048B078A06226A
:0B1AED00E4F51C90E67A04F0D2E92238
:101BD000A90790E678E020E6F9E51C701F90E6780A
:101BE000E04480F0E925E090E679F08D198A1A8BBF
:0E1BF0001B751C01A21FE433F51DD322C32276
:101BFE00A90790E678E020E6F9E51C6005E51CB43F
:101C0E000A1B90E678E04480F0E925E0440190E676
:0F1C1E0079F08D198A1A8B1B751C03D322C322F0
:0A1C2D00121BFEAF1CEF70FBD32268
:101C3700A21E921F121BD0AF1CEF24F66004240AC9
:041C470070F5D3223F
:03004B00021C4B49
:101C4B00C0E0C083C082C0D0C004C005C006C007BE
:101C5B00AF1CEF24FE605014602E24FE7003021C98
:101C6B00E824046003021CF9051BE51BAE1A700285
:101C7B00051A14F5828E83E090E679F01519AF19E9
:101C8B00EF706B751C05806690E679E0AC1AAD1BA6
:101C9B008D828C83F0751C02E5196401705090E6FF
:101CAB0078E04420F08047E519B4020790E678E02D
:101CBB004420F0AF191519EFB4010A90E678E0440F
:101CCB0040F0E4F51C90E679E0FF051BE51BAC1A30
:101CDB007002051A14F5828C83EFF08011751C0AC3
:101CEB00E51D600A90E678E04440F0E4F51C539162
:101CFB00DFD007D006D005D004D0D0D082D083D08F
:021D0B00E032C4
:101D0D0090E682E044C0F090E681F0438701000048
:041D1D0000000022A0
:101D32008E688F6990E600E05418700DE568C31351
:101D4200F568E56913F569801590E600E05418FF1F
:101D5200BF100BE56925E0F569E56833F568E569CB
:101D62001569AE68700215684E6005121D2180EE7D
:011D7200224E
:021D7300A907BE
:101D7500AE17AF188F828E83A3E064037017AD0191
:101D850019ED7001228F828E83E07C002FFDEC3EE1
:091D9500FEAF0580DF7E007F0037
:011D9E002222
:101D21007400F58690FDA57C05A3E582458370F9D5
:011D3100228F
:03000000021D9F3F
:0C1D9F00787FE4F6D8FD75817A021DE61D
:101E2B00EFF88DF0A4FFEDC5F0CEA42EFEEC88F0FC
:041E3B00A42EFE22B1
:101E3F00BC000BBE0029EF8DF084FFADF022E4CC87
:101E4F00F875F008EF2FFFEE33FEEC33FCEE9DEC50
:101E5F00984005FCEE9DFE0FD5F0E9E4CEFD22ED96
:101E6F00F8F5F0EE8420D21CFEADF075F008EF2FE0
:101E7F00FFED33FD4007985006D5F0F222C398FDD1
:051E8F000FD5F0EA226E
:101E9400E88FF0A4CC8BF0A42CFCE98EF0A42CFCED
:101EA4008AF0EDA42CFCEA8EF0A4CDA8F08BF0A46B
:101EB4002DCC3825F0FDE98FF0A42CCD35F0FCEBCA
:101EC4008EF0A4FEA9F0EB8FF0A4CFC5F02ECD398F
:0F1ED400FEE43CFCEAA42DCE35F0FDE43CFC22FC
:101EE30075F008758200EF2FFFEE33FECD33CDCCB6
:101EF30033CCC58233C5829BED9AEC99E582984039
:101F03000CF582EE9BFEED9AFDEC99FC0FD5F0D615
:101F1300E4CEFBE4CDFAE4CCF9A88222B800C1B93F
:101F23000059BA002DEC8BF084CFCECDFCE5F0CB7D
:101F3300F97818EF2FFFEE33FEED33FDEC33FCEBB6
:101F430033FB10D703994004EB99FB0FD8E5E4F971
:101F5300FA227818EF2FFFEE33FEED33FDEC33FC5E
:101F6300C933C910D7059BE99A4007EC9BFCE99A52
:101F7300F90FD8E0E4C9FAE4CCFB2275F010EF2F97
:101F8300FFEE33FEED33FDCC33CCC833C810D70797
:101F93009BEC9AE899400AED9BFDEC9AFCE899F8D2
:0E1FA3000FD5F0DAE4CDFBE4CCFAE4C8F92265
:101FB100EB9FF5F0EA9E42F0E99D42F0E89C45F086
:011FC10022FD
:0C1FC200A42582F582E5F03583F583222A
:101FCE00D083D082F8E4937012740193700DA3A3A2
:101FDE0093F8740193F5828883E473740293B5F0D9
:0D1FEE00067403936860E9A3A3A3A380D841
:101DAB00021785E493A3F8E493A34003F68001F2B2
:101DBB0008DFF48029E493A3F85407240CC8C33339
:101DCB00C4540F4420C8834004F456800146F6DF08
:101DDB00E4800B0102040810204080900447E47E4D
:101DEB00019360BCA3FF543F30E509541FFEE493FD
:101DFB00A360010ECF54C025E060A840B8E493A3C4
:101E0B00FAE493A3F8E493A3C8C582C8CAC583CAEE
:101E1B00F0A3C8C582C8CAC583CADFE9DEE780BEA6
:0104550000A6
:00000001FF
