:0C2F6E00011E00011B00C119C11AC11B8B
:102A7A0075B208C283E490E600F090E6107420F084
:102A8A0090E61174B0F090E61274E0F090E61374D8
:102A9A0020F090E61474E2F090E61574A2F000902B
:102AAA00E69D7480F000F00090E6097420F000437F
:0A2ABA00AF01122F90C289D2A822AA
:1028D0007AE17B98C2207D027F51122E237AE17B20
:1028E000DC7D047F51122E97E4FFEFC394047480C3
:1028F0009480503B74DC2FF582E434E1F583E0FEF4
:10290000C4540F2430FDEF25E025E02492F582E445
:1029100034E0F583EDF0EE540F2430FDEF25E02593
:0F292000E02494F582E434E0F583EDF00F80BB02
:01292F002285
:101B6E00E5AA20E62990E69CE0F55590E69DE0F585
:101B7E0056455560137AFC790074FCF59A7400F59D
:101B8E009BAF56AE5512298D90E69D7480F0301A9B
:101B9E000FE5AA30E00AE490E690F00090E691F0AE
:101BAE00201B03021D20C21B301507D21DD21602A8
:101BBE001D20AF1D051DD3EF940274809480500339
:101BCE00021D20E4F51D7F10122DDF8F577F11129D
:101BDE002DDF8F587F12122DDF8F597F13122DDFBD
:101BEE008F5A300A21AB57AD58AF31AE301227F9AC
:101BFE008E308F31AB5AAD59AF2CAE2B1227F98EDA
:101C0E002B8F2C122784201003021D20AF57AD58A6
:101C1E00EF2DFFE433FEAD597C00EF2DFFEC3EFEC1
:101C2E00AD5AEF2DF556EC3EF555FEE5567803C34D
:101C3E0033CE33CED8F9240CF556E43EF555AF42EB
:101C4E007E00AC4FAD501218ECE4FB7A08F9F81296
:101C5E0017CFEF240CFFE43E8F82F583E546240474
:101C6E00F55AE43545F559E43544F558E43543F570
:101C7E0057E47F02FEFDFCAB5AAA59A958A8571289
:101C8E001744A804A905AA06AB07AF82AE83E4FCED
:101C9E00FD121744C006C007E5562582FFE55535EF
:101CAE0083AB07FAE4F9F8D007D0061217CF8F5A94
:101CBE008E598D588C57E47F04FEFDFCAB5AAA5901
:101CCE00A958A857C31218615003755A04C3E55A90
:101CDE009404F55AE5599400F559E5589400F558D1
:101CEE00E5579400F5571229E08F468E458D448CAA
:101CFE0043AB5AAA59A958A857C31218615010AF2E
:101D0E005AAE59AD58AC578F468E458D448C431202
:101D1E001EBE301609E5AC30E104C217C2163019EA
:101D2E0025301D227F0B122DDF8F56E5564410FDF8
:101D3E007F0B122E82301803435601AD567F0B12C5
:061D4E002E82C219C21D25
:011D5400226C
:0427F9008E5B8F5C08
:1027FD00E55C7805CEC313CE13D8F9F55EEDC45460
:10280D000FF55DEDD39B4023ED9BD3955D401CE50E
:10281D005E255CF55CE4355BF55BD3E55C94F2E538
:10282D005B94014006755B01755CF2EDC39B502511
:10283D00C3EB9DD3955D401DE55C955EF55CE55B59
:10284D009400F55BC3E55C9480E55B9400500675E0
:09285D005B00755C80AE5BAF5CB2
:01286600224F
:102F360075B208C283E490E600F090E6017480F072
:032F4600C2142290
:092FC300E51E6003122F36D32233
:0E2FA000D28343B202D28190E6007412F02276
:092FCC00E51E6003122FA0D322C0
:102F5C0090E6BAE0F51E6005122FA08003122F3602
:022F6C00D3226E
:101D550090E6BDE0F55790E6BCE0F55890E6BFE0AB
:101D6500F55590E6BEE0F55690E6BBE0F55990E6F0
:101D7500BAE0F55A90E6B9E024ED7003021E6A0454
:101D85006003021EBA90E6B8E030E76EE5564555A9
:101D95007003021EBC85555985565AD3E55A9440A1
:101DA500E55994004006755900755A407AE77B401D
:101DB500AD5AAC59AF58AE571209158E598F5A9076
:101DC500E68AE559F090E68BE55AF00090E6A0E04A
:101DD50020E1F9C3E556955AF556E5559559F5555A
:101DE500E55A2558F558E5593557F557C3E55A9439
:101DF50040E55994005095021EBCE55645557003C3
:101E0500021EBCE490E68AF090E68BF00090E6A016
:101E1500E020E1F9C3E5569440E5559400402C7A5D
:101E2500E77B407D407C00AF58AE5712005640021C
:101E3500D32274C02556F55674FF3555F5557440B3
:101E45002558F558E43557F55780AF7AE77B40AD0F
:101E550056AC55AF58AE571200564002D322E4F5A2
:101E650055F556809590E6B8E030E721AB56AA5572
:101E7500AD5AAC59AF58AE571223F08E558F5690C8
:101E8500E68AE555F090E68BE556F0802AE556455D
:101E9500556011E490E68AF090E68BF00090E6A09C
:101EA500E020E1F9AB56AA55AD5AAC59AF58AE573B
:081EB500122315B322D322C34E
:011EBD002202
:102EB000C0E0C083C082D2225391EF90E65D7401DE
:082EC000F0D082D083D0E03293
:102EE000C0E0C083C0825391EF90E65D7404F0D0DF
:062EF00082D083D0E03225
:102EF600C0E0C083C0825391EF90E65D7402F0D0CB
:062F060082D083D0E0320E
:102A2F00C0E0C083C08285100C85110D850D828595
:102A3F000C83A37402F085080E85090F850F82851C
:102A4F000E83A37407F0C283751E0075B20890E65B
:102A5F0000E4F090E6017480F0C2145391EF90E619
:0B2A6F005D7410F0D082D083D0E03204
:102EC800C0E0C083C082D2235391EF90E65D7408BE
:082ED800F0D082D083D0E0327B
:102B4400C0E0C083C08290E680E030E72085080CB6
:102B540085090D850D82850C83A37402F085100E02
:102B640085110F850F82850E83A37407F05391EFAF
:0D2B740090E65D7420F0D082D083D0E03276
:01003200329B
:01004A003283
:01005100327C
:01005200327B
:012FD50032C9
:012FD60032C8
:012FD70032C7
:012FD80032C6
:102D0C00C0E0C083C0825391EF90E65F7440F02026
:102D1C00171690E6A2E05402700C90E7C07404F011
:0F2D2C0090E68F7401F0D217D082D083D0E032BE
:102DBB00C0E0C083C0825391EF90E65F7480F090C7
:102DCB00E1EEE004F0700690E1EDE004F0D082D08B
:042DDB0083D0E0328F
:1012FD0005C105C00AF504043AC10A4106C1090138
:10130D0009810010004000AF00C5010101400189B5
:10131D0001C00200024002800779078107C0080062
:10132D0009C00A010C410C820CC11900194C19801D
:10133D0019CD1A001A5E1A901AC01B001B411B8092
:10134D001BC21C001C431C801CFF1D3F2341238915
:10135D0023C024222440248124EE2506256F259BBD
:10136D0025C1263F267F26BF26FF2700277F27BFC3
:10137D0027FF283F2841288228C029023AC13B0077
:10138D003B413B9F3BD03C003C413CBE3CDB5B04C6
:10139D005B415B805BC25C0C5C405C805CCD5D0046
:1013AD005D425D9E5DD05E015E7F5EBF5EC05F3F54
:1013BD005F7F5F805FFF603F6040608060C0613E27
:1013CD00615B618161C062026240628062C0630FD5
:1013DD006340638263C16400644064AA64C06502B3
:1013ED006541658065C0662A6640668266C0670095
:1013FD006740678467C16A006A406ABE6ADB6B0139
:10140D006B406B856BC06C006C406C8F6CC06D0558
:10141D006D416D806DC06E2A6E406E856EC16F0020
:10142D006F406FAA6FC070057040708070C07104FE
:10143D007141738073C0743E745B748074C07500A9
:10144D007540758075C076297640768076C17700B7
:10145D00774077A877C178007841788078C079286F
:10146D007941798079C07A007A407AA87AC27D0074
:10147D007D407D837DE07E007E407E807EC07F004E
:10148D007F407FA97FC080008041808080C08128FF
:10149D008141818081C18200824082A882C1830006
:1014AD008340838083C084288442868086C08725BC
:1014BD008742878187C088068840888088C0890FC9
:1014CD008940898689C18A008A408AAF8AC08B0685
:1014DD008B418B808BC08C2F8C408C868CC08D006B
:1014ED008D408D8F8DC19441948194C095249541EB
:1014FD00994099809A009A409BF99C0390003D0178
:10150D003D413D803DC03E033E7F3EBF3EE43F0634
:10151D003F413F803FC140014040408C40C1413F71
:10152D00417F419841C242044240428142C1430041
:10153D004350438143FF443F4460448244C04500CF
:10154D004541458145C0462B464846BF46FF472B82
:10155D004748478147C048014841488048FF493FB7
:10156D00497F49BF49C14A004A414A804AC14B019E
:10157D004B404B904BC14C3F4C7F4CA04CC24D1738
:10158D004D404D814DD94E004E434E814EFF4F3F44
:10159D004F524F814FC050002940298029E72A0022
:1015AD002A782A852AC02B002B402B802BC02C009B
:1015BD002C402C802CE82D002D792D852DC02E0052
:1015CD002E7F2EBF2EFF2F3F2F402FBF2FFF303FDF
:1015DD00307F308030CD3106317D319B31C0323F8F
:1015ED00327F32BF32FF3300337F33BF33FF343F9F
:1015FD003440348D34C03501355E359035C0363FBD
:10160D00367F368036C1373B375B378137E0382040
:10161D003846388638C03900394139BB39CB3A01A3
:10162D003A603ABA9C419C929CC29D029D439DBEDC
:10163D009DFF9E3E9E7F9E819EC09F009F409F80EE
:10164D009FC1A007A042A080A0C0A100A140A18081
:06165D00060106C0300486
:042F7A00C114C113AA
:032D3B00122867F4
:102D3E0090E1DC7430F0E4A3F07AE17BDCC2207D1C
:102D4E00027F51122E237AE17BDC7D047F51122EFD
:0B2D5E009790E1DEE064027002D213E7
:012D69002247
:10286700752905752A70754704754810E4F54BF509
:102877004CF54DF54E7546D07545FB754401F5434E
:10288700752501F526C20AC210754298F5307531D3
:10289700AD752B01752C5CF536753780F5347535BC
:1028A70080C20990E618744CF0E4F53EC20D75320B
:1028B70001C20E753301753F01D20CC208752F0F87
:0928C700C21BC215C21CF51C2243
:102016007F647E00122AC4431C02AD1C7F02122E6E
:10202600827F02122DDFEF30E303D38001C3920FCC
:10203600E4F567F568C3E5689464E567940350358D
:1020460074FD2568F58274123567F583E493FD7F88
:102056000C122E8274FE2568F58274123567F5839C
:10206600E493FD7F0D122E8274022568F568E4352F
:1020760067F56780C07D807FB4122E827D017F0365
:10208600122E827D027F0B122E827D037F05122E79
:10209600827D107F21122E827F147E00122AC43088
:0220A6001371B4
:1020A8007A167B61D2207D027F51122E23E4F569D6
:1020B800C3E5699410748094805056AD697F2F12DF
:1020C8002E82E4F5687AE17BDD7D047F51122E973C
:1020D80090E1DCE568F07AE17BDCD2207D057F4584
:1020E800122E2374042568F56864FC701CE5696485
:1020F80006701690E1DC7424F0E4A3F07AE17BDC4E
:10210800D2207D027F51122E23E56870B8056980C0
:012118009F27
:10211900120E177F021200367F0612003690E63043
:102129007419F090E63174F4F090E6347419F09073
:0F213900E63574F4F090E6027440F0C289D2A843
:012148002274
:10255B00AF337E00D3EF940174809480402A300E09
:10256B001F754002754116EF6403700675400175C7
:10257B004166EF64044E703A75400175410E80322E
:10258B00754001754105802AE54E54077E046004B1
:10259B007F8880027F90C3EF9548FFEE9547FEEF53
:1025AB007803CEC313CE13D8F92548F541E5473E42
:1025BB00F540D3E53E9403748094804028E53E2497
:1025CB00FDFFAE40E541A807088005C333CE33CEEF
:1025DB00D8F9F5418E40D394FEE540940F40067533
:0625EB00400F7541FE22C5
:1029E00012255B853E68D3E568940374809480402B
:1029F00003756803AF68A80774F8088002C313D88A
:102A0000FCF568D3E533940174809480AE40AF4107
:102A100040067C457D8080047C3C7DA01218ECC083
:0E2A200007AF68AB07E4FAF9F8D0071217CF3A
:012A2E002285
:102BBA00121663D39403748094804005740312162A
:102BCA00A9121663FFF87405088002C333D8FC12F1
:102BDA0016A9D3E53394017480948040057E087F5A
:072BEA0003227E067FFE229C
:101EBE0090E1E57422F085467785457685447585F3
:101ECE004374853E737B007A007973122BBA8E7839
:101EDE008F7912255BE47F8FFEFDFCAB77AA76A986
:101EEE0075A874121744C007AF73AB07E4FAF9F87C
:101EFE00D0071217CF8F778E768D758C74E578C3D9
:101F0E0013FEE57913FFEF2577FFEE3576FEE43508
:101F1E0075FDE43574FCC006C007AE78AF79AB072B
:101F2E00AA06E4F9F8D007D0061217CF8F778E766F
:101F3E008D758C74AB41AA40122BF18F778E768DF6
:101F4E00758C74C3E5419577F577E5409576F57612
:101F5E00E575457460087576007577018017C3E5E1
:101F6E00779541E5769540400CE54124FFF577E500
:101F7E004034FFF576AD77AC767F7A7E02122C4533
:101F8E00857674857775C3E5759403E57494005072
:101F9E000675740075750374FD2575F57574FF353A
:101FAE0074F5747875E690E1E6F018E6A3F0A37484
:101FBE00D8F0E4A3F07AE17BE5D2207D057F4412D0
:101FCE002E23C3E5419577F577E5409576F576E4D2
:101FDE00F574F575AE78AF79FCFDAB77AA76A97579
:101FEE00A874121744A804A905AA06AB07AF73E498
:101FFE00FCFDFE121744E47B8FFAF9F81217CF8F0F
:07200E00468E458D448C4312
:0120150022A8
:102B05008E738F748C758D768B77AF771577EF60B5
:102B15002DE574FF2402F574E573FE3400F5738F1B
:102B2500828E83E0FEA3E0FF0576E576AC75700244
:0F2B3500057514F5828C83E0FD122B8B80CC226A
:102C74008E738F748C758D76AF031BEF602405768D
:102C8400E576AE757002057514F5828E83E0FF0556
:102C940074E574AC737002057314F5828C83EFF0E1
:032CA40080D622B5
:102930007D457C0175670E7568A0EF70087DC775D1
:10294000670E756823EFC454F04403F569C3EF9430
:10295000037480948040037569437FE17E00122CEC
:1029600045AD68AC677FE97E00122C457F05122DCE
:10297000DFEF540C4569FD7F05122E82E4FD7F29AF
:0D298000FE122B8B7D017F297E00022B8B28
:100E1700E4F51D85326BA20D921E85336CA20E92EE
:100E27001F30150E85386BA211921E85396CA212E0
:100E3700921F30131C300C19E4F56EE56C640170D9
:100E470009E56B64017003756E80AD6E7F3B122EF2
:100E5700827EE07FA4E56C64016003301F067CE0BE
:100E67007DFC80047CE17D083015047B0A80027BD1
:100E77000C122B057EE07FBCE56C640170067CE1FB
:100E87007D1480047CE17D267B12122B05756A0296
:100E9700D3E56C9401748094804009E4F56A301FAF
:100EA70003756A03AD6A7F6F7E01122B8B7F141265
:100EB7002DDFEF5420F56A201E0BE56B64047005E7
:100EC700436A048005E56B14426A200F03301E0352
:100ED700436A40AD6A7F14122E82D3E56C94017485
:100EE7008094805003020F9DE4F527E56CFD7C009C
:100EF7007F087E01122C457EE17FC0301F067CE112
:100F07007D5480047CE17D387B1C122C74301F6576
:100F1700AF6C7E00EF6403702590E1C204F0A37408
:100F270065F090E1C67401F0A37465F0A37401F055
:100F3700A37466F090E1CC7401F0A37465F0EF64DC
:100F4700044E702590E1C204F0A3740DF090E1C641
:100F57007401F0A3740DF0A37401F0A3740EF09064
:100F6700E1CC7401F0A3740DF030150990E1D4E4DD
:100F7700F0A3E56CF0756A20AF6C7E00EF64027039
:100F870003756A41EF64034E7003756A2B75710828
:100F97007572030210CC854D71854E7285476D853C
:100FA700486E30150C85537185547285496D854A95
:100FB7006E5372F8E4F56AE57245716003756A026B
:100FC700E56A2572F572E43571F571FD7F3E122EE3
:100FD70082AD727F3F122E82C3E572956AF572E584
:100FE700719400F571AF72FE122F0C8E6F8F70C364
:100FF70074209572F57274049571F57190E1D2E4DD
:10100700F0A3EFF0856F27740C256FF56F256AFF46
:10101700E433FE90E1C4F0A3EFF0AD6F7C0090E104
:10102700C0ECF0A3EDF090E1CAEEF0A3EFF0C3E55A
:1010370072956EF572E571956DF571E56E2DFFECA4
:10104700356DFEAD6AEF2DF570EC3EF56F90E1C2A0
:10105700F0A3E570F090E1C6E56FF0A3E570F090BE
:10106700E1CCE56FF0A3E570F0C39DF570E56F9CEB
:10107700F56FAF72AE71122F0C8E718F72E57125FD
:1010870070F570E4356FF56FE570240190E1C9F0F4
:10109700E4356F90E1C8F0AE6DE56E7803CEC3130B
:1010A700CE13D8F9F56A30150DE54AB41008E549AD
:1010B700B4040375720190E1D4E4F0A3E572F0750E
:1010C70071067572FEAD6A7F04122E82AD717F06BE
:1010D700122E82AD727F07122E8290E1C8E0F54092
:1010E700A3E0F541201547D3E53E9403748094802F
:1010F700403CE53E24FDFFAE40E541A807088005DA
:10110700C333CE33CED8F9F5418E4090E1D4E4F025
:10111700A304F0D3E54194FEE540940F40067540E3
:101127000F7541FE90E1C8E540F0A3E541F090E17D
:10113700CEE571F0A3E572F0A3E571F0A3E572F0D7
:1011470090E1D6E571F0A3E572F0E56A75F008A4C1
:10115700FFC3E5419FFD7F1A122E82854B6F854C99
:101167007085296D852A6E30150C85516F855270F3
:10117700852D6D852E6EAD6F7F3C122E82AD707FF3
:101187003D122E82E56C64017024748D2570F57014
:101197007401356FF56F90E1D8F0A3E570F0256E17
:1011A700F570E56D356FF56FA3F0A3E570F0AA6DE7
:1011B700AB6EE56B75F004A4FDACF0AF03AE0212A5
:1011C70016EF8E6D8F6EAF6A7E00AC6DAD6E121628
:1011D700DDEF24FFF56EEE34FFF56DF54F856E50AC
:1011E70090E1E17416F0E56D131313541FA3F0AEED
:1011F7006DE56E7805C333CE33CED8F98E6D441FB7
:10120700F56E90E1E3E56DF0A3E56EF07AE17BE141
:10121700D2207D047F44122E23E4F56AC3E56A9445
:101227000E74809480502BE56A25E024E0F582E473
:1012370034E0F583E0FEA3E0FFE56A25E024C0F58E
:1012470082E434E1F583E0FCA3E0FD122C45056A56
:1012570080CA301511E4FDFC7F7A7E02122C457D91
:10126700FF122C3F8003121EBE122E44200F123095
:101277001E1AE56B64016014301F11E56C64016090
:101287000B7D017F067E00122B8B800C7D097F066C
:101297007E00122B8B12278430150C7F08122DDF4E
:1012A700EF60047D0180027D007F7C7E02122B8B24
:1012B700E4F56AC3E56A9405748094805037E56A5B
:1012C70025E02470F582E434E1F583E0FEA3E0FF36
:1012D700E56A25E0301509247AF582E434E18007D0
:1012E7002484F582E434E1F583E0FCA3E0FD122CCD
:0512F70045056A80BE00
:0112FC0022CF
:102F49007B807DFB7F0B122F22431C10AD1C7F025F
:032F5900022E82C3
:0A2FB900531CEFAD1C7F02022E82B4
:0D00360090E6047480F000EFF000E4F0228A
:0C0915008E5B8F5C8C5D8D5E8A5F8B605A
:10092100E4F561F562C3E562955EE561955D4003BD
:10093100020E12E4F566F565F564F563E55C855B29
:10094100F01218BF0AAB00040A7100080A8E000CED
:100951000AB500100AAB019C0AA501A00AB8022041
:100961000ABB02800AC404A00AED04A40B1D04A85A
:100971000B3E04AC0AEA04F00B5B04F40B9A04F896
:100981000BA004FC0ACF05000B7A05040B9A05089D
:100991000BAC050C0ACF05100B8205140B9A051838
:1009A1000BAC051C0ACF05200B8A05240B9A0528E0
:1009B1000BAC052C0ACF05300B9205340B9A053888
:1009C1000BAC053C0AEA05400B4605440B52054CAD
:1009D1000AEA05500AE405600AE405700AE40580A4
:1009E1000AE405900BB505A00BC705A40C1405ACD2
:1009F1000AEA06100BEA06140C14061C0AEA064061
:100A01000C2306440C29064C0AEA06700C2F0674C6
:100A11000C35067C0C7B06A00AEA07100C5407145F
:100A21000C6D071C0AE407200C3707B00C3D07B416
:100A31000C9010000C9F10040CB710080CA8100C9F
:100A41000CC610100CFB10140D0910180AB8101C5C
:100A51000D2710400D3D10480D53104C0D5B1050EB
:100A61000D8640080D9440100DC74FF800000DCAC7
:100A7100E58030E103436680E5AA54407003436694
:100A810040201403020DCA436620020DCA75650B8E
:100A91007566D27F01122DDF8F64E4FF122DDF8F87
:100AA10063020DCA75660C020DCA90E680E020E76C
:100AB10003020DCA020DC7020D21E4F56643660269
:100AC100020DCA7563C0201003020DCA800F300FDA
:100AD10003020DCA7563C0200A03020DCA75654081
:100AE100020DCA300F03020DCA020C371229E08F22
:100AF100668E658D648C63AF66AE65AD64AC63ABC9
:100B010046AA45A944A843C31218614003020DCA6D
:0C0B1100AE45AD44AC43854666020C0BBB
:100B1D00853E677B007A007967122BBAAD677C0042
:0E0B2D001218ECE47B8FFAF9F81217CF8F66DE
:100B3B00020C0B1229E08F66020C0B7B007A0079FA
:100B4B0063122232020DCA74FFF566F565020C744E
:100B5B00852565852666E565131313541FF564AE6D
:100B6B0065E5667805C333CE33CED8F9020D4D85D6
:100B7B00306585316680DF85346585356680D78540
:100B8B00366585376680CF852B65852C6680C77566
:100B9B006510020DCA75657D75660C756401020DD5
:100BAB00CA75653E756650020DCA7563807F0B1260
:100BBB002DDFEF30E103020DCA020C8A7F29122DC3
:100BCB00DF8F647F15122DDF8F65AF66AE65AD6469
:100BDB00AC63E47B06FAF9F81217CF8F6680217F9E
:100BEB002B122DDF8F647F2C122DDF8F65AF66AE3E
:100BFB0065AD64AC63E47B06FAF9F81217CF8F6628
:100C0B008E658D648C63020DCA7566807565AA75D9
:100C1B00642A756300020DCA854266020DCA7566A9
:100C2B00FF020DCA853F66020DCA801775638002ED
:100C3B000DCA853E66D3E53E9403748094805003C1
:100C4B00020DCA756603020DCA7F38122DDF8F6540
:100C5B00AE65AF667C007D061216EF8E658F660261
:100C6B000DCAE475668075652AF564F563020DCAD5
:100C7B00201303020DCA756380200C03020DCA7585
:100C8B006580020DCA7566707565057564107563B0
:100C9B0004020DCA756604756408020DCA852965C0
:100CAB00852A66854763854864020DCA854B658531
:100CBB004C66854D63854E64020DCA200F16300DB0
:100CCB0021300E1EE532540164016016E5335401E8
:100CDB006401600E3009047F0580027F008F66027D
:100CEB000DCA3009047F0C80027F088F66020DCA83
:100CFB00300F047F0580027F0C8F66020DCA853290
:100D0B0066853364300D03756501200E03020DCA31
:100D1B00756301020DCA756604020DCA12270B8E8C
:100D2B00638F64AE63E5647805CEC313CE13D8F935
:100D3B00801012270BEFA83E088005CEC313CE13ED
:100D4B00D8F9F5668E658077756606E4F528806FB1
:100D5B0012270BC374049528FDEFA805088005CE58
:100D6B00C313CE13D8F9F5648E63E563C313F5652E
:100D7B00E56413F566052805288044855165855281
:100D8B00668553638554648036200F16301120E539
:100D9B0038540164016018301215E53954016401AF
:100DAB00600D300B047F0580027F008F6680103052
:100DBB000B047F0C80027F088F66800375660185AC
:100DCB006082855F83E566F0A3E565F085608285CB
:100DDB005F83A3A3E564F0856082855F83A3A3A3F0
:100DEB00E563F074042560F560E4355FF55F74042A
:100DFB002562F562E43561F5617404255CF55CE40C
:0B0E0B00355BF55B020926AE61AF62AB
:010E160022B9
:0C0056008E5B8F5C8C5D8D5E8A5F8B6022
:10006200E55E455D7003020913856082855F83A3A7
:10007200A3A3E0F561856082855F83A3A3E0F562B7
:10008200856082855F83A3E0F563856082855F83F7
:10009200E0F564AE63E5647805CEC313CE13D8F9F8
:1000A200F5668E65E56233333354F84265E562C422
:1000B200135407600674FFF565F566E55C855BF031
:1000C2001218BF01C300000181000801D30214020B
:1000D20009021803130224031B0228032304A003AA
:1000E2003204A4036704F4048B0500049A05040493
:1000F2008B051004A60514048B052004AE05240408
:100102008B053004B6053403730544048105540499
:10011200BE056404C2057404CA058404D2059404AD
:10012200DB05A004F505A405260614054D064405C5
:1001320053067405B806A005900714057407240534
:10014200F9100805EA100C06081010062610180609
:10015200471048066D106006E4400806D5400C06BC
:10016200F34010071440180735406007A8500008F4
:100172009C5040089C5080089C50C0000008EEE54E
:1001820064602490E601E054FC4480F00090E614A0
:1001920074E2F00090E61574A2F07F807E00122ACD
:1001A200C4122E020208EE122CA790E61474E0F09C
:1001B2000090E6157422F00090E601E0547F4403BB
:1001C200F07D807F02122E8212286712201602080A
:1001D200EEC21AE5645480601320150B120E17AF9D
:1001E2003E122930122F49D21C0208EEC21C2015E1
:1001F20003122FB9E56454406005D21A0208EE7F5B
:10020200021200360208EE201562E56430E25D1249
:100212002FB9301C0AE490E690F00090E691F0D2FB
:1002220015431C4090E6027460F0120E17AF3F12A5
:100232002930E4FD7FEBFE122B8B7D047F19122EF9
:10024200823008097B407D3F7F21122F227E01747C
:1002520018A83F088005C333CE33CED8F9FF122A3F
:10026200C4122F49D21DC21BC216C2177F0B122DF8
:10027200DF8F63301520E56430E102D219C21853D2
:1002820063FEE56430E008201903436301D218AD30
:10029200637F0B122E822015030208EEE5645404DC
:1002A20060030208EEC219C21BE56354EEFD7F0B28
:1002B200122E82C215122FB9531C9F90E60274406F
:1002C200F03008047D1080027D007F19122E82E436
:1002D200FB7D3F7F21122F227D017FEB7E00122BBF
:1002E2008B7F061200367D927F72122C417DC27C7A
:1002F200007F747E02122C457DF9122C3F120E17DC
:10030200201C030208EEAF3E122930122F490208C8
:10031200EE90E65F7440F08001E490E65EF0020841
:10032200EEE56354406003D38001C392100208EEED
:100332001229E08F468E458D448C43AB64AA63A993
:1003420062A861C31218615010AF64AE63AD62ACB3
:10035200618F468E458D448C433015030208EE12A0
:100362001EBE0208EE856525856626122E44020809
:10037200EEE56160667E05E4A83F088005C333CEE2
:1003820033CED8F9FBAA06EA3395E0F9F8AF64AEAA
:1003920063AD62AC611217CFE47B8FFAF9F81217E2
:1003A200448F648E638D628C61AD617F28122E82D0
:1003B200AD627F08122E82AD637F09122E82AD6478
:1003C2007F0A122E822015030208EEE56245616063
:1003D200057D010204777D00020477E4FD7F281287
:1003E2002E827E007405A83F088005C333CE33CE2B
:1003F200D8F9FBAA06EA3395E0F9F8AF64AE63AD2B
:1004020062AC611217CFE47B8FFAF9F81217448FAE
:10041200648E638D628C61E47FCE7E04FDFCAB64EE
:10042200AA63A962A861C3121861500BE47564CE75
:10043200756304F562F561C3E56494CEF564E56322
:100442009404F563E5629400F562E5619400F56158
:10045200AD617F08122E82AD627F09122E82AD63DA
:100462007F0A122E822015030208EEE56160047DE8
:100472000180027D007F7C7E02122B8B0208EE78C7
:1004820080A66508A66602036DE56354406003D347
:100492008001C3920A0208EE856530856631122713
:1004A200840208EE85653485663580F28565368579
:1004B200663780EA85652B85662C80E27884801217
:1004C20085653A85663B80D685653C85663D80CEEE
:1004D2007882A66508A66680C57F0B122DDFEF44E1
:1004E20002F561E563548060035361FDAD617F0BEA
:1004F2000205E4AF64AE63AD62AC61E47B06FAF977
:10050200F81217448F648E638D628C61E561600618
:100512007562FF7563FFAD627F29122E82AD637F24
:10052200150205E4AF64AE63AD62AC61E47B06FA2A
:10053200F9F81217448F648E638D628C61AD627F0D
:100542002B122E82AD637F2C0205E48564420208E1
:10055200EEAF64D3EF940374809480400375640318
:100562008564667B007A00796112223285663F02D9
:100572000373E5645409F52FE56430E103432F0466
:10058200E56420E2030208EE432F020208EEAF64A4
:10059200AE63AD62AC61E47B06FAF9F81217448FE0
:1005A200648E638D628C61E562456160037563FFF1
:1005B200AD637F38802CE56354806003D38001C330
:1005C200920CE5322533F562301506E5382539F50A
:1005D20062AF62EF640260030208EEE5635480FDDD
:1005E2007F3B122E820208EE85632985642A85618B
:1005F200478562480208EE85634B85644C85614DF0
:1006020085624E0208EEC20975614CAF64EF640C5C
:100612006007AF64EF6405700575614DD20990E61D
:100622001802070E856432E56354016003D380012A
:10063200C3920D856233E56154016003D38001C327
:10064200920E0208EE12270B8E618F62E4F53ED302
:10065200E5629564E561956350030208EE053EE5A7
:100662006113F561E56213F56280E4C3E54E940718
:10067200E54D9400400AE54E54F82402F54E8003FD
:10068200E4F54EE533FD7C00C3940274809480400F
:100692001AE53375F008A42548FFE54735F0FEEF6B
:1006A20064207003EE64046002C322ED64024C60B5
:1006B20006E53364037005200E02C322AF32EF64F5
:1006C200026008EF640360030208EE300D030208C3
:1006D200EEC32285632D85642E85614985624A02B7
:1006E20008EE856351856452856153856254020820
:1006F200EEC20B75614CAF64EF640C6007AF64EF40
:1007020064057005D20B75614D90E61AE561F00241
:1007120008EE856438E56354016003D38001C39217
:1007220011856239E56154016003D38001C39212DD
:100732000208EEC3E5549407E5539400400AE554D9
:1007420054F82402F5548003E4F554E539FD7C00A5
:10075200C3940274809480401AE53975F008A42588
:100762004AFFE54935F0FEEF64207003EE64046051
:1007720002C322ED64024C6006E539640370052071
:100782001202C322AF38EF64026005EF6403700502
:10079200201102C322E539640460030208EE30121C
:1007A200030208EEC3227F2E122DDF8F63E4F56170
:1007B200F562AF62C3EF9404748094805046AF62D6
:1007C200A807E52F088002C313D8FC20E020E562C9
:1007D20025E0FFF8E563088002C313D8FC5403FF49
:1007E200F87401088002C333D8FC42618012E562CA
:1007F20025E0FFF87403088002C333D8FCF4526387
:10080200056280AEE4F562E56130E013756201E5F0
:100812006130E10B756202E56130E203756203E467
:10082200F561AF61C3EF9404748094805025AF6189
:10083200A807E52F088002C313D8FC30E011E56158
:1008420025E0FFF8E562088002C333D8FC42630565
:100852006180CFAD637F2E122E827F2D122DDFEFAE
:10086200540FF563AF62A8077410088002C333D82F
:10087200FC122E7DE55E6440455D601EAF62A807F6
:100882007401088002C333D8FCF45563FD7F2D1236
:100892002E82755D00755E048052E55C048560827F
:1008A200855F83F0D220AB60AA5F7D407F46122E27
:1008B20023856082855F83E55CF0A3E564F0D22046
:1008C200AB60AA5F7D027F46122E23E55C64C07096
:1008D2000F7F2D122DDF8F63E563C4540F122E7D1F
:1008E20074C4255EF55E74FF355DF55D74042560A4
:1008F200F560E4355FF55F74FC255EF55E74FF35E7
:100902005DF55D7404255CF55CE4355BF55B020026
:0209120062D3AE
:0109140022C0
:10270B00E533FD7C00AE47AF481216EFAB07AA06C8
:10271B00E532FD7C00AE29AF2A1216EFAD07AC06F1
:10272B00E54E54077E0460047F8880027F90C3EFE0
:10273B009BFFEE9AFEEF7803CEC313CE13D8F92B83
:10274B00FFEE3A8F82F5833009047F0580027F0408
:10275B00AE02EBA807088005C333CE33CED8F9FF02
:10276B001218ECC006C007AE83AF82AB07AA06E413
:09277B00F9F8D007D0060217CFCF
:102F0C00EF4E70047E01FF22EF7805C333CE33CE33
:062F1C00D8F94408FF2271
:102232008B688A69896A7F28122DDFAB68AA69A92F
:102242006AEF1216A97F08122DDFAB68AA69A96A84
:10225200900001EF1216BB7F09122DDFAB68AA694D
:10226200A96A900002EF1216BB7F0A122DDFAB683B
:10227200AA69A96A900003EF1216BB121663700FC7
:10228200AB68AA69A96A90000112167CF4702BABA4
:1022920068AA69A96A121885E47B8FFAF9F81217FD
:1022A200CFC004C005C006C0077E05E4A83F088071
:1022B20005C333CE33CED8F9803DAB68AA69A96A8B
:1022C2001218857808121872EF24CEFFEE3404FE3D
:1022D200E43DFDE43CFCE47B8FFAF9F81217CFC031
:1022E20004C005C006C0077E007405A83F0880052B
:1022F200C333CE33CED8F9FFEE3395E0FDFCD003E5
:10230200D002D001D000121744AB68AA69A96A12A0
:0323120018A522E9
:0425F1008E748F75E0
:1025F500E575C4F8540FC868F575E574C454F0481A
:10260500F574FF7E00C39410748094805010757625
:1026150008757700E4F583F582FA7B1A8041C3EFEC
:102625009428EE64809480500F757610757700902D
:10263500004D7A007B3C8027C3EF9450EE64809474
:1026450080500F7576287577009000B37A007B84EB
:10265500800D7576507577009001007A017B26C351
:10266500E5759577FFE5749576FEAD03AC02121618
:09267500EFEF2582FFEE3583FE34
:01267E002239
:102E62001225F17C027D3B1218ECE4FB7A01F9F8A1
:0B2E72001217CFEF24ECFFE43EFE221D
:102F7F001225F17C007D6A1216DDEE6420543FFFAE
:012F8F00221F
:10278400E4F573E52730E0037573023015097882A8
:10279400E6FE08E6FF8004AE2BAF2C122F7F7409EF
:1027A400122B81301506AE3CAF3D8004AE36AF37F8
:1027B400122F7F740A122B81301506AE3AAF3B807C
:1027C40004AE34AF35122F7FAD07E5732407FFE461
:1027D40033FE122B8B3015097884E6FE08E6FF8061
:1027E40004AE30AF31122F7FAD07E5732408FFE448
:0527F40033FE022B8BF7
:102E44003015097880E6FE08E6FF8004AE25AF263B
:0E2E5400122E62AC06AD077F027E00022C45F6
:062C3F007F6F7C007E02A5
:102C45008E7A8F7B8C7C8D7DE57D543FFD122B8BA1
:102C5500AE7CE57D7806CEC313CE13D8F9F57D8E0F
:0F2C65007CE57B2401FFE4357AFEAD7D022B8BED
:102E0200C281E5B254DF4454F5B2C286C282C284A2
:092E12007567071567E56770FAA2
:082E1B00D2847F02FE022AC4EA
:102CA700D286C286D286C286D286C286D286C2869D
:102CB700D286C286D286C286D286C286D286C2868D
:102CC700D286C286D286C286308502D21453B2AB70
:032CD700D2812285
:10298D00EF1FAC0670011E4C604890E67BE0F52011
:10299D00A2009282D286C286A2019282D286C2867D
:1029AD00A2029282D286C286A2039282D286C28669
:1029BD00A2049282D286C286A2059282D286C28655
:1029CD00A2069282D286C286A2079282D286C28641
:0329DD0080AE22A7
:102DDF0090E1E5EFF07AE17BE5C2207D017F4412BF
:102DEF002E237AE17BE57D017F44122E9790E1E55A
:022DFF00E0FFF3
:012E010022AE
:052E7D004563FD7F2DFF
:102E820090E1E5EFF0A3EDF07AE17BE5D2207D025F
:052E92007F44022E2325
:102F22008F678D688B69122DDFE5685F4569FDAF9C
:042F320067022E8282
:0A2B8100AD07C39573FFE49400FE56
:042B8B008E7E8F7F2C
:102B8F00E57F7806C333CE33CED8F9F57F8E7E90AE
:102B9F00E1EA740CF0A3E57EF0E57F4DA3F07AE156
:0B2BAF007BEAD2207D037F44022E232E
:1024B400C22290E68274C4F0122A7A122FAE750AF0
:1024C400E0750B007512E07513127508E075091CB0
:1024D4007510E075115C7514E075156E85100C852A
:1024E400110D85080E85090F90E680E030E70C8514
:1024F400080C85090D85100E85110FD2E890E66849
:10250400E0440BF090E65CE04439F0D2AF122D3B8E
:102514001228D090E680E0440AF07FDC7E05122A7F
:10252400C490E65D74FFF090E65FF05391EF90E69F
:1025340080E054F7F0538EF8C2233022051219714B
:10254400C22230230D122FC35008C223122D96121B
:072554002FCC121B6E80E387
:1019710090E6B9E07003021A2C147003021A9B243A
:10198100FE7003021B1024FB7003021A191470036A
:10199100021A1314606B14607024056003021B5A51
:1019A10090E6BBE024FE602214603324FD60111434
:1019B100602224067048E50A90E6B3F0E50B803713
:1019C100E51290E6B3F0E513802DE50C90E6B3F057
:1019D100E50D8023E50E90E6B3F0E50F801990E662
:1019E100BAE0FF122D6AAA06A9077B01EA494B60FA
:1019F1000DEE90E6B3F0EF90E6B4F0021B66021B29
:101A01005F90E740E51BF0801590E6BAE0F51B0218
:101A11001B66122F5C021B6690E740E51EF0E49006
:101A2100E68AF090E68B04F0021B66E490E740F052
:101A3100A3F090E6B8E02480604114604C14705724
:101A410090E6BCE0D39480748094807E0040047F53
:101A51000180027F0090E6BCE0547EFDEF4D248EB4
:101A6100F58274E13EF583E024A1FFE434E68F8240
:101A7100F583E0540190E740F0800E2087047F0158
:101A810080027F0090E740EFF0E490E68AF090E674
:101A91008B7402F0021B66021B5F90E6B8E024FE25
:101AA100601524026003021B6690E6BAE0640270CE
:101AB10003021B66021B5F90E6BAE0705090E6BC21
:101AC100E0D39480748094807E0040047F01800282
:101AD1007F0090E6BCE0547EFDEF4D248EF58274CC
:101AE100E13EF583E024A1FFE434E68F82F583E053
:101AF10054FEF090E6BCE05480131313541FFFE032
:101B0100540F2F90E683F0E04420F08058804F90EE
:101B1100E6B8E024FE600E2402704A90E6BAE06462
:101B2100026042803990E6BCE0D394807480948056
:101B31007E0040047F0180027F0090E6BCE0547E7D
:101B4100FDEF4D248EF58274E13EF583E024A1FF83
:101B5100E434E68F82F5838008121D55500790E624
:0C1B6100A0E04401F090E6A0E04480F019
:011B6D002255
:0300330002004682
:0400460053D8EF326A
:10E00000120100020000004054539A001000010267
:10E0100003010A060002000000400100090240005E
:10E0200001010080FA0904000000FF00000009045B
:10E03000000101FF000000070508020002010904B9
:10E04000000203FF0000000705820200020107052D
:10E050008602000201070581030100040902120083
:10E0600001010080FA0904000000FF000000040321
:10E07000090412034C0075006D0065006E00650018
:10E08000720061000C034C00750031003300300059
:10E0900012033100320033003400350036003700FF
:10E0A00038000000006500660071007200A200A345
:10E0B0000170017101720175026F0270009300948A
:10E0C0000095009601D001D101D401DA01DE01DF13
:10E0D00001E001E401E501E601EA01EB00A900AA83
:10E0E000017301760067006900EE00D200D501845B
:10E0F00001AA0113013400F200C300C50C000300A3
:10E1000002000C000002390304003F3F000202003D
:10E1100002013D032E062F1B3E1B00002801002894
:10E12000010028023805220A341F032001010401DE
:10E13000010401011D013E0901040FFF01040FFE4E
:10E14000010500040104080308030001000A080394
:10E1500002930803000D0215000D02150216000DB2
:10E160000215080308030000000A080302930803CD
:10E170000224022A02300236013D000000000000A5
:10E1800000000FFE000F002F002F004F0052000173
:0AE1900002020303040405053FF832
:03004300022C008C
:03005300022C007C
:102C0000022EB000022EF600022EE000022EC800B6
:102C1000022A2F00022B44000200320002004A0068
:102C20000200510002005200022FD500022FD600F0
:0F2C3000022FD700022FD800022D0C00022DBB5F
:102F900090E670E04401F0C2A8C2B8D288C289228B
:0300030002004EAA
:03004E00D21B3290
:1023F0008C5B8D5C8A5D8B5EEE60030224B0EF1413
:10240000602624FD605F24FD607824FB70030224B5
:102410009F240C60030224B07AE77B40AD5BAF5C85
:08242000122E97AF5B7E002233
:1024280074E7F59D7440F59E855B5F855C60855D0E
:102438005B855E5CE55E455D601E0560E560AE5FE0
:102448007002055F14F5828E83E090E67CF0E55E0D
:0D245800155E70E0155D80DCAE5BAF5C22B0
:102465007AE67BBBD2207D01AF5C122E237AE77B17
:0D247500407D01AF5C122E977E007F01229A
:102482007F03122DDF8F5FE55FC4540F90E741F0A9
:0D249200E55F540F90E740F07E007F0222CE
:10249F0090E7407401F0E4A3F0A3F0A3F0FE7F04F3
:0524AF0022E4FEFF2203
:0C2315008E5B8F5C8C5D8D5E8A5F8B6040
:1023210090E740E0F561E55B60030223EEE55C14B4
:10233100602824FB605A14606224FE606424FA70F1
:10234100030223DA240F60030223EE7AE77B40D2F3
:0A23510020AD5DAF5E122E23D322F3
:10235B00855D62855E6374E7F59A7440F59BE56075
:10236B00455F602090E67BE0FF0563E563AC627040
:10237B0002056214F5828C83EFF0E560156070DE68
:06238B00155F80DAD32289
:10239100AD61AF5EAE5D122B8BD322AD617F038049
:1023A10047E561F4FFE4F4EF30E303D38001C39226
:1023B100083008072015047B1080027B007DEF7F29
:1023C10019122F223008073015047B4080027B0050
:1023D1007D3F7F21122F22D322431C01E56130E092
:0E23E10003531CFEAD1C7F02122E82D322C3BA
:0123EF0022CB
:0F2BF100E4F8F91217CF8F058E048B078A06229E
:0B2FAE00E4F51990E67A04F0D2E92265
:10000600AC0790E678E020E6F9AE19EE701CE04405
:1000160080F0EC25E090E679F08D168A178B18753E
:0C0026001901A221E433F51AD322C322F1
:102CDA00AC0790E678E020E6F9AE19EE6007AE1987
:102CEA00EE640A701B90E678E04480F0EC25E0443C
:102CFA000190E679F08D168A178B18751903D3227D
:022D0A00C322E2
:102E9700122CDAE51924FA600B146006240770F384
:092EA700D3228000E4F519C322D6
:102E2300A2209221120006E51924FA600F14600A09
:102E330024FD6004240A70EFD3228000E4F519C353
:012E4300226C
:03004B0002214946
:10214900C0E0C083C082C0D075D000C004C005C043
:1021590006C00790E678E030E20675190602221EED
:1021690090E678E020E10DAF19EF64026006751979
:102179000702221EE51924FE605114602E24FE7008
:102189000302220D2404600302221E0518E518AE7D
:10219900177002051714F5828E83E090E679F01521
:1021A90016AF16EF706F751905806A90E679E0AC85
:1021B90017AD188D828C83F0751902AF16EF640183
:1021C900705390E678E04420F0804AAF16EF64023D
:1021D900700790E678E04420F0AF161516EF640119
:1021E900700A90E678E04440F075190090E679E0CD
:1021F900FF0518E518AC177002051714F5828C83D2
:10220900EFF0801175190AE51A600A90E678E04442
:1022190040F07519005391DFD007D006D005D004DE
:09222900D0D0D082D083D0E03285
:102D960090E682E044C0F090E681F04387010000AF
:042DA6000000002207
:102AC4008E6A8F6B90E600E05418700DE56AC313AC
:102AD400F56AE56B13F56B801590E600E05418FF7A
:102AE400BF100BE56B25E0F56BE56A33F56AE56B22
:102AF400156BAE6A7002156A4E6005122DAA80EE3F
:012B040022AE
:022D6A00A907B7
:102D6C00AE14AF158F828E83A3E064037017AD0190
:102D7C0019ED7001228F828E83E07C002FFDEC3EDA
:092D8C00FEAF0580DF7E007F0030
:012D9500221B
:102DAA007400F58690FDA57C05A3E582458370F93C
:012DBA0022F6
:0300000002267F56
:0C267F00787FE4F6D8FD7581850226C640
:10166300BB010689828A83E0225002E722BBFE0285
:09167300E32289828A83E49322B8
:10167C00BB010CE58229F582E5833AF583E0225023
:10168C0006E92582F8E622BBFE06E92582F8E2226D
:0D169C00E58229F582E5833AF583E4932287
:1016A900BB010689828A83F0225002F722BBFE0120
:0216B900F3221A
:1016BB00F8BB010DE58229F582E5833AF583E8F065
:1016CB00225006E92582C8F622BBFE05E92582C811
:0216DB00F222F9
:1016DD00EF8DF0A4A8F0CF8CF0A428CE8DF0A42E21
:0216ED00FE22DB
:1016EF00BC000BBE0029EF8DF084FFADF022E4CCDF
:1016FF00F875F008EF2FFFEE33FEEC33FCEE9DECA8
:10170F00984005FCEE9DFE0FD5F0E9E4CEFD22EDED
:10171F00F8F5F0EE8420D21CFEADF075F008EF2F37
:10172F00FFED33FD4007985006D5F0F222C398FD28
:05173F000FD5F0EA22C5
:10174400E88FF0A4CC8BF0A42CFCE98EF0A42CFC44
:101754008AF0EDA42CFCEA8EF0A4CDA8F08BF0A4C2
:101764002DCC3825F0FDE98FF0A42CCD35F0FCEB21
:101774008EF0A4FEA9F0EB8FF0A4CFC5F02ECD39E6
:0F178400FEE43CFCEAA42DCE35F0FDE43CFC2253
:1017930075F008758200EF2FFFEE33FECD33CDCC0D
:1017A30033CCC58233C5829BED9AEC99E582984090
:1017B3000CF582EE9BFEED9AFDEC99FC0FD5F0D66D
:1017C300E4CEFBE4CDFAE4CCF9A88222B800C1B997
:1017D3000059BA002DEC8BF084CFCECDFCE5F0CBD5
:1017E300F97818EF2FFFEE33FEED33FDEC33FCEB0E
:1017F30033FB10D703994004EB99FB0FD8E5E4F9C9
:10180300FA227818EF2FFFEE33FEED33FDEC33FCB5
:10181300C933C910D7059BE99A4007EC9BFCE99AA9
:10182300F90FD8E0E4C9FAE4CCFB2275F010EF2FEE
:10183300FFEE33FEED33FDCC33CCC833C810D707EE
:101843009BEC9AE899400AED9BFDEC9AFCE899F829
:0E1853000FD5F0DAE4CDFBE4CCFAE4C8F922BC
:10186100EB9FF5F0EA9E42F0E99D42F0E89C45F0DD
:011871002254
:10187200E8600FEFC333FFEE33FEED33FDEC33FCD4
:03188200D8F12278
:10188500BB010789828A830219255005E9F80219E7
:1018950019BBFE05E9F802193189828A8302193DCF
:1018A500BB010789828A830219595005E9F8021993
:0A18B5004DBBFE05E9F8021965229B
:1018BF00D083D082F8E4937012740193700DA3A3B8
:1018CF0093F8740193F5828883E473740293B5F0EF
:0D18DF00067403936860E9A3A3A3A380D857
:1018EC00EC8EF0A4CCC5F0CCCDF8EFA4CEC5F02D89
:1018FC00FDE43CFCE8A42EC8C5F03DFDE43CFCEF47
:0D190C00A4FFE5F028FEE43DFDE43CFC22D4
:10268B000224B4E493A3F8E493A34003F68001F28D
:10269B0008DFF48029E493A3F85407240CC8C33350
:1026AB00C4540F4420C8834004F456800146F6DF1F
:1026BB00E4800B0102040810204080902F6EE47E12
:1026CB00019360BCA3FF543F30E509541FFEE49314
:1026DB00A360010ECF54C025E060A840B8E493A3DB
:1026EB00FAE493A3F8E493A3C8C582C8CAC583CA06
:1026FB00F0A3C8C582C8CAC583CADFE9DEE780BEBE
:012F7E000052
:0C191900E6FC08E6FD08E6FE08E6FF22FA
:0C192500E0FCA3E0FDA3E0FEA3E0FF2235
:0C193100E2FC08E2FD08E2FE08E2FF22F2
:10193D00E493FC740193FD740293FE740393FF22F0
:0C194D00ECF608EDF608EEF608EFF622C6
:0C195900ECF0A3EDF0A3EEF0A3EFF02201
:0C196500ECF208EDF208EEF208EFF222BE
:00000001FF
