:10049100010B00010800C10FC10CC10DC108010908
:0304A10000C10E89
:1000560075B208C283E490E600F090E6107420F0D2
:10006600000000000090E611F0000000000090E69D
:100076001274E0F0000000000090E6137420F00017
:100086000000000090E61474E2F00000000000900A
:10009600E61574A2F0000000000090E69D7480F062
:1000A6000000000000F0000000000090E609742047
:0D00B600F0000000000043AF01121A0D22FF
:1000C30090E1C0743FF0A374F8F07F517D027AE1B0
:1000D3007BC0C21E121ADF7F517D047AE17BC012FE
:1000E3001AD590E1C0E0FFC4540F24307582927595
:1000F30083E0F0EF540F24307582947583E0F09021
:10010300E1C1E0FFC4540F24307582967583E0F09B
:10011300EF540F24307582987583E0F090E1C2E0CC
:10012300FFC4540F243075829A7583E0F0EF540FA7
:10013300243075829C7583E0F090E1C3E0FFC454E2
:100143000F243075829E7583E0F0EF540F243075D1
:0601530082A07583E0F0BC
:010159002283
:10015A00E5AA20E62D90E69CE0F55590E69DE0F5AF
:10016A0056455560177AFC79007EFC7F0074FCF5D1
:10017A009A7400F59BAF56AE5512162690E69D74FA
:10018A0080F0300D13E5AA30E00EE490E690F0001E
:10019A000000000090E691F0300E06D210C20ED296
:1001AA0009300909E5AC30E104C20AC209300C255C
:1001BA003010227F0B1216798F567F0BE5564410AA
:1001CA00FD12169C300B034356017F0BAD561216D7
:0501DA009CC20CC210E4
:0101DF0022FD
:1000060075B208C283E490E600F090E6017480F0D1
:03001600C21822EB
:05001900120006D322D5
:0E001E00D28343B202D28190E6007412F02227
:05002C0012001ED322AA
:02003100D322D8
:1001E00090E6BAE0F50B600512001E8003120006CF
:0201F000D32218
:1001F20090E740E50BF0E490E68AF090E68B04F09D
:02020200D32205
:1002040090E6BAE0D394025005E0F508D322C32265
:1002140090E740E508F0E490E68AF090E68B04F07D
:02022400D322E3
:02003600D322D3
:02003800D322D1
:02003A00D322CF
:1002260090E6BDE0F55790E6BCE0F55890E6BFE0F5
:10023600F55590E6BEE0F55690E6BBE0F55990E63A
:10024600BAE0F55A90E6B9E024ED700302033B04E8
:10025600600302038B90E6B8E030E772E556455539
:10026600700302038D85555985565AD3E55A944035
:10027600E55994004006755900755A40AF58AE5777
:10028600AD5AAC597AE77B40120B378E598F5A908C
:10029600E68AE559F090E68BE55AF000000000008A
:1002A60090E6A0E020E1F9C3E556955AF556E555E6
:1002B6009559F555E55A2558F558E5593557F557E1
:1002C600C3E55A9440E5599400509102038DE556D2
:1002D6004555700302038DE490E68AF090E68BF0B4
:1002E600000000000090E6A0E020E1F9C3E5569486
:1002F60040E55594004028AF58AE577D407C007AC3
:10030600E77B40120DF574C02556F55674FF35553A
:10031600F55574402558F558E43557F55780AFAF75
:1003260058AE57AD56AC557AE77B40120DF5E4F55D
:1003360055F556809990E6B8E030E721AF58AE57AC
:10034600AD5AAC59AB56AA55121A1D8E558F5690FA
:10035600E68AE555F090E68BE556F0802AE55645A7
:10036600556015E490E68AF090E68BF000000000F8
:100376000090E6A0E020E1F9AF58AE57AD5AAC596F
:08038600121B3FB322D322C376
:01038E00224C
:10038F00C0E0C083C082D21A5391EF90E65D740132
:08039F00F0D082D083D0E032DF
:1003A700C0E0C083C0825391EF90E65D7404F0D043
:0603B70082D083D0E03289
:1003BD00C0E0C083C0825391EF90E65D7402F0D02F
:0603CD0082D083D0E03273
:1003D300C0E0C083C0828514108515118511828504
:1003E3001083A37402F0850C12850D138513828587
:1003F3001283A37407F0E4F50BC2835391EF90E6E5
:0B0403005D7410F0D082D083D0E03296
:10040E00C0E0C083C082D21B5391EF90E65D7408AA
:08041E00F0D082D083D0E0325F
:10042600C0E0C083C08290E680E030E720850C10F3
:10043600850D11851182851083A37402F08514122F
:10044600851513851382851283A37407F05391EFE4
:0D04560090E65D7420F0D082D083D0E032BB
:01003C003291
:01003D003290
:01003E00328F
:01003F00328E
:01004000328D
:01004100328C
:01004200328B
:010046003287
:10046300C0E0C083C0825391EF90E65F7440F020F8
:100473000A1590E6A2E020E10C90E7C07404F09026
:0E048300E68F7401F0D20AD082D083D0E0322E
:010047003286
:0204A400C1187D
:04004E001204A722CF
:1004A700752705752870754504754610E4F549F5F7
:1004B7004AF54BF54C75431F7544BD752402F52568
:1004C7007531017532A0752902752A80753701F5D6
:1004D70038753501F536C21190E618744CF0C21321
:0E04E700753301C214753401C219E4F50A22FE
:1004F5007F647E00121CFD4309027F02AD091216BE
:100505009C7F02121679EF30E303D38001C3921565
:100515007F037D0112169C7F0B7D0212169C7F21A5
:100525007D1012169C12066D90E6307419F090E657
:100535003174F0F090E6347409F090E63574F0F01B
:0705450090E6027440F02271
:10054C00E542AE417803C333CE33CED8F9FBAA06CD
:10055C00200814301911FF7C007D03121DF67D0557
:0B056C00121E0AAA06AB07AE02AF0386
:010577002261
:100578008F738E728D718C702008293019267F0533
:100588007E007D007C00AB73AA72A971A870121E50
:100598005F7B037A0079007800121EEA8F738E72EF
:1005A8008D718C70AF73AE72AD71AC707B087A00D0
:1005B80079007800121EEA8F738E728D718C70AB81
:1005C80042AA41121ABB8F738E728D718C70C3E56B
:1005D800429573F573E5419572F572E57145706062
:1005E800067572007573017F7A7E02AD73AC721264
:0305F80015AA221F
:1005FB008E708F718C728D738B74AF741574EF60FA
:10060B002DE571FF2402F571E570FE3400F5708F56
:10061B00828E83E0FEA3E0FF0573E573AC7270027C
:0F062B00057214F5828C83E0FD1216C780CC2275
:10063A008E708F718C728D73AF031BEF60240573FC
:10064A00E573AE727002057214F5828E83E0FF05BF
:10065A0071E571AC707002057014F5828C83EFF04D
:03066A0080D62215
:10066D00853368A213921C853469A214921D30083B
:10067D000E853B68A216921C853C69A217921D7EC1
:10068D00E07FA4E56964016003301D067CE07DFC1C
:10069D0080047CE17D083008047B0A80027B0C120B
:1006AD0005FB7EE07FBCE569B401067CE17D14802D
:1006BD00047CE17D267B121205FB756702E569D38B
:1006CD0094014009E4F567301D037567037F6F7E64
:1006DD0001AD671216C77F14121679EF54B8F5677E
:1006ED00201C0AE568B404054367048005E5681419
:1006FD004267201503301C034367407F14AD67121A
:10070D00169CE569D3940150030207CBE4F5267FCF
:10071D00087E01AD69FC1215AA7EE17FCE301D0861
:10072D007BFF7AE1795480067BFF7AE17938AC0260
:10073D00AD017B1C12063A301D62E569B4032690AB
:10074D00E1D07401F0A37465F090E1D47401F0A3CD
:10075D007465F0A37401F0A37466F090E1DA74018E
:10076D00F0A37465F0E569B4042690E1D07401F04E
:10077D00A3740DF090E1D47401F0A3740DF0A37483
:10078D0001F0A3740EF090E1DA7401F0A3740DF092
:10079D0030080990E1E2E4F0A3E569F0756720E522
:1007AD0069B40203756741E569B4030375672B7579
:1007BD006A08756B03756E08756F030208F4854B37
:1007CD006E854C6F85456A85466B30080C854F6E7E
:1007DD0085506F85476A85486B536FF0E4F567E583
:1007ED006F456E6003756702AF6FAE6E1214458E66
:1007FD006C8F6DC37420956FF56F7404956EF56EE7
:10080D0090E1E0E4F0A3EFF090E1DC7406F0A37466
:10081D00FEF0856C26740C256CF56CAF677E002F91
:10082D00FDE433FC90E1D2F0A3EDF0AB6C7A0090D7
:10083D00E1CEEAF0A3EBF090E1D8ECF0A3EDF0C33C
:10084D00E56F956BF56FE56E956AF56EE56B2BCDE6
:10085D00EA356ACD2FF56DEE3DF56C90E1D0F0A344
:10086D00E56DF090E1D4E56CF0A3E56DF090E1DA83
:10087D00E56CF0A3E56DF0C39FF56DE56C9EF56C31
:10088D00AF6FAE6E1214458E6E8F6FE56E256DF5E2
:10089D006DE4356CF56CE56D240190E1D7F0E43530
:1008AD006C90E1D6F0E56BAE6A7803CEC313CE1330
:1008BD00D8F9F56790E1DE7406F0A374FEF090E1CF
:1008CD00E47406F0A374FEF030080DE548B410088A
:1008DD00E547B40403756F0190E1E2E4F0A3E56F21
:1008ED00F0756E06756FFE7F04AD6712169C7F0660
:1008FD00AD6E12169C7F07AD6F12169C90E1D6E07F
:10090D00FEA3E08E41F542E56775F008A4FFC3E54F
:10091D00429FFD7F1A12169C85496C854A6D85276D
:10092D006A85286B30080C854D6C854E6D852D6A5A
:10093D00852E6BE569B40124748D256DF56D7401FB
:10094D00356CF56C90E1E6F0A3E56DF0256BF56D7A
:10095D00E56A356CF56CA3F0A3E56DF0AA6AAB6B97
:10096D00E56875F004A4FDACF0AF03AE02121E0AEB
:10097D008E6A8F6BAF677E00AC6AAD6B121DF6EFA2
:10098D0024FFF56BEE34FFF56A90E1C47416F0E5C3
:10099D006A131313541FA3F0E56BAE6A7805C333C6
:1009AD00CE33CED8F98E6A441FF56B90E1C6E56A59
:1009BD00F0A3E56BF07F447D047AE17BC4D21E1277
:1009CD001ADFE4F5677582E07583E075F002E5677F
:1009DD00121F8DE0FEA3E0FFE56725E024CEF58232
:1009ED00E434E1F583E0FCA3E0FD1215AA0567E50B
:1009FD0067C3940E40CF3008177F7A7E02E4FDFC6A
:100A0D001215AA7F6F7E027DFF7C001215AA800A47
:100A1D00AE43AF44E4FCFD120578300806AE2BAFB3
:100A2D002C8004AE24AF251214E4AC06AD077F0272
:100A3D007E001215AA2015031215267F7C7E02E476
:100A4D00FD1216C7E4F5677582707583E175F002C6
:100A5D00E567121F8DE0FEA3E0FF30081575827A61
:100A6D007583E175F002E567121F8DE0FCA3E0FDD3
:100A7D0080137582847583E175F002E567121F8D11
:100A8D00E0FCA3E0FD1215AA0567E567C3940540D8
:100A9D00B67F0B1216798F6D756703756A01756BCD
:100AAD004520080C301909756713756A01756BC7F8
:100ABD007F05AD6712169C7FE17E00AD6BAC6A12AF
:100ACD0015AA200806301903436D207F0BAD6D125A
:100ADD00169C7F297E00E4FD1216C77F297E007DBE
:040AED00011216C715
:010AF10022E2
:100AF2007F0B121679EF4480FD7F0B12169C43097F
:090B0200107F02AD0912169C22BD
:100B0B005309EF7F02AD0912169C7F0B121679EF7A
:100B1B00545FF5677F0BFD12169C7F0BE567444016
:0B0B2B00FD12169C7F0BAD6712169C9C
:010B3600229C
:0C0B37008E5B8F5C8C5D8D5E8A5F8B6036
:100B4300E4F561F562C3E562955EE561955D400399
:100B5300020DF0E4F565F566F563F564E55C855B28
:100B6300F0121F990C6C00040C3300080C4F000C9E
:100B73000C6600100C6C019C0C7C02200C8804A0F9
:100B83000C8E04A40CB004AC0C8804F00CB904F46F
:100B93000CE104F80CE704FC0C8205000CC105040D
:100BA3000CE105080CF3050C0C8205100CC90514A7
:100BB3000CE105180CF3051C0C8205200CD105244F
:100BC3000CE105280CF3052C0C8205300CD90534F7
:100BD3000CE105380CF3053C0C8805400C880550E6
:100BE3000C8205600C8205700C8205800C820590D6
:100BF3000C8805A00C8806100CFC10000D0B1004CB
:100C03000D2310080D14100C0D3110100D4110148C
:100C13000D4E10180D62101C0D6710400D82104808
:100C23000DA0104C0D6710500DA54FF800000DA836
:100C3300E58030E103436480E5AA20E60343644092
:100C4300201803020DA8436420020DA875630B75D9
:100C5300642F7F011216798F66E4FF1216798F6570
:100C6300020DA8756401020DA890E680E020E70359
:100C7300020DA8756401020DA8756404020DA83065
:100C83001503020DA8756580020DA885436385448D
:100C930064E563C4540FF566E564C4F8540FC8688B
:100CA300F564E563C454F048F563020DA812054CDE
:100CB3008E638F6480DB85246385256480D38531CF
:100CC3006385326480CB85356385366480C385371D
:100CD3006385386480BB852963852A6480B3756323
:100CE30010020DA875637D75640C756601020DA86D
:100CF30075633E756450020DA87564707563057560
:100D03006610756504020DA8756404756608020D06
:100D1300A8852763852864854565854666020DA8F1
:100D2300854963854A64854B65854C6680772011C8
:100D33000D3015047F0080027F088F6480673015B3
:100D4300047F0580027F0C8F64805A8533643013DF
:100D53000375630185346630144B756501804675F0
:100D6300640480411213CC8E638F647C007D031274
:100D73001E0A7C007D05121DF68E658F6680261285
:100D830013CC8E638F6430191C7C007D03121E0A02
:100D93007C007D05121DF68E638F648008756402E6
:100DA3008003756401856082855F83E564F0A3E554
:100DB30063F0856082855F83A3A3E566F085608227
:100DC300855F83A3A3A3E565F074042560F560E460
:100DD300355FF55F74042562F562E43561F561748E
:100DE30004255CF55CE4355BF55B020B48AE61AF53
:010DF300629D
:010DF40022DC
:0C0DF5008E5B8F5C8C5D8D5E8A5F8B6076
:100E0100E55E455D70030213CB856082855F83A338
:100E1100A3A3E0F561856082855F83A3A3E0F5620A
:100E2100856082855F83A3E0F563856082855F834A
:100E3100E0F564E563C4F854F0C868F565E564C499
:100E4100540F48F566E562C454F04265E562C45446
:100E51000F600674FFF565F566E55C855BF0121FB2
:100E6100990EEE00000EFE00080F4F02140F8E02C5
:100E710018109B022410A8022810B004A410C30467
:100E8100F4118F0504119B051411A7052411B30555
:100E91003410DE0544116E055411BF056411D105EE
:100EA1007411E3058411F50594120705A0122305B9
:100EB100A4123C0614127710081268100C12861046
:100EC1001012A4101812C3104812E9400812DA4097
:100ED1000C12F84010131A401813385000135650D2
:100EE1004013565080135650C0000013A67F027D58
:100EF1008012169C1204A71204F50213A6E5646081
:100F01002590E601E054FC4480F0000000000090D0
:100F1100E61474E2F0000000000090E61574A2F0FF
:100F21001215DA0213A61215F390E61474E0F0001C
:100F31000000000090E6157422F00000000000900F
:100F4100E601E0547F4403F01204F50213A6C20D3A
:100F5100E56430E70E20080612066D120AF2D20F80
:100F61000213A6C20F200803120B0BE56430E6053D
:100F7100D20D0213A690E6047480F0000000000078
:100F81007402F00000000000E4F00213A630081320
:100F9100E564B40303756406E56464017060756417
:100FA10005805BE56430E256120B0B300F0EE490C6
:100FB100E690F0000000000090E691F0D2084309AD
:100FC1004090E6027460F012066D7FEB7E00E4FD56
:100FD1001216C77F197D0412169CE50A30E3097FBA
:100FE100217D3F7B401216B27F967E00121CFD12BE
:100FF1000AF2C289D2A8D210C20EC209C20A7F0B5C
:101001001216798F63300820E56430E102D20CC2F8
:101011000B5363FEE56430E008200C03436301D207
:101021000B7F0BAD6312169C2008030213A6E56427
:1010310030E2030213A6C20CC2A8C20E7F0BE56305
:1010410054EEFD12169CC208120B0B53099F90E639
:10105100027440F07F19E50A30E3047D1080027DBF
:101061000012169C7F217D3FE4FB1216B27FEB7EBE
:10107100007D011216C790E6047480F000000000A4
:10108100007406F00000000000E4F0200F030213DA
:10109100A612066D120AF20213A690E65F7440F0E2
:1010A10090E65EF00213A6E490E65EF00213A685D8
:1010B1006543856644AE43AF44E4FCFD1205780206
:1010C10013A6856524856625AF25AE241214E4ACEC
:1010D10006AD077F027E001215AA0213A67B0A7ACB
:1010E1000079007800AF64AE63AD62AC61121EEAB4
:1010F1007B8F7A0079007800121E5F8F648E638D7A
:10110100628C617FCE7E047D007C00AB64AA63A902
:1011110062A861C3121F7C500C7564CE756304759F
:101121006200756100C3E56494CEF564E5639404DF
:10113100F563E5629400F562E5619400F5617F086D
:10114100AD6112169C7F09AD6212169C7F0AAD63D8
:1011510012169C2008030213A67F7C7E02E56160C3
:10116100047D0180027D001216C70213A685652B3E
:1011710085662C2008030213A6AF2CAE2B1214E4B3
:10118100AC06AD077F027E001215AA0213A6856583
:10119100318566321215260213A6856535856636B8
:1011A1001215260213A685653785663812152602A3
:1011B10013A685652985662A1215260213A685655B
:1011C1003985663A2008030213A61215260213A6D2
:1011D10085653D85663E2008030213A61215260289
:1011E10013A685653F8566402008030213A61215E4
:1011F100260213A685652F8566302008030213A6F3
:101201001215260213A67F0B121679EF4402F5611F
:10121100E56330E7035361FD7F0BAD6112169C025C
:1012210013A6AE63AF647C007D2B121E0A8E638F02
:10123100647F15AD6412169C0213A6AF64AE63AD54
:1012410062AC617B067A0079007800121E5F8F64C0
:101251008E638D628C617F2BAD6212169C7F2CADEB
:101261006312169C0213A685632785642885614550
:101271008562460213A685634985644A85614B856B
:10128100624C0213A6C21175614CE564640C6005E1
:10129100E564B4050575614DD21190E618E561F07C
:1012A1000213A6856433E56330E003D38001C39262
:1012B10013856234E56130E003D38001C3921402E7
:1012C10013A6D2191213CCEF65647003EE65636047
:1012D100030213A6C2190213A685632D85642E8508
:1012E10061478562480213A685634D85644E856119
:1012F1004F8562500213A6E564640C6005E564B491
:101301000503D38001C392123012047F4D80027F06
:101311004C90E61AEFF00213A685643BE56330E0DA
:1013210003D38001C3921685623CE56130E003D3AB
:101331008001C39217806EE55E6440455D60167F53
:1013410014121679EF54DFFD7F1412169C755D009F
:10135100755E048050E55C04856082855F83F07F63
:10136100467D40AB60AA5FD21E121ADF856082857E
:101371005F83E55CF0A3E564F07F467D02AB60AA84
:101381005FD21E121ADFE55CB4C00E7F141216790B
:10139100EF4420FD7F1412169C74C4255EF55E7423
:1013A100FF355DF55D74042560F560E4355FF55F3B
:1013B10074FC255EF55E74FF355DF55D7404255C96
:0A13C100F55CE4355BF55B020E01FC
:0113CB0022FF
:1013CC00E534FD7C00AE45AF46121E0AAB07AA06FB
:1013DC00E533FD7C00AE27AF28121E0A8E698F6A9A
:1013EC00EB2430F568E43AF5673011047F03800292
:1013FC007F04EBAE02A807088005CEC313CE13D82A
:10140C00F9FF7C007D7D121DF6E4FDF8F9AA06AB10
:10141C0007AE69AF6A121E5FC004C005C006C007E4
:10142C00AE67AF68E4FCFDF8F9AA06AB07D007D0AD
:08143C0006D005D004121EEADF
:011444002285
:10144500AD07AC06ED4C70047E01FF22EDAE0478CD
:0F14550005C333CE33CED8F9AC064408FDFF22D1
:04146400AD07AC061E
:10146800ED7803C333CE33CED8F9FDAC06ECC39484
:10147800105010757308757400E4F571F572FA7BF5
:101488001A8040ECC3942850127573107574007557
:10149800710075724D7A007B3C8028ECC3945050E3
:1014A800127573287574007571007572B37A007BB4
:1014B8008480107573507574007571017572007AA7
:1014C800017B26C3ED9574FFEC9573FEAC02AD036A
:0B14D800121E0AE5722FFFE5713EFEB8
:0114E30022E6
:1014E400121464E4FCFD7B3B7A02F9F8121E5F7B64
:1014F400007A0179007800121EEAEF24ECFFE43E42
:02150400FE22C5
:10150600121464E4FCFD7B6AFAF9F8121E5F7B0094
:101516007A0179007800121EEAEF6420543FFF2218
:10152600E4F570E52630E003757002300806AE2F4C
:10153600AF308004AE29AF2A121506AD07C3740971
:101546009570FFE49400FE1216C7300806AE3FAF52
:10155600408004AE37AF38121506AD07C3740A953E
:1015660070FFE49400FE1216C7300806AE3DAF3E8B
:101576008004AE35AF36121506AD07E5702407FFB9
:10158600E433FE1216C7300806AE39AF3A8004AE11
:1015960031AF32121506AD07E5702408FFE433FEBD
:0315A6001216C753
:0115A900221F
:1015AA008E748F758C768D77E577543FFD1216C74A
:1015BA00E577AE767806CEC313CE13D8F9F5778ED3
:1015CA0076E5752401FFE43574FEAD771216C7225D
:1015DA00C281E5B254DF4454F5B2C286C282C284E3
:0615EA00756707D567FDDF
:0315F000D2842280
:1015F300D286C286D286C286D286C286D286C28668
:10160300D286C286D286C286D286C286D286C28657
:10161300D286C286D286C286308502D21853B2AB36
:03162300D281224F
:10162600EF1FAC0670011E4C604890E67BE0F5208B
:10163600A2009282D286C286A2019282D286C286F7
:10164600A2029282D286C286A2039282D286C286E3
:10165600A2049282D286C286A2059282D286C286CF
:10166600A2069282D286C286A2079282D286C286BB
:0316760080AE2221
:1016790090E1C8EFF07F447D017AE17BC8C21E1278
:101689001ADF7F447D017AE17BC8121AD590E1C83F
:02169900E0FF70
:01169B00222C
:10169C0090E1C9EFF0A3EDF07F447D027AE17BC9C4
:0516AC00D21E121ADF3E
:0116B1002216
:1016B2008F678D688B69121679E5685F4569FDAFA2
:0516C2006712169C22D6
:0416C7008E788F7911
:1016CB0090E1CB740CF0E5797802CEC313CE13D82E
:1016DB00F990E1CCF0E579C4333354C04DA3F07FDE
:0C16EB00447D037AE17BCBD21E121ADF93
:0116F70022D0
:0A1A030000010202030304040505BC
:1016F800755400755300755200755100C21BC21A0B
:1017080090E68274C4F0120056121ACA750EE0757B
:101718000F007516E0751712750CE0750D1C751421
:10172800E075155C7518E075196E8514108515112E
:10173800850C12850D1390E680E030E70C850C10BF
:10174800850D11851412851513D2E890E668E044DA
:101758000BF090E65CE04439F0D2AF12004E120074
:10176800C390E680E0440AF07FDC7E05121CFD9001
:10177800E65D74FFF090E65FF05391EF90E680E04D
:1017880054F7F0538EF8C21B301A051217AEC21A5E
:10179800301B0D1200195008C21B121CD812002C45
:0517A80012015A80E36C
:0117AD002219
:1017AE0090E6B9E0700302187F1470030218F62455
:1017BE00FE700302198A24FB700302187914700359
:1017CE0002187314700302186714700302186D2444
:1017DE000560030219EB12003140030219F790E67F
:1017EE00BBE024FE602C14604724FD6016146031AB
:1017FE002406705BE50E90E6B3F0E50F90E6B4F0CC
:10180E000219F7E51690E6B3F0E51790E6B4F0028C
:10181E0019F7E51090E6B3F0E51190E6B4F0021971
:10182E00F7E51290E6B3F0E51390E6B4F00219F77F
:10183E0090E6BAE0FF121D3EAA06A9077B01EA490F
:10184E00600DEE90E6B3F0EF90E6B4F00219F7906B
:10185E00E6A0E04401F00219F71202140219F71281
:10186E0002040219F71201E00219F71201F202192D
:10187E00F712003640030219F7E490E740F090E6C5
:10188E00B8E02480604614604314705290E6BCE0C9
:10189E00547EFF7E00E0D3948040067C007D018064
:1018AE00047C007D00EC4EFEED4F2403F582EE34F9
:1018BE001AF583E493FF3395E0FEEF24A1FFEE3497
:1018CE00E68F82F583E0540190E740F0E490E74123
:1018DE00F090E68AF090E68B7402F00219F790E62B
:1018EE00A0E04401F00219F712003840030219F784
:1018FE0090E6B8E024FE601C240260030219F79003
:10190E00E6BAE0640270030219F790E6A0E0440123
:10191E00F00219F790E6BAE0705990E6BCE0547EFA
:10192E00FF7E00E0D3948040067C007D0180047C25
:10193E00007D00EC4EFEED4F2403F582EE341AF5D9
:10194E0083E493FF3395E0FEEF24A1FFEE34E68FA0
:10195E0082F583E054FEF090E6BCE05480FF131352
:10196E0013541FFFE0540F2F90E683F0E04420F055
:10197E000219F790E6A0E04401F0806D12003A5093
:10198E006890E6B8E024FE60152402705C90E6BA1A
:10199E00E06402605490E6A0E04401F0804B90E6D3
:1019AE00BCE0547EFF7E00E0D3948040067C007D38
:1019BE000180047C007D00EC4EFEED4F2403F58289
:1019CE00EE341AF583E493FF3395E0FEEF24A1FF86
:1019DE00EE34E68F82F583E04401F0800C1202268D
:1019EE00500790E6A0E04401F090E6A0E04480F0BD
:0119FE0022C6
:030033000219FFB0
:0419FF0053D8EF3298
:10E00000120100020000004054539A000000010277
:10E0100003010A060002000000400100090240005E
:10E0200001010080FA0904000000FF00000009045B
:10E03000000101FF000000070508020002010904B9
:10E04000000203FF0000000705820200020107052D
:10E050008602000201070581030100040902120083
:10E0600001010080FA0904000000FF000000040321
:10E07000090412034C0075006D0065006E00650018
:10E08000720061000C034C00750031003300300059
:10E0900012033100320033003400350036003700FF
:10E0A00038000000006500660071007200A200A345
:10E0B0000170017101720175026F0270009300948A
:10E0C0000095009601D001D101D401DA01DE01DF13
:10E0D00001E001E401E501E601EA01EB00A900AA83
:10E0E000017301760067006900EE00D200D501845B
:10E0F00001AA0113013400F200C300C50C000300A3
:10E1000002000C000002390304003F3F000202003D
:10E1100002013D032E062F1B3E1B00002801002894
:10E12000010028023805220A341F032001010401DE
:10E13000010401011D013E0901040FFF01040FFE4E
:10E14000010500040104080308030001000A080394
:10E1500002930803000D0215000D02150216000DB2
:10E160000215080308030000000A080302930803CD
:10E170000224022A02300236013D000000000000A5
:0EE1800000000FFE000F002F002F004F005276
:101A0D0090E670E04401F0C2A8C2B8D288C2892223
:03000300020048B0
:03004800D20E32A3
:03004300021B009D
:03005300021B008D
:101B000002038F000203BD000203A70002040E00BF
:101B10000203D3000204260002003C0002003D0044
:101B200002003E0002003F000200400002004100AF
:0F1B300002004200020046000204630002004768
:101A1D008C5B8D5C8A5D8B5EEE6003021AB6EF24E3
:101A2D00FC601B24FD603A1460542408707BAF5C8D
:0E1A3D00AD5B7AE77B40121AD5AF5B7E0022CC
:101A4B0090E1EAE55BF0AF5C7D017AE17BEAD21EC7
:101A5B00121ADFAF5C7D017AE77B40121AD57E004C
:031A6B007F0122D6
:101A6E007F031216798F5FE55FC4540F90E741F044
:0D1A7E00E55F540F90E740F07E007F0222EC
:101A8B0090E741E55CF0E55B443090E740F07F5137
:101A9B007D027AE77B40C21E121ADF7F51AD5E7A60
:101AAB00E77B40121AD5AE5DAF5E227E007F00222F
:041B3F008C5B8D5CD2
:101B430090E740E0F55DEE7069EF24FA601A1460E7
:101B53002224FE602724097059AF5CAD5B7AE77BD2
:101B630040D21E121ADFD322AF5CAE5BAD5D1216FC
:0C1B7300C7D3227F03AD5D12169CD32265
:101B7F00E55DF4F50A30E303D38001C3921C7F19AE
:101B8F007DEF301C072008047B1080027B001216AB
:101B9F00B27F217D3F301C073008047B4080027BE1
:061BAF00001216B2D32261
:011BB500C36C
:011BB600220C
:0F1ABB00E4F8F9121EEA8F058E048B078A0622C3
:0B1ACA00E4F51D90E67A04F0D2E9225A
:101BB700A90790E678E020E6F9E51D701F90E67822
:101BC700E04480F0E925E090E679F08D1A8A1B8BD6
:0E1BD7001C751D01A21FE433F51ED322C3228C
:101BE500A90790E678E020E6F9E51D6005E51DB456
:101BF5000A1B90E678E04480F0E925E0440190E690
:0F1C050079F08D1A8A1B8B1C751D03D322C32205
:0A1AD500121BE5AF1DEF70FBD322DA
:101ADF00A21E921F121BB7AF1DEF24F66004240A3B
:041AEF0070F5D32299
:03004B00021C1480
:101C1400C0E0C083C082C0D0C004C005C006C007F5
:101C2400AF1DEF24FE605014602E24FE7003021CCE
:101C3400B124046003021CC4051CE51CAE1B700225
:101C4400051B14F5828E83E090E679F0151AAF1A1D
:101C5400EF706D751D05806890E679E0AC1BAD1CD6
:101C64008D828C83F0751D02E51A6401705290E632
:101C740078E04420F08049E51AB4020790E678E061
:101C84004420F0AF1A151AEFB4010A90E678E04444
:101C940040F0E4F51D90E679E0FF051CE51CAC1B63
:101CA4007002051B14F5828C83EFF08013E51E602F
:101CB4000C90E678E04440F0E4F51D8003751D0ABD
:101CC4005391DFD007D006D005D004D0D0D082D035
:041CD40083D0E032A7
:101CD80090E682E044C0F090E681F043870100007E
:041CE80000000022D6
:101CFD008E678F6890E600E05418700DE567C3138A
:101D0D00F567E56813F568801590E600E05418FF57
:101D1D00BF100BE56825E0F568E56733F567E56805
:101D2D001568AE67700215674E6005121CEC80EEEB
:011D3D002283
:021D3E00A907F3
:101D4000AE18AF198F828E83A3E064037017AD01C4
:101D500019ED7001228F828E83E07C002FFDEC3E16
:091D6000FEAF0580DF7E007F006C
:011D69002257
:101CEC007400F58690FDA57C05A3E582458370F90B
:011CFC0022C5
:03000000021D6A74
:0C1D6A00787FE4F6D8FD758179021DB188
:101DF600EFF88DF0A4FFEDC5F0CEA42EFEEC88F032
:041E0600A42EFE22E6
:101E0A00BC000BBE0029EF8DF084FFADF022E4CCBC
:101E1A00F875F008EF2FFFEE33FEEC33FCEE9DEC85
:101E2A00984005FCEE9DFE0FD5F0E9E4CEFD22EDCB
:101E3A00F8F5F0EE8420D21CFEADF075F008EF2F15
:101E4A00FFED33FD4007985006D5F0F222C398FD06
:051E5A000FD5F0EA22A3
:101E5F00E88FF0A4CC8BF0A42CFCE98EF0A42CFC22
:101E6F008AF0EDA42CFCEA8EF0A4CDA8F08BF0A4A0
:101E7F002DCC3825F0FDE98FF0A42CCD35F0FCEBFF
:101E8F008EF0A4FEA9F0EB8FF0A4CFC5F02ECD39C4
:0F1E9F00FEE43CFCEAA42DCE35F0FDE43CFC2231
:101EAE0075F008758200EF2FFFEE33FECD33CDCCEB
:101EBE0033CCC58233C5829BED9AEC99E58298406E
:101ECE000CF582EE9BFEED9AFDEC99FC0FD5F0D64B
:101EDE00E4CEFBE4CDFAE4CCF9A88222B800C1B975
:101EEE000059BA002DEC8BF084CFCECDFCE5F0CBB3
:101EFE00F97818EF2FFFEE33FEED33FDEC33FCEBEC
:101F0E0033FB10D703994004EB99FB0FD8E5E4F9A6
:101F1E00FA227818EF2FFFEE33FEED33FDEC33FC93
:101F2E00C933C910D7059BE99A4007EC9BFCE99A87
:101F3E00F90FD8E0E4C9FAE4CCFB2275F010EF2FCC
:101F4E00FFEE33FEED33FDCC33CCC833C810D707CC
:101F5E009BEC9AE899400AED9BFDEC9AFCE899F807
:0E1F6E000FD5F0DAE4CDFBE4CCFAE4C8F9229A
:101F7C00EB9FF5F0EA9E42F0E99D42F0E89C45F0BB
:011F8C002232
:0C1F8D00A42582F582E5F03583F583225F
:101F9900D083D082F8E4937012740193700DA3A3D7
:101FA90093F8740193F5828883E473740293B5F00E
:0D1FB900067403936860E9A3A3A3A380D876
:101D76000216F8E493A3F8E493A34003F68001F275
:101D860008DFF48029E493A3F85407240CC8C3336E
:101D9600C4540F4420C8834004F456800146F6DF3D
:101DA600E4800B0102040810204080900491E47E38
:101DB600019360BCA3FF543F30E509541FFEE49332
:101DC600A360010ECF54C025E060A840B8E493A3F9
:101DD600FAE493A3F8E493A3C8C582C8CAC583CA24
:101DE600F0A3C8C582C8CAC583CADFE9DEE780BEDC
:0104A6000055
:00000001FF
