:0C1F4B00011D00011B00C10CC10DC10EE6
:101A3B0075B208C283E490E600F090E6107420F0D3
:101A4B0090E61174B0F090E61274E0F090E6137427
:101A5B0020F090E61474E2F090E61574A2F000000A
:101A6B0090E69D7480F00000F0000090E609742071
:091A7B00F0000043AF01021F3B23
:101831007AE17B98C21C7D027F51121DC57AE17B42
:10184100DC7D047F51121E56E4FFEFC394047480C3
:101851009480503B74DC2FF582E434E1F583E0FEA3
:10186100C4540F2430FDEF25E025E02492F582E4F5
:1018710034E0F583EDF0EE540F2430FDEF25E02543
:0F188100E02494F582E434E0F583EDF00F80BBB2
:011890002235
:10157E00E5AA20E62990E69CE0F55690E69DE0F57A
:10158E0057455660137AFC790074FCF59A7400F591
:10159E009BAF57AE5612199E90E69D7480F0300D9B
:1015AE0010E5AA30E00BE490E690F0000090E69192
:1015BE00F0300E09C20E300804D210D209300909DB
:1015CE00E5AC30E104C20AC209300C253010227F8E
:1015DE000B121DA28F57E5574410FD7F0B121EC92B
:1015EE00300B03435701AD577F0B121EC9C20CC2FD
:0115FE0010DC
:0115FF0022C9
:101EF20075B208C283E490E600F090E6017480F0C7
:031F0200C21922DF
:05004600121EF2D3229E
:0E1F7800D28343B202D28190E6007412F022AE
:05004E00121F78D3220F
:101F180090E6BAE0F51D6005121F788003121EF2E4
:021F2800D322C2
:1011700090E6BDE0F55890E6BCE0F55990E6BFE09A
:10118000F55690E6BEE0F55790E6BBE0F55A90E6DE
:10119000BAE0F55B90E6B9E024ED70030212870433
:1011A00060030212D090E6B8E030E76FE55745568D
:1011B00070030212D285565A85575BD3E55B944083
:1011C000E55A94004006755A00755B407AE77B400B
:1011D000AD5BAC5AAF59AE58120A6E8E5A8F5B9007
:1011E000E68AE55AF090E68BE55BF0000090E6A019
:1011F000E020E1F9C3E557955BF557E556955AF5BB
:1012000056E55B2559F559E55A3558F558C3E55B60
:101210009440E55A940050940212D2E55745567016
:10122000030212D2E490E68AF090E68BF000009080
:10123000E6A0E020E1F9C3E5579440E5569400406C
:101240002C7AE77B407D407C00AF59AE58120056A7
:101250004002D32274C02557F55774FF3556F55612
:1012600074402559F559E43558F55880AE7AE77B36
:1012700040AD57AC56AF59AE581200564002D3227B
:10128000E4F556F557809490E6B8E030E71DAD5B85
:10129000AC5AAF59AE5812167A8E568F5790E68ACE
:1012A000E556F090E68BE557F08027E55745566008
:1012B00012E490E68AF090E68BF0000090E6A0E061
:1012C00020E1F9AD5BAC5AAF59AE58121600B3220B
:0312D000D322C363
:0112D30022F8
:101BE800C0E0C083C082D21E5391EF90E65D7401BD
:081BF800F0D082D083D0E0326E
:101E8700C0E0C083C0825391EF90E65D7404F0D048
:061E970082D083D0E0328E
:101E9D00C0E0C083C0825391EF90E65D7402F0D034
:061EAD0082D083D0E03278
:101B4100C0E0C083C08285100C85110D850D828592
:101B51000C83A37402F085080E85090F850F828519
:101B61000E83A37407F0751D00C2835391EF90E6B5
:0B1B71005D7410F0D082D083D0E03211
:101E6F00C0E0C083C082D21F5391EF90E65D74082B
:081E7F00F0D082D083D0E032E4
:101B0400C0E0C083C08290E680E030E72085080C06
:101B140085090D850D82850C83A37402F085100E52
:101B240085110F850F82850E83A37407F05391EFFF
:0D1B340090E65D7420F0D082D083D0E032C6
:01003200329B
:01004100328C
:01004200328B
:011F9000321E
:011F9100321D
:011F9200321C
:011F9300321B
:011F9400321A
:101CA400C0E0C083C0825391EF90E65F7440F0209F
:101CB4000A1690E6A2E05402700C90E7C07404F097
:0F1CC40090E68F7401F0D20AD082D083D0E03244
:101D7E00C0E0C083C0825391EF90E65F7480F09014
:101D8E00E1E4E004F0700690E1E3E004F0D082D0EC
:041D9E0083D0E032DC
:021F5700C119AE
:031F8A00021891A9
:10189100752805752970754A04754B10E4F54EF5E8
:1018A1004FF550F5517549D07548FB754701F5461F
:1018B100752401F525F5327533AD752A01752B5C5B
:1018C100F538753980F536753780C21290E618748F
:1018D1004CF0E4F542C214753401C2157535017539
:0D18E1004301C211C20EC208C20FF51C2245
:1016EF007F647E00121A84431C02AD1C7F02121EFF
:1016FF00C97F02121DA2EF30E303D38001C39216FC
:10170F007D017F03121EC97D027F0B121EC97D034F
:10171F007F05121EC97D107F21121EC97F147E0006
:10172F00121A841205DB7F02121F5A7F06121F5AEC
:10173F0090E6307419F090E63174F0F090E634745E
:0F174F0009F090E63574F0F090E6027440F02255
:1019F100854269D3E56994037480948040037569D5
:101A010003AE44AF45E4FCFDC004C005C006C007F9
:101A1100FE7402A869088005C333CE33CED8F9FF1E
:101A2100EE3395E0FDFCD003D002D001D000120DC1
:0A1A3100FBE47B20FAF9F8020DFB3C
:101DE600EFD394037480948040027F037E0F74A522
:0E1DF600A807088005C333CE33CED8F9FF22EC
:1017CD00AF42121DE6E4FCFDC004C005C006C00713
:1017DD007F40FEAB49AA48A947A846120DFBD0038E
:1017ED00D002D001D000120E868F748E738D728C44
:1017FD0071AB45AA44121F698F748E738D728C71F3
:10180D00C3E5459574F574E5449573F573E5724537
:10181D00716006757300757401AD74AC737F7A7E5B
:04182D0002021CD3C4
:101AC5008E718F728C738D748B75AF751575EF6014
:101AD5002DE572FF2402F572E571FE3400F5718F74
:101AE500828E83E0FEA3E0FF0574E574AC7370029B
:0F1AF500057314F5828C83E0FD121B8680CC22D2
:101BB5008E718F728C738D74AF031BEF6024057467
:101BC500E574AE737002057314F5828E83E0FF052C
:101BD50072E572AC717002057114F5828C83EFF0B9
:031BE50080D62285
:10194A007D457C0175680E7569A0EF70087DC775C5
:10195A00680E756923EFC454F04403F56AC3EF9423
:10196A0003748094804003756A437FE17E00121CF1
:10197A00D3AD69AC687FE97E00121CD3AD6A7F05DE
:10198A00121EC9E4FD7F29FE121B867D017F297E76
:04199A0000021B86A6
:1005DB00853469A214921A85356AA215921B3008CC
:1005EB000E853C69A217921A853D6AA218921B7E52
:1005FB00E07FA4E56A64016003301B067CE07DFCB0
:10060B0080047CE17D083008047B0A80027B0C129D
:10061B001AC57EE07FBCE56A640170067CE17D143F
:10062B0080047CE17D267B12121AC5756802D3E526
:10063B006A9401748094804009E4F568301B03755B
:10064B006803AD687F6F7E01121B867F14121DA29B
:10065B00EF54B8F568201A0BE5696404700543681C
:10066B00048005E569144268201603301A034368B9
:10067B0040AD687F14121EC9D3E56A94017480944F
:10068B0080500302073FE4F526E56AFD7C007F08F6
:10069B007E01121CD37EE17FC0301B067CE17D54B2
:1006AB0080047CE17D387B1C121BB5301B65AF6A67
:1006BB007E00EF6403702590E1C204F0A37465F033
:1006CB0090E1C67401F0A37465F0A37401F0A374F8
:1006DB0066F090E1CC7401F0A37465F0EF64044E06
:1006EB00702590E1C204F0A3740DF090E1C6740183
:1006FB00F0A3740DF0A37401F0A3740EF090E1CC91
:10070B007401F0A3740DF030080990E1D4E4F0A368
:10071B00E56AF0756820AF6A7E00EF6402700375BE
:10072B006841EF64034E700375682B756F08757025
:10073B000302084A85506F855170854A6B854B6C57
:10074B0030080C85546F855570854C6B854D6C53FB
:10075B0070F0E4F568E570456F6003756802AF7083
:10076B00AE6F121EB38E6D8F6EC374209570F570C5
:10077B007404956FF56F90E1D2E4F0A3EFF0856D03
:10078B0026740C256DF56D2568FFE433FE90E1C4EE
:10079B00F0A3EFF0AD6D7C0090E1C0ECF0A3EDF0B9
:1007AB0090E1CAEEF0A3EFF0C3E570956CF570E540
:1007BB006F956BF56FE56C2DFFEC356BFEAD68EF50
:1007CB002DF56EEC3EF56D90E1C2F0A3E56EF09069
:1007DB00E1C6E56DF0A3E56EF090E1CCE56DF0A31D
:1007EB00E56EF0C39DF56EE56D9CF56DAF70AE6F6C
:1007FB00121EB38E6F8F70E56F256EF56EE4356D3F
:10080B00F56DE56E240190E1C9F0E4356D90E1C81A
:10081B00F0AE6BE56C7803CEC313CE13D8F9F56845
:10082B0030080DE54DB41008E54CB40403757001A8
:10083B0090E1D4E4F0A3E570F0756F067570FEAD32
:10084B00687F04121EC9AD6F7F06121EC9AD707F83
:10085B0007121EC990E1C8E0F544A3E0F545200856
:10086B0047D3E542940374809480403CE54224FDD9
:10087B00FFAE44E545A807088005C333CE33CED879
:10088B00F9F5458E4490E1D4E4F0A304F0D3E545AB
:10089B0094FEE544940F400675440F7545FE90E1B8
:1008AB00C8E544F0A3E545F090E1CEE56FF0A3E594
:1008BB0070F0A3E56FF0A3E570F090E1D6E56FF073
:1008CB00A3E570F0E56875F008A4FFC3E5459FFD4F
:1008DB007F1A121EC9854E6D854F6E85286B852933
:1008EB006C30080C85526D85536E852E6B852F6C85
:1008FB00E56A64017024748D256EF56E7401356D97
:10090B00F56D90E1D8F0A3E56EF0256CF56EE56B17
:10091B00356DF56DA3F0A3E56EF0AA6BAB6CE569D5
:10092B0075F004A4FDACF0AF03AE02120DA68E6BF6
:10093B008F6CAF687E00AC6BAD6C120D94EF24FF27
:10094B00F56CEE34FFF56B90E1DC7416F0E56B1390
:10095B001313541FA3F0AE6BE56C7805C333CE3382
:10096B00CED8F98E6B441FF56C90E1DEE56BF0A3EE
:10097B00E56CF07AE17BDCD21C7D047F44121DC553
:10098B00E4F568C3E568940E74809480502BE56899
:10099B0025E024E0F582E434E0F583E0FEA3E0FFFC
:1009AB00E56825E024C0F582E434E1F583E0FCA39F
:1009BB00E0FD121CD3056880CA300817E4FDFC7FEC
:1009CB007A7E02121CD37DFF7C007F6F7E02121C8D
:1009DB00D380031217CD121E3B201612301A1AE5C4
:1009EB006964016014301B11E56A6401600B7D01C1
:1009FB007F067E00121B86800C7D097F067E00120F
:100A0B001B8612175E30080C7F08121DA2EF6004C4
:100A1B007D0180027D007F7C7E02121B86E4F568DF
:100A2B00C3E5689405748094805037E56825E0240D
:100A3B0070F582E434E1F583E0FEA3E0FFE5682581
:100A4B00E0300809247AF582E434E180072484F548
:100A5B0082E434E1F583E0FCA3E0FD121CD30568CE
:020A6B0080BE4B
:010A6D002266
:101F05007B807DFF7F0B121EDE431C10AD1C7F0204
:031F1500021EC9E0
:101D2E00531CEFAD1C7F02121EC97F0B121DA2EFBA
:101D3E00545FF568FD7F0B121EC9E5684440FD7FB8
:0B1D4E000B121EC9AD687F0B021EC9FE
:0F1F5A0090E6047480F00000EFF00000E4F02245
:0C0A6E008E5C8F5D8C5E8D5F8A608B61FA
:100A7A00E4F562F563C3E563955FE562955E40035D
:100A8A00020D8FE4F567F566F565F564E55D855C4D
:100A9A00F0120F290BB800040B7E00080B9B000C08
:100AAA000BC200100BB8019C0BB201A00BC50220AF
:100ABA000BCE04A00BD404A40BDF04A80BF604ACE1
:100ACA000BCE04F00C0404F40C4304F80C4904FCA7
:100ADA000BC805000C2305040C4305080C55050C2E
:100AEA000BC805100C2B05140C4305180C55051CD6
:100AFA000BC805200C3305240C4305280C55052C7E
:100B0A000BC805300C3B05340C4305380C55053C25
:100B1A000BCE05400BCE05500BC805600BC80570FF
:100B2A000BC805800BC805900BCE05A00BCE06108E
:100B3A000BCE06700C5E06740C64067C0C6A100000
:100B4A000C7910040C9110080C82100C0CA01010D7
:100B5A000CBF10140CCC10180BC5101C0CE510405F
:100B6A000CFB10480D11104C0D1910500D444FF884
:100B7A0000000D47E58030E103436780E5AA544051
:100B8A007003436740201903020D47436720020D93
:100B9A004775660B7567D27F01121DA28F65E4FF48
:100BAA00121DA28F64020D4775670C020D4790E66D
:100BBA0080E020E703020D47020D44020CE03016E4
:100BCA0003020D47756480020D47AE48AD47AC4637
:050BDA00854967801C45
:100BDF00854268AF68121DE6E4FCFD7B40FAF9F828
:050BEF00120E868F6765
:100BF40080051219F18F678E668D658C64020D472E
:100C0400852466852567E566131313541FF565AEC1
:100C140066E5677805C333CE33CED8F9020D0B856C
:100C2400326685336780DF85366685376780D7858A
:100C3400386685396780CF852A66852B6780C775B6
:100C44006610020D4775667D75670C756501020DAA
:100C54004775663E756750020D47854367020D4729
:100C6400756703020D4775677075660575651075C0
:100C74006404020D47756704756508020D478528ED
:100C840066852967854A64854B65020D47854E66EE
:100C9400854F67855064855165020D4730160E30C7
:100CA40012047F0580027F008F67020D4730120413
:100CB4007F0C80027F088F67020D473016047F0582
:100CC40080027F0C8F67807B85346785356530149F
:100CD4000375660130156C7564018067756704805F
:100CE400621218EE8E648F65AE64E5657805CEC336
:100CF40013CE13D8F980101218EEEFA8420880051D
:100D0400CEC313CE13D8F9F5678E668036756706A1
:100D1400E4F527802E1218EEC374049527FDEFA87E
:100D240005088005CEC313CE13D8F9F5658E64E5A6
:100D340064C313F566E56513F56705270527800386
:100D4400756701856182856083E567F0A3E566F0D8
:100D5400856182856083A3A3E565F08561828560F2
:100D640083A3A3A3E564F074042561F561E435600D
:100D7400F56074042563F563E43562F56274042553
:0F0D84005DF55DE4355CF55C020A7FAE62AF633E
:010D9300223D
:0C0056008E5C8F5D8C5E8D5F8A608B611C
:10006200E55F455E70030205D9856182856083A3E1
:10007200A3A3E0F562856182856083A3A3E0F563B3
:10008200856182856083A3E0F564856182856083F2
:10009200E0F565AE64E5657805CEC313CE13D8F9F5
:1000A200F5678E66E56333333354F84266E563C41D
:1000B200135407600674FFF566F567E55D855CF02D
:1000C200120F29019400000155000801A402140135
:1000D200DA021802D4022402DC022802E404A40395
:1000E2000004F403B2050403BE051403C605240389
:1000F200CE0534030C054403A9055403D605640355
:10010200DE057403E6058403EE059403F605A004F8
:100112000F05A404240614044E0674047210080485
:1001220063100C04811010049F101804C0104804BE
:10013200F5400804E6400C0504401005254018056A
:100142004550000563504005635080056350C00070
:100152000005B4E565601F90E601E054FC4480F0C0
:10016200000090E61474E2F0000090E61574A2F02C
:10017200121E040205B4121C3F90E61474E0F00053
:100182000090E6157422F0000090E601E0547F44EE
:1001920003F07D807F02121EC91218911216EF021F
:1001A20005B4C20DE5655480601320080B1205DB0F
:1001B200AF4212194A121F05D20F0205B4C20F2014
:1001C2000803121D2EE56554406005D20D0205B4E8
:1001D2007F02121F5A0205B4200867E56530E26209
:1001E200121D2E300F0BE490E690F0000090E69185
:1001F200F0D208431C4090E6027460F01205DBAFB7
:100202004312194AE4FD7FEBFE121B867D047F191F
:10021200121EC93011097B407D3F7F21121EDE7EF6
:10022200017418A843088005C333CE33CED8F9FF32
:10023200121A84121F05C289D2A8D210C20EC20994
:10024200C20A7F0B121DA28F64300820E56530E1DF
:1002520002D20CC20B5364FEE56530E008200C03A9
:10026200436401D20BAD647F0B121EC92008030246
:1002720005B4E565540460030205B4C20CC2A8C209
:100282000EE56454EEFD7F0B121EC9C208121D2E2C
:10029200531C9F90E6027440F03011047D108002DE
:1002A2007D007F19121EC9E4FB7D3F7F21121EDEF5
:1002B2007D017FEB7E00121B867F06121F5A1205FC
:1002C200DB200F030205B4AF4212194A121F0502C6
:1002D20005B490E65F7440F08001E490E65EF002BF
:1002E20005B4AF65AE64AD63AC628F498E488D478D
:1002F2008C463008030205B41217CD0205B4856698
:1003020024856725121E3B0205B47E007405A843AE
:10031200088005C333CE33CED8F9FBAA06EA33955B
:10032200E0F9F8AF65AE64AD63AC62120E86E47BB1
:100332008FFAF9F8120DFB8F658E648D638C62E47F
:100342007FCE7E04FDFCAB65AA64A963A862C312DA
:100352000F18500BE47565CE756404F563F562C33E
:10036200E56594CEF565E5649404F564E56394006F
:10037200F563E5629400F562AD627F08121EC9ADB5
:10038200637F09121EC9AD647F0A121EC9200803C9
:100392000205B4E56260047D0180027D007F7C7EFF
:1003A20002121B860205B485662C85672D020306A0
:1003B20085663285673312175E0205B48566368517
:1003C200673780F285663885673980EA85662A85CF
:1003D200672B80E285663A85673B80DA85663E85D3
:1003E200673F80D285664085674180CA85663085D1
:1003F200673180C27F0B121DA2EF4402F562E564F1
:10040200548060035362FDAD627F0B8039AE64AFEE
:10041200657C007D2B120DA68E648F65AD657F1500
:100422008024AF65AE64AD63AC62E47B06FAF9F892
:10043200120DFB8F658E648D638C62AD637F2B1210
:100442001EC9AD647F2C121EC90205B4AF65D3EF7D
:1004520094037480948040037565038565430205A7
:10046200B485642885652985624A85634B0205B493
:1004720085644E85654F8562508563510205B4C21D
:100482001275624CAF65EF640C6007AF65EF6405EF
:10049200700575624DD21290E61802051F8565340B
:1004A200E56454016003D38001C39214856335E58A
:1004B2006254016003D38001C392150205B412187D
:1004C200EE8E628F63E4F542D3E5639565E562954E
:1004D2006450030205B40542E56213F562E5631355
:1004E200F56380E485642E85652F85624C85634DB6
:1004F2000205B4856452856553856254856355024D
:1005020005B4C21375624CAF65EF640C6007AF654A
:10051200EF64057005D21375624D90E61AE562F03C
:100522000205B485653CE56454016003D38001C3D0
:10053200921785633DE56254016003D38001C39243
:1005420018806FE55F6440455E60167F14121DA23D
:10055200EF54DFFD7F14121EC9755E00755F0480C3
:1005620051E55D04856182856083F0D21CAB61AA8E
:10057200607D407F46121DC5856182856083E55D91
:10058200F0A3E565F0D21CAB61AA607D027F461242
:100592001DC5E55D64C0700E7F14121DA2EF4420DC
:1005A200FD7F14121EC974C4255FF55F74FF355EAA
:1005B200F55E74042561F561E43560F56074FC252F
:1005C2005FF55F74FF355EF55E7404255DF55DE4ED
:0805D200355CF55C020062D308
:0105DA0022FE
:1018EE00E535FD7C00AE4AAF4B120DA6AB07AA063E
:1018FE00E534FD7C00AE28AF29120DA6AD07AC066F
:10190E00EB2482FFE43A8F82F5833012047F058048
:10191E00027F04AE02EBA807088005C333CE33CE98
:10192E00D8F9FF120F56C006C007AE83AF82AB07C1
:0C193E00AA06E4F9F8D007D006020E86D5
:101EB300EF4E70047E01FF22EF7805C333CE33CE9D
:061EC300D8F94408FF22DB
:041464008E728F7382
:10146800E573C4F8540FC868F573E572C454F048BE
:10147800F572FF7E00C394107480948050107574C8
:1014880008757500E4F583F582FA7B1A8041C3EF8D
:101498009428EE64809480500F75741075750090D0
:1014A800004D7A007B3C8027C3EF9450EE64809413
:1014B80080500F7574287575009000B37A007B848E
:1014C800800D7574507575009001007A017B26C3F4
:1014D800E5739575FFE5729574FEAD03AC02120DC8
:0914E800A6EF2582FFEE3583FE1C
:0114F10022D8
:101E20001214647C027D3B120F56E4FB7A01F9F830
:0B1E3000120E86EF24ECFFE43EFE22C1
:101F2A001214647C007D6A120D94EE6420543FFF03
:011F3A002284
:10175E00E4F571E52630E003757102300806AE300F
:10176E00AF318004AE2AAF2B121F2A7409121B7CD4
:10177E00300806AE40AF418004AE38AF39121F2A92
:10178E00740A121B7C300806AE3EAF3F8004AE36A4
:10179E00AF37121F2AAD07E5712407FFE433FE129F
:1017AE001B86300806AE3AAF3B8004AE32AF331222
:0F17BE001F2AAD07E5712408FFE433FE021B86E6
:101E3B00300806AE2CAF2D8004AE24AF25121E2029
:0B1E4B00AC06AD077F027E00021CD336
:101CD3008E758F768C778D78E578543FFD121B8651
:101CE300AE77E5787806CEC313CE13D8F9F5788EA0
:0F1CF30077E5762401FFE43575FEAD78021B8698
:101E0400C281E5B254DF4454F5B2C286C282C284B0
:091E14007568071568E56870FAAD
:031E1D00D284224A
:101C3F00D286C286D286C286D286C286D286C28615
:101C4F00D286C286D286C286D286C286D286C28605
:101C5F00D286C286D286C286308502D21953B2ABE3
:031C6F00D28122FD
:10199E00EF1FAC0670011E4C604890E67BE0F52010
:1019AE00A2009282D286C286A2019282D286C2867C
:1019BE00A2029282D286C286A2039282D286C28668
:1019CE00A2049282D286C286A2059282D286C28654
:1019DE00A2069282D286C286A2079282D286C28640
:0319EE0080AE22A6
:101DA20090E1E0EFF07AE17BE0C21C7D017F44121A
:101DB2001DC57AE17BE07D017F44121E5690E1E071
:021DC200E0FF40
:011DC40022FC
:101EC90090E1E0EFF0A3EDF07AE17BE0D21C7D0236
:051ED9007F44021DC55D
:101EDE008F688D698B6A121DA2E5695F456AFDAF39
:041EEE0068021EC99F
:0A1B7C00AD07C39571FFE49400FE6D
:041B86008E798F7A4B
:101B8A00E57A7806C333CE33CED8F9F57A8E7990D2
:101B9A00E1E0740CF0A3E579F0E57A4DA3F07AE17F
:0B1BAA007BE0D21C7D037F44021DC5C0
:1013BD00C21E90E68274C4F0121A3B120036750AF2
:1013CD00E0750B007512E07513127508E075091CB8
:1013DD007510E075115C7514E075156E85100C8532
:1013ED00110D85080E85090F90E680E030E70C851C
:1013FD00080C85090D85100E85110FD2E890E66851
:10140D00E0440BF090E65CE04439F0D2AF121F8A55
:10141D0012183190E680E0440AF07FDC7E05121A46
:10142D008490E65D74FFF090E65FF05391EF90E6E7
:10143D0080E054F7F0538EF8C21F301E05120F8353
:10144D00C21E301F0D1200465008C21F121D591228
:07145D00004E12157E80E332
:100F830090E6B9E0700302103E14700302109D2432
:100F9300FE700302111224FB700302102B14700362
:100FA30002102514606B1460702405600302115C49
:100FB30090E6BBE024FE602214603324FD6011142C
:100FC300602224067048E50A90E6B3F0E50B80370B
:100FD300E51290E6B3F0E513802DE50C90E6B3F04F
:100FE300E50D8023E50E90E6B3F0E50F801990E65A
:100FF300BAE0FF121D02AA06A9077B01EA494B606A
:101003000DEE90E6B3F0EF90E6B4F0021168021132
:101013006190E740E51BF0801590E6BAE0F51B020E
:101023001168121F1802116890E740E51DF0E49063
:10103300E68AF090E68B04F0021168E490E740F052
:10104300A3F090E6B8E02480603F14603C1470473E
:1010530090E6BCE0D39480748094807E0040047F4B
:101063000180027F0090E6BCE0547EFDEF4D248EAC
:10107300F58274E13EF583E024A1FFE434E68F8238
:10108300F583E0540190E740F0E490E68AF090E6BF
:101093008B7402F002116802116190E6B8E024FE3D
:1010A30060152402600302116890E6BAE0640270DE
:1010B3000302116802116190E6BAE0705090E6BC39
:1010C300E0D39480748094807E0040047F0180028A
:1010D3007F0090E6BCE0547EFDEF4D248EF58274D4
:1010E300E13EF583E024A1FFE434E68F82F583E05B
:1010F30054FEF090E6BCE05480131313541FFFE03A
:10110300540F2F90E683F0E04420F08058804F90F6
:10111300E6B8E024FE600E2402704A90E6BAE0646A
:10112300026042803990E6BCE0D39480748094805E
:101133007E0040047F0180027F0090E6BCE0547E85
:10114300FDEF4D248EF58274E13EF583E024A1FF8B
:10115300E434E68F82F5838008121170500790E61D
:0C116300A0E04401F090E6A0E04480F021
:01116F00225D
:03003300021F8623
:041F860053D8EF320B
:10E00000120100020000004054539A000000010277
:10E0100003010A060002000000400100090240005E
:10E0200001010080FA0904000000FF00000009045B
:10E03000000101FF000000070508020002010904B9
:10E04000000203FF0000000705820200020107052D
:10E050008602000201070581030100040902120083
:10E0600001010080FA0904000000FF000000040321
:10E07000090412034C0075006D0065006E00650018
:10E08000720061000C034C00750031003300300059
:10E0900012033100320033003400350036003700FF
:10E0A00038000000006500660071007200A200A345
:10E0B0000170017101720175026F0270009300948A
:10E0C0000095009601D001D101D401DA01DE01DF13
:10E0D00001E001E401E501E601EA01EB00A900AA83
:10E0E000017301760067006900EE00D200D501845B
:10E0F00001AA0113013400F200C300C50C000300A3
:10E1000002000C000002390304003F3F000202003D
:10E1100002013D032E062F1B3E1B00002801002894
:10E12000010028023805220A341F032001010401DE
:10E13000010401011D013E0901040FFF01040FFE4E
:10E14000010500040104080308030001000A080394
:10E1500002930803000D0215000D02150216000DB2
:10E160000215080308030000000A080302930803CD
:10E170000224022A02300236013D000000000000A5
:10E1800000000FFE000F002F002F004F0052000173
:0AE1900002020303040405053FF832
:03004300021C009C
:03005300021C008C
:101C0000021BE800021E9D00021E8700021E6F00DC
:101C1000021B4100021B04000200320002004100CE
:101C200002004200021F9000021F9100021F92005A
:0F1C3000021F9300021F9400021CA400021D7EDD
:101F3B0090E670E04401F0C2A8C2B8D288C28922F0
:03000300021F8D4C
:031F8D00D20E323F
:10167A008C5C8D5DEE706AEF24FC601C24FD603585
:10168A0024FB604E240C70597AE77B40AD5CAF5D59
:10169A00121E56AF5C7E00227AE67BBBD21C7D010D
:1016AA00AF5D121DC57AE77B407D01AF5D121E5604
:0516BA007E007F01220B
:1016BF007F03121DA28F5EE55EC4540F90E741F0C9
:0D16CF00E55E540F90E740F07E007F0222A0
:1016DC00E490E740F0A3F0A3F0A3F0FE7F0422E433
:0316EC00FEFF22DC
:041600008C5C8D5D14
:1016040090E740E0F55EEE706BEF24FA601A146028
:101614002224FE60272409705B7AE77B40D21CAD4C
:101624005CAF5D121DC5D322AD5EAF5DAE5C121B17
:1016340086D322AD5E7F03121EC9D322E55EF4FF7A
:10164400E4F4EF30E303D38001C392113011072097
:1016540008047B1080027B007DEF7F19121EDE30B0
:1016640011073008047B4080027B007D3F7F2112FC
:051674001EDED322C3BD
:01167900224E
:0F1F6900E4F8F9120E868F058E048B078A062284
:0B003600E4F51990E67A04F0D2E9220C
:10000600AC0790E678E020E6F9AE19EE701CE04405
:1000160080F0EC25E090E679F08D168A178B18753E
:0C0026001901A21DE433F51AD322C322F5
:101C7200AC0790E678E020E6F9AE19EE6007AE19FF
:101C8200EE640A701B90E678E04480F0EC25E044B4
:101C92000190E679F08D168A178B18751903D322F5
:021CA200C3225B
:101E5600121C72E51924FA600B146006240770F34D
:091E6600D3228000E4F519C32227
:101DC500A21C921D120006E51924FA600F14600A80
:101DD50024FD6004240A70EFD3228000E4F519C3C2
:011DE50022DB
:03004B000212D4CA
:1012D400C0E0C083C082C0D075D000C004C005C0C7
:1012E40006C00790E678E030E2067519060213A9F5
:1012F40090E678E020E10DAF19EF640260067519FD
:10130400070213A9E51924FE605114602E24FE700F
:1013140003021398240460030213A90518E518AE08
:10132400177002051714F5828E83E090E679F015A4
:1013340016AF16EF706F751905806A90E679E0AC08
:1013440017AD188D828C83F0751902AF16EF640106
:10135400705390E678E04420F0804AAF16EF6402C0
:10136400700790E678E04420F0AF161516EF64019C
:10137400700A90E678E04440F075190090E679E050
:10138400FF0518E518AC177002051714F5828C8355
:10139400EFF0801175190AE51A600A90E678E044C6
:1013A40040F07519005391DFD007D006D005D00462
:0913B400D0D0D082D083D0E03209
:101D590090E682E044C0F090E681F04387010000FC
:041D69000000002254
:101A84008E688F6990E600E05418700DE568C31302
:101A9400F568E56913F569801590E600E05418FFD0
:101AA400BF100BE56925E0F569E56833F568E5697C
:101AB4001569AE68700215684E6005121D6D80EEE2
:011AC40022FF
:021D0200A9072F
:101D0400AE14AF158F828E83A3E064037017AD0108
:101D140019ED7001228F828E83E07C002FFDEC3E52
:091D2400FEAF0580DF7E007F00A8
:011D2D002293
:101D6D007400F58690FDA57C05A3E582458370F989
:011D7D002243
:030000000214F2F5
:0C14F200787FE4F6D8FD75817A02153988
:100D9400EF8DF0A4A8F0CF8CF0A428CE8DF0A42E73
:020DA400FE222D
:100DA600BC000BBE0029EF8DF084FFADF022E4CC31
:100DB600F875F008EF2FFFEE33FEEC33FCEE9DECFA
:100DC600984005FCEE9DFE0FD5F0E9E4CEFD22ED40
:100DD600F8F5F0EE8420D21CFEADF075F008EF2F8A
:100DE600FFED33FD4007985006D5F0F222C398FD7B
:050DF6000FD5F0EA2218
:100DFB00E88FF0A4CC8BF0A42CFCE98EF0A42CFC97
:100E0B008AF0EDA42CFCEA8EF0A4CDA8F08BF0A414
:100E1B002DCC3825F0FDE98FF0A42CCD35F0FCEB73
:100E2B008EF0A4FEA9F0EB8FF0A4CFC5F02ECD3938
:0F0E3B00FEE43CFCEAA42DCE35F0FDE43CFC22A5
:100E4A0075F008758200EF2FFFEE33FECD33CDCC5F
:100E5A0033CCC58233C5829BED9AEC99E5829840E2
:100E6A000CF582EE9BFEED9AFDEC99FC0FD5F0D6BF
:100E7A00E4CEFBE4CDFAE4CCF9A88222B800C1B9E9
:100E8A000059BA002DEC8BF084CFCECDFCE5F0CB27
:100E9A00F97818EF2FFFEE33FEED33FDEC33FCEB60
:100EAA0033FB10D703994004EB99FB0FD8E5E4F91B
:100EBA00FA227818EF2FFFEE33FEED33FDEC33FC08
:100ECA00C933C910D7059BE99A4007EC9BFCE99AFC
:100EDA00F90FD8E0E4C9FAE4CCFB2275F010EF2F41
:100EEA00FFEE33FEED33FDCC33CCC833C810D70741
:100EFA009BEC9AE899400AED9BFDEC9AFCE899F87C
:0E0F0A000FD5F0DAE4CDFBE4CCFAE4C8F9220E
:100F1800EB9FF5F0EA9E42F0E99D42F0E89C45F02F
:010F280022A6
:100F2900D083D082F8E4937012740193700DA3A357
:100F390093F8740193F5828883E473740293B5F08E
:0D0F4900067403936860E9A3A3A3A380D8F6
:100F5600EC8EF0A4CCC5F0CCCDF8EFA4CEC5F02D28
:100F6600FDE43CFCE8A42EC8C5F03DFDE43CFCEFE6
:0D0F7600A4FFE5F028FEE43DFDE43CFC2274
:1014FE000213BDE493A3F8E493A34003F68001F234
:10150E0008DFF48029E493A3F85407240CC8C333EE
:10151E00C4540F4420C8834004F456800146F6DFBD
:10152E00E4800B0102040810204080901F4BE47EE3
:10153E00019360BCA3FF543F30E509541FFEE493B2
:10154E00A360010ECF54C025E060A840B8E493A379
:10155E00FAE493A3F8E493A3C8C582C8CAC583CAA4
:10156E00F0A3C8C582C8CAC583CADFE9DEE780BE5C
:011F59000087
:00000001FF
